:100000000C9464000C948C000C948C000C948C0068
:100010000C948C000C948C000C948C000C94930722
:100020000C948C000C948C000C948C000C948C0020
:100030000C948C000C948C000C948C000C948C0010
:100040000C9462140C948C000C94AE170C94E01772
:100050000C948C000C948C000C948C000C948C00F0
:100060000C9435130C948C00000000080002010071
:100070000003040700000000000000000102040863
:100080001020408001020408102001020408102002
:10009000040404040404040402020202020203032E
:1000A00003030303000000002300260029000000D2
:1000B0000000250028002B0000000000240027007D
:1000C0002A00F1044B12101811241FBECFEFD8E004
:1000D000DEBFCDBF11E0A0E0B1E0E8E0F9E302C08F
:1000E00005900D92A23EB107D9F724E0A2EEB1E04F
:1000F00001C01D92A134B207E1F710E0C8ECD0E0D6
:1001000004C02297FE010E946F1CC23CD107C9F7B0
:100110000E9454180C94821C0C94000026E040E8C5
:1001200055E260E070E084EA93E00E944C1760E0E2
:1001300070E089E00E94491561E088E00E94D115D5
:1001400060E08DE00E94D1158FEF91E00E94720572
:1001500060E18EEE91E00E94570560ED77E080E06F
:1001600090E00E94DB1462E071E084EA93E00C947A
:10017000A1188EEE91E00C94FC046FEE71E08FEF0D
:1001800091E00E943F06892BC1F18091EF0190918F
:10019000F0018330910519F46AE071E016C08430F3
:1001A000910519F468E171E010C08130910519F4EE
:1001B0006FE171E00AC08230910519F465E271E0E7
:1001C00004C0019631F46BE271E084EA93E00E948E
:1001D000A1184091F3015091F4016091F5017091E3
:1001E000F60120E130E084EA93E00E94A7198FEF46
:1001F00091E00E94890581E0089580E008958DE0F6
:100200000E94401621E0019709F020E0822F089516
:10021000CF93DF9365E371E084EA93E00E94AE1828
:10022000C0E0D0E0BE0189E00E94491562E370E0C1
:1002300080E090E00E94DB142596C43081E0D8076E
:1002400089F7DF91CF910895CF93DF9363E471E055
:1002500084EA93E00E94AE18CFEFD0E0BE0189E0BF
:100260000E9449156EE170E080E090E00E94DB148E
:100270002597CB3F8FEFD80789F7DF91CF9108956E
:100280000F931F93CF93DF938C01C0E0D0E0C01792
:10029000D107F4F462E571E084EA93E00E94A118CA
:1002A00060E070E089E00E94491564E670E080E05B
:1002B00090E00E94DB146FEF70E089E00E94491526
:1002C00064E670E080E090E00E94DB142196DFCFCE
:1002D00060E070E089E0DF91CF911F910F910C9465
:1002E00049158091000190910101029690930101BE
:1002F00080930001109202021092030210920402F5
:100300001092050260E070E089E00E94491564E601
:1003100070E080E090E00E94DB146FEF70E089E015
:100320000E94491564E670E080E090E00E94DB14D2
:1003300060E070E089E00E94491564E670E080E0CA
:1003400090E00E94DB146FEF70E089E00E94491595
:1003500064E670E080E090E00E94DB1460E070E012
:1003600089E00E94491568E571E084EA93E00E9403
:10037000A11860910001709101014AE050E084EA07
:1003800093E00C946B198091000190910101029708
:1003900090930101809300011092020210920302D7
:1003A000109204021092050260E070E089E00E9461
:1003B000491564E670E080E090E00E94DB146FEF86
:1003C00070E089E00E94491564E670E080E090E00A
:1003D0000E94DB1460E070E089E00E94491568E546
:1003E00071E084EA93E00E94A1186091000170918D
:1003F00001014AE050E084EA93E00C946B19482F25
:10040000282F269530E0C90188519C4F642F70E059
:100410000E94E11B9B016093EC01CB01992701969F
:1004200063E070E00E94E11B261B6650443209F134
:1004300028F44E31D1F04132C1F01BC04832C9F02E
:100440004833B9F46093EB012C502093EA014AE061
:1004500050E084EA93E00E9490194AE050E06091F5
:10046000EA0184EA93E00C9490196093EB012A501E
:1004700003C06093EB012B502093EA0108958F9203
:100480009F92AF92BF92CF92DF92EF92FF924091F4
:10049000E6015091E7016091E8017091E901480F90
:1004A000591F611D711D4093E6015093E701609350
:1004B000E8017093E9010E94B8144B015C01C090FF
:1004C000E601D090E701E090E801F090E901C61A5A
:1004D000D70AE80AF90A11F10E94B81468197909D3
:1004E0008A099B096C157D058E059F05B8F461E0AE
:1004F00088E00E940A168091EB01882319F090E0B1
:100500000E94031560E088E00E940A168091EA01CB
:10051000882311F390E00E940315DECFFF90EF9047
:10052000DF90CF90BF90AF909F908F9008958F9263
:100530009F92AF92BF92CF92DF92EF92FF92409143
:10054000E6015091E7016091E8017091E901480FDF
:10055000591F611D711D4093E6015093E70160939F
:10056000E8017093E9010E94B8144B015C01C0904E
:10057000E601D090E701E090E801F090E901C61AA9
:10058000D70AE80AF90A59F00E94B81468197909DB
:100590008A099B096C157D058E059F05A8F3FF90C0
:1005A000EF90DF90CF90BF90AF909F908F90089585
:1005B0008F929F92AF92BF92CF92DF92EF92FF9273
:1005C0000F93CF934B015C01C22F802F4150C12C60
:1005D000D12C7601C39404C0CC0CDD1CEE1CFF1C96
:1005E0004A95D2F79091ED0190130E94FF010E946D
:1005F000B8146093E6017093E7018093E80190934B
:10060000E9016093E2017093E3018093E401909328
:10061000E50188E293E20E943F0284E991E10E94B1
:100620009702C114D104E104F104F1F0D701C6012D
:1006300088219921AA21BB21892B8A2B8B2B39F068
:1006400080E392E00E943F028AE996E006C080E3E0
:1006500092E00E943F0280E392E00E949702F694AB
:10066000E794D794C794DDCF80E392E00E943F02E5
:10067000CC23F9F08091E2019091E30180529A45F8
:100680002091E6013091E701821B930B0E949702B3
:1006900088E293E20E943F028AEC98E00E9497026F
:1006A00080E392E00E943F02C15019F08EEB97E781
:1006B000EDCFCF910F91FF90EF90DF90CF90BF9053
:1006C000AF909F908F900895EF92FF920F93CF93EA
:1006D000DF930E94B9000E94B9007C0161E771E0DC
:1006E00084EA93E00E94A1184AE050E0B70184EA4E
:1006F00093E00E9463196AE771E084EA93E00E9444
:10070000A1184AE050E060E070E084EA93E00E94C3
:100710006B19C0E0D0E0C7010E968C179D0784F1DD
:100720006DE771E084EA93E00E94AE1806E221E0F2
:1007300040E26DEF72E08FEF90E00E94D80268EC2B
:1007400070E080E090E00E94DB140E94B900EC01B0
:100750008E159F0574F46CE871E084EA93E00E94C2
:10076000A1184AE050E0BE0184EA93E00E946B19B0
:100770007E0168EC70E080E090E00E94DB14CBCF5B
:10078000DF91CF910F91FF90EF900895EF92FF923C
:100790000F93CF93DF930E94B9007C01EC01C70156
:1007A0000997C817D90784F167E971E084EA93E0F3
:1007B0000E94AE1806E221E040E26DEF72E08FEF9A
:1007C00090E00E94D80268EC70E080E090E00E9427
:1007D000DB140E94B900EC01E816F90674F46CE829
:1007E00071E084EA93E00E94A1184AE050E0BE0163
:1007F00084EA93E00E946B197E0168EC70E080E06F
:1008000090E00E94DB14CBCF60E177E280E090E0E3
:10081000DF91CF910F91FF90EF900C94DB148091BA
:10082000F3019091F401A091F501B091F6018F3A96
:1008300020E592072FEFA207B10549F130F48F3E72
:100840009041AF4FB10559F13AC08F3820E7920778
:100850002FEFA207B105A1F08D369248AF4FB10539
:1008600071F58091000291E089278093000288232E
:1008700099F00E9424010E94C603109201020CC04C
:1008800080910002882341F00E94710105C080918F
:10089000000281110E94C30180E090E008958091E0
:1008A00000028823C9F360E070E089E00E944915E6
:1008B0000E94C6030E94B9000E944001EDCF81E072
:1008C00090E00895CF92DF92EF92FF92CF93DF9363
:1008D0000E94AC146B017C010E94FF00882309F484
:1008E0004BC080910002811143C0C0920202D0929D
:1008F0000302E0920402F09205020E94B900EC01AA
:1009000080910102811138C0809100019091010114
:10091000C817D9078CF567EA71E084EA93E00E9472
:10092000A1184AE050E0BE0184EA93E00E946319F6
:100930006FEA71E084EA93E00E94AE1869E871E022
:1009400084EA93E00E94AE1864E170E080E090E0F9
:100950000E94DB140E94640364EF71E080E090E089
:100960000E94DB140E94080181E08093010204C010
:1009700084E090E00E9440010E94BD0081110E942D
:100980000F048091020290910302A0910402B091A1
:100990000502C81AD90AEA0AFB0A89ECC8168FEAC6
:1009A000D806E104F104B0F080910102882391F0AF
:1009B00063EA71E084EA93E00E94AE180E94240189
:1009C0006CE474E080E090E00E94DB140E94C603B7
:1009D00010920102DF91CF91FF90EF90DF90CF90C6
:1009E000089562E070E08FEF91E00E946D058EEE59
:1009F00091E00C94FB040895CF93DF9363E270E0E1
:100A00008BED92E00E94CF1142E050E063E270E093
:100A10008BED92E00E9445128BED92E00E942C112A
:100A2000D82F80E0C82F8BED92E00E942C11C82BAC
:100A3000D92B8BED92E00E944812BE0180E090E03D
:100A40000E94BC1A2AE939E949E95FE30E94231AA6
:100A50000E94901ACB01DF91CF910895CF93C62FBA
:100A600063E270E08BED92E00E94CF116C2F8BED72
:100A700092E00E947C118BED92E0CF910C94481291
:100A8000633161F028F420EF260F223078F406C09D
:100A9000603260F0623210F0633241F40E942E0541
:100AA0008FE39CE90197F1F700C0000008950F93D0
:100AB0001F93CF93DF931F92CDB7DEB78C018BEDE1
:100AC00092E069830E94BB116981C8010F90DF9198
:100AD000CF911F910F910C944005609307021092E3
:100AE00009020895F89482E08093B0008093B100E9
:100AF00094E69093B3001092B200809370007894C3
:100B00008093060210920A028091070260E00C9422
:100B1000D11582E08093060210920A0208958F9206
:100B20009F92AF92BF92CF92DF92EF92FF927B01A2
:100B3000BA0180E090E00E94BC1A4B015C01B70151
:100B400080E090E00E94BC1A6B017C012DEC3CEC33
:100B50004CE45FE30E946E1B9B01AC01C501B40134
:100B60000E941F1A87FD17C02DEC3CEC4CE45FE39C
:100B7000C501B4010E946E1B9B01AC01C701B60107
:100B80000E941F1A992787FD90958827990F881F23
:100B90009927019602C080E090E0FF90EF90DF90EF
:100BA000CF90BF90AF909F908F9008958F929F921B
:100BB000AF92BF92CF92DF92EF92FF920F931F936B
:100BC000CF93DF936C01EB01EC84FD8486E0E816A3
:100BD000F1040CF444C0EE0CFF1C06E010E045EC00
:100BE000842E4DE9942E4CE1A42E41E8B42E8A8542
:100BF0009B85FC01E00FF11F40815181F801349782
:100C0000E80FF91F60817181C6010E948F05FC0108
:100C1000A501940163E971E080E091E00E94D11B9D
:100C20004F01AA2497FCA094BA2C86269726A826C2
:100C3000B9260E5F1F4F0E151F05C9F68C829D82C7
:100C4000AE82BF8280E290E0998788878FEF9FEF26
:100C50009983888361E070E080E090E003C060E009
:100C600070E0CB01DF91CF911F910F91FF90EF903A
:100C7000DF90CF90BF90AF909F908F9008950F938B
:100C80001F93CF93DF938C01EB018DE092E09B8764
:100C90008A8780910A0290E09D878C878091D70295
:100CA00090E09F878E8780910602853009F05EC0B4
:100CB000C8010E942E0B882319F081E090E058C0F3
:100CC000BE01C8010E94E70F8111F7CFBE01C80124
:100CD0000E94430F8111F1CFBE01C8010E949F0AFB
:100CE0008111EBCFBE01C8010E94050D8111E5CF36
:100CF000BE01C8010E94AC0D8111DFCFBE01C80149
:100D00000E94CD0B8111D9CFBE01C8010E94120AE9
:100D10008111D3CFBE01C8010E9459098111CDCFE5
:100D2000BE01C8010E94A40E8111C7CFBE01C80137
:100D30000E9482108111C1CFBE01C8010E944D08DE
:100D40008111BBCFBE01C8010E94DE088111B5CF61
:100D5000BE01C8010E94D605672B682B692B09F0DC
:100D6000ACCF82E08093060210920A0280E090E00D
:100D7000DF91CF911F910F910895CF92DF92EF9263
:100D8000FF92CF93DF93EC01882777FD8095982F12
:100D90000E94BE1A6B017C0120E030E040E45FE37A
:100DA0000E946E1B20E030E048E452E40E94231AC7
:100DB0000E948B1AC617D707ECF020E030E040EA1B
:100DC0005FE3C701B6010E946E1B20E030E048E4FB
:100DD00052E40E94231A20E030E040E85FE30E94E2
:100DE000BB190E948B1A21E06C177D070CF420E0E0
:100DF000822F01C080E090E0DF91CF91FF90EF90D3
:100E0000DF90CF900895CF92DF92EF92FF92CF9331
:100E1000DF93EC016C597F4F882777FD8095982FE1
:100E20000E94BE1A6B017C0120E030E040E45FE3E9
:100E30000E946E1B20E030E048E452E40E94231A36
:100E40000E948B1AC617D707ECF020E030E040EA8A
:100E50005FE3C701B6010E946E1B20E030E048E46A
:100E600052E40E94231A20E030E040E85FE30E9451
:100E7000BB190E948B1A21E06C177D070CF420E04F
:100E8000822F01C080E090E0DF91CF91FF90EF9042
:100E9000DF90CF900895CF92DF92EF92FF92CF93A1
:100EA000DF93EC0164567109882777FD8095982FB0
:100EB0000E94BE1A6B017C0120E030E040E45FE359
:100EC0000E946E1B20E030E048E452E40E94231AA6
:100ED0000E948B1AC617D707ECF020E030E040EAFA
:100EE0005FE3C701B6010E946E1B20E030E048E4DA
:100EF00052E40E94231A20E030E040E85FE30E94C1
:100F0000BB190E948B1A21E06C177D070CF420E0BE
:100F1000822F01C080E090E0DF91CF91FF90EF90B1
:100F2000DF90CF9008951F920F920FB60F92112469
:100F30002F933F934F935F936F937F938F939F93E1
:100F4000AF93BF93EF93FF93809107020E944016E7
:100F500020910B0230910C022F5F3F4F30930C0217
:100F600020930B0290910A02953618F096E0909328
:100F70000602909106029430C9F128F4923069F08B
:100F80009330D1F05EC0953009F451C0963009F02D
:100F900058C091E09093D70251C0811152C0209166
:100FA0000B0230910C022436310508F442C0109235
:100FB000D70210920A021CC0813009F042C0E091B1
:100FC0000A0291E09E0F90930A02F0E020910B023A
:100FD00030910C02EE0FFF1FEA5FFD4F3087278331
:100FE00010920C0210920B0294E029C0811117C0DC
:100FF000E0910A0291E09E0F90930A02F0E02091A6
:101000000B0230910C02EE0FFF1FEA5FFD4F30879D
:10101000278310920C0210920B0293E010C02091D3
:101020000B0230910C022536310558F007C08111B2
:1010300008C010920C0210920B0203C095E090932E
:101040000602909109029923B9F081110AC080919A
:101050000802882321F08091080261E009C02D9ADE
:101060000BC080910802882331F08091080260E073
:101070000E940A1601C02D98FF91EF91BF91AF9188
:101080009F918F917F916F915F914F913F912F91A0
:101090000F900FBE0F901F901895AF92BF92CF92F6
:1010A000DF92EF92FF920F931F93CF93DF93EB01A9
:1010B00080910A02883510F480E075C0EA85FB85CE
:1010C0008281938160E672E20E940307892BA1F37B
:1010D000EA85FB858481958164E971E10E944B0773
:1010E000892B51F3BEE1CB2ED12C1DE1E12EF12C49
:1010F00000E010E080910A0290E00497E816F906FB
:10110000C4F5EA85FB85C701880F991FE80FF91F11
:101110008081918164EF71E00E940307892B61F265
:101120005601AA0CBB1CEA85FB85EA0DFB1D8081DC
:10113000918168E572E00E944B07892B21F0000F36
:10114000111F01600EC0EA85FB85EA0DFB1D808141
:10115000918164EA76E00E944B07892B49F0000FE9
:10116000111F82E0E80EF11C82E0C80ED11CC2CF34
:10117000760181E0E81AF108F594E794F986E886AB
:101180008AE2E816F1040CF497CFC801AA2797FD6C
:10119000A095BA2F8C839D83AE83BF8389E090E0B6
:1011A0009983888381E0DF91CF911F910F91FF9008
:1011B000EF90DF90CF90BF90AF900895AF92BF9225
:1011C000CF92DF92EF92FF920F931F93CF93DF9313
:1011D000EB0180910A02803211F080E05FC0EA8565
:1011E000FB85828193816CE271E00E940307892B69
:1011F000A1F3EA85FB85848195816EEE72E00E9401
:101200004B07892B51F306E010E0C12CD12C76015D
:10121000EA85FB85E00FF11F808191816CE271E02E
:101220000E940307892BC9F2580182E0A80EB11C65
:10123000EA85FB85EA0DFB1D8081918168E077E0FE
:101240000E944B07892B39F0CC0CDD1CEE1CFF1CD7
:101250006894C0F811C0EA85FB85EA0DFB1D80810A
:1012600091816EEE72E00E944B07892B09F4B5CF95
:10127000CC0CDD1CEE1CFF1C0C5F1F4F0E33110548
:1012800039F68EE090E099878887CC82DD82EE8205
:10129000FF828FE090E09983888381E0DF91CF9196
:1012A0001F910F91FF90EF90DF90CF90BF90AF9084
:1012B0000895AF92BF92CF92DF92EF92FF920F9379
:1012C0001F93CF93DF93EB0180910A02823261F585
:1012D000EA85FB858281938168E572E00E940307BD
:1012E000892B11F180910A0290E081509048880F7B
:1012F000991FEA85FB85E80FF91F8081918168E5D8
:1013000072E00E940307892B79F0198618868FEF07
:101310009FEFDC018C839D83AE83BF8386E090E0EA
:101320009983888381E073C0EA85FB8582819381FC
:1013300060E47FE10E940307892B21F080910A027B
:10134000813210F480E063C0EA85FB858481958159
:1013500060EA7FE00E944B07892BA1F358E0A52E9D
:10136000B12C03E010E0C12CD12C7601EA85FB857D
:10137000C801880F991FE80FF91F8081918168E5E6
:1013800072E00E940307892BE9F2EA85FB85EA0DEA
:10139000FB1D8081918160E476E00E944B07892BE0
:1013A00039F0CC0CDD1CEE1CFF1C6894C0F811C099
:1013B000EA85FB85EA0DFB1D8081918166E272E082
:1013C0000E944B07892B09F4BDCFCC0CDD1CEE1C11
:1013D000FF1C0E5F1F4F84E0A80EB11C03321105E5
:1013E00029F6EA85FB85EA5BFF4F8081918168E5FC
:1013F00072E00E940307892B09F4A4CF80E190E0FA
:1014000099878887CC82DD82EE82FF8287CFDF9149
:10141000CF911F910F91FF90EF90DF90CF90BF90F1
:10142000AF900895AF92BF92CF92DF92EF92FF926A
:101430000F931F93CF93DF93EB0180910A028933BF
:1014400010F480E071C0EA85FB858281938160E4BD
:101450007FE10E940307892BA1F3EA85FB85848144
:10146000958160EA7FE00E944B07892B51F338E0B9
:10147000A32EB12C03E010E0C12CD12C7601EA851B
:10148000FB85C801880F991FE80FF91F80819181A2
:1014900068E572E00E940307892B99F2EA85FB85D3
:1014A000EA0DFB1D8081918160E476E00E944B078C
:1014B000892B39F0CC0CDD1CEE1CFF1C6894C0F8A5
:1014C00011C0EA85FB85EA0DFB1D8081918166E2F2
:1014D00072E00E944B07892B09F4B3CFCC0CDD1CC2
:1014E000EE1CFF1C0E5F1F4F84E0A80EB11C0B33D7
:1014F000110529F6EA85FB85EA58FF4F8081918125
:1015000068E572E00E940307892B09F49ACF8CE109
:1015100090E099878887CC82DD82EE82FF828AE024
:1015200090E09983888381E0DF91CF911F910F91A3
:10153000FF90EF90DF90CF90BF90AF9008956F92A3
:101540007F928F929F92AF92BF92CF92DF92EF9253
:10155000FF920F931F93CF93DF93EB0180910A02C9
:10156000823208F461C0EA85FB85828193816EE551
:1015700071E00E940307892B09F456C063E0A62E90
:10158000B12C02E010E0C12CD12C76013501809104
:101590000A0290E0A816B906E4F54801880C991CE7
:1015A000EA85FB85E80DF91D808191816EE977E080
:1015B0000E940307892B39F0CC0CDD1CEE1CFF1CAC
:1015C0006894C0F810C0EA85FB85E80DF91D80819C
:1015D00091816EEE72E00E940307892B29F1CC0CF9
:1015E000DD1CEE1CFF1CC501880F991FEA85FB85D9
:1015F000E80FF91F808191816EE571E00E944B0731
:1016000022E0A20EB11C892B19F00E5F1F4FBECF36
:101610008301015011091595079519870887003135
:10162000110524F41986188680E009C0CC82DD8279
:10163000EE82FF828CE090E09983888381E0DF91E5
:10164000CF911F910F91FF90EF90DF90CF90BF90BF
:10165000AF909F908F907F906F900895AF92BF92C0
:10166000CF92DF92EF92FF920F931F93CF93DF936E
:10167000EB01EA85FB858281938168E273E20E9437
:101680000307892B11F480E07DC080910A02843029
:1016900019F5EA85FB85848195816AEC78E00E94E2
:1016A0004B07892BC9F0EA85FB858681978160E32A
:1016B00072E00E940307892B79F0198618868FEF54
:1016C0009FEFDC018C839D83AE83BF8383E090E03A
:1016D0009983888381E056C080910A02843498F20D
:1016E000EA85FB858481958164E971E10E944B075D
:1016F000892B49F206E010E0C12CD12C7601EA8555
:10170000FB85E00FF11F8081918160E372E00E9410
:101710000307892B09F4B7CF580182E0A80EB11C4A
:10172000EA85FB85EA0DFB1D808191816AE976E0FF
:101730000E944B07892B39F0CC0CDD1CEE1CFF1CE2
:101740006894C0F811C0EA85FB85EA0DFB1D808115
:10175000918160E372E00E944B07892B09F493CFDB
:10176000CC0CDD1CEE1CFF1C0C5F1F4F0638110556
:1017700031F680E290E099878887CC82DD82EE8224
:10178000FF82A4CFDF91CF911F910F91FF90EF9037
:10179000DF90CF90BF90AF9008958F929F92AF92BD
:1017A000BF92CF92DF92EF92FF920F931F93CF934E
:1017B000DF9300D000D0CDB7DEB74B01DB011A9626
:1017C000ED91FC911B97828193816EEA7DE00E94EE
:1017D0000307892B11F480E093C0D4011A96ED9190
:1017E000FC911B978481958166ED76E00E9403074A
:1017F000892B89F3E6E0EE2EF12C20E030E040E08A
:1018000050E0A12CB12CC12CD12CD4011A96ED9111
:10181000FC911B97EE0DFF1D8081918166EF71E0B9
:1018200029833A834B835C830E940307892B99F2B7
:1018300087010E5F1F4FD4011A96ED91FC911B9703
:10184000E00FF11F808191816CED74E00E944B07E5
:1018500029813A814B815C81892B39F0B501C60120
:1018600001E00E94221C21601DC0D4011A96ED9156
:10187000FC911B97E00FF11F8081918160E971E07D
:1018800029833A834B835C830E944B0729813A81E9
:101890004B815C81892B09F49ECFB501C60101E023
:1018A0000E94221C5B016C01B4E0EB0EF11CE6EC23
:1018B000EE16F10409F0A9CFD40114962C931497D5
:1018C00015963C93159716964C93169717965C931E
:1018D0001797B501C60100E20E943D1C12962C9399
:1018E000129713963C93139785E090E011969C9382
:1018F0008E9380E390E019969C938E93189781E0E5
:101900000F900F900F900F90DF91CF911F910F913B
:10191000FF90EF90DF90CF90BF90AF909F908F900F
:1019200008958F929F92AF92BF92CF92DF92EF92E3
:10193000FF920F931F93CF93DF937A016901DA012E
:10194000CD91DC91FB0184859585C817D9070CF0F2
:101950004AC0CE01880F991F0284F385E02DE80F5D
:10196000F91FA080B180C170DD27F1E0CF2720975B
:1019700019F484E690E002C08CE99FEF4801880EDC
:10198000991EB401C5010E94BD06892B99F4800EF1
:10199000911EB401C5010E94BD06892B71F4B401EA
:1019A000600F711FC5010E94BD06892BF9F023E06D
:1019B00030E005C021E030E002C022E030E0D60196
:1019C0008D919C91119701968217930744F0F6012F
:1019D00011821082D7018D919C91119701968D9360
:1019E0009C93CE0105C081E090E002C08FEF9FEF95
:1019F000DF91CF911F910F91FF90EF90DF90CF90EB
:101A0000BF90AF909F908F9008954F925F926F928A
:101A10007F928F929F92AF92BF92CF92DF92EF927E
:101A2000FF920F931F93CF93DF9300D000D0CDB7D9
:101A3000DEB76C017B011C821B8281E090E09A83FF
:101A4000898380910A028D3010F480E070C009E72C
:101A500013E09E012D5F3F4FAE014F5F5F4FC60108
:101A60000E94910C892B89F79E012D5F3F4FAE019B
:101A70004F5F5F4FB701C6010E94910C019729F794
:101A80009E012D5F3F4FAE014F5F5F4FB701C60113
:101A90000E94910C892BC9F6412C512C3201A12CAA
:101AA000B12C80910A0290E029813A8128173907E8
:101AB0009CF509E713E09E012D5F3F4FAE014F5F9C
:101AC0005F4FB701C6010E94910C4C019E012D5F32
:101AD0003F4FAE014F5F5F4FB701C6010E94910CAF
:101AE00021E08216910451F4892B09F0AECF440C09
:101AF000551C661C771C689440F80AC0892809F0B8
:101B0000A4CF019709F0A1CF440C551C661C771C8B
:101B10008FEFA81AB80AC5CFF701B186A086448214
:101B200055826682778281E090E0918380830F9076
:101B30000F900F900F90DF91CF911F910F91FF9019
:101B4000EF90DF90CF90BF90AF909F908F907F905D
:101B50006F905F904F9008952F923F924F925F92B7
:101B60006F927F928F929F92AF92BF92CF92DF92AD
:101B7000EF92FF920F931F93CF93DF9300D000D08B
:101B8000CDB7DEB76C017B011C821B82DB011C968A
:101B90008D919C911D971816190614F080E0BDC018
:101BA000DB011A96ED91FC911B9782E090E09A83FD
:101BB0008983828193816AE67AE00E940307892BF8
:101BC00069F3D7011A96ED91FC911B9789819A814F
:101BD0009C012F5F3F4F3A832983880F991FE80F9D
:101BE000F91F8081918169E773E00E944B07892B7F
:101BF000A9F20CEB11E09E012D5F3F4FAE014F5F4C
:101C00005F4FB701C6010E94910C892B39F69E01E6
:101C10002D5F3F4FAE014F5F5F4FB701C6010E947E
:101C2000910C019709F0BACF212C312C2101A12C64
:101C3000B12C29813A81F7018485958528173907C8
:101C40000CF060C00CEB11E09E012D5F3F4FAE0128
:101C50004F5F5F4FB701C6010E94910C3C01B3E09A
:101C6000AB16B10491F00CEB11E09E012D5F3F4FDC
:101C7000AE014F5F5F4FB701C6010E94910C4C014E
:101C8000E3E0AE16B10409F510C00CEB11E09E01C3
:101C90002D5F3F4FAE014F5F5F4FB701C6010E94FE
:101CA000910C68167906F9F279CF0CEB11E09E01E0
:101CB0002D5F3F4FAE014F5F5F4FB701C6010E94DE
:101CC000910C8816990609F069CF6114710459F4D2
:101CD0008A94892809F062CF220C331C441C551CBD
:101CE000689420F80BC06A94672809F057CF8928B8
:101CF00009F054CF220C331C441C551CAFEFAA1A18
:101D0000BA0A97CFB186A08624823582468257824E
:101D100082E090E09183808381E00F900F900F909C
:101D20000F90DF91CF911F910F91FF90EF90DF9077
:101D3000CF90BF90AF909F908F907F906F905F906B
:101D40004F903F902F900895AF92BF92CF92DF9225
:101D5000EF92FF920F931F93CF93DF93EB01EA85EE
:101D6000FB858281938168E873E10E940307892BD8
:101D700011F480E07DC080910A02843019F5EA8573
:101D8000FB85848195816AEC78E00E944B07892B62
:101D9000C9F0EA85FB858681978160E372E00E9445
:101DA0000307892B79F0198618868FEF9FEFDC01E6
:101DB0008C839D83AE83BF8387E090E09983888383
:101DC00081E056C080910A02843498F2EA85FB854E
:101DD0008481958168E873E10E944B07892B49F261
:101DE00006E010E0C12CD12C7601EA85FB85E00FDE
:101DF000F11F8081918160E372E00E940307892BCB
:101E000009F4B7CF580182E0A80EB11CEA85FB8522
:101E1000EA0DFB1D8081918160E476E00E944B0712
:101E2000892B39F0CC0CDD1CEE1CFF1C6894C0F82B
:101E300011C0EA85FB85EA0DFB1D8081918160E37D
:101E400072E00E944B07892B09F493CFCC0CDD1C68
:101E5000EE1CFF1C0C5F1F4F0638110531F680E2A7
:101E600090E099878887CC82DD82EE82FF82A4CFC2
:101E7000DF91CF911F910F91FF90EF90DF90CF9066
:101E8000BF90AF9008958F929F92AF92BF92CF92E2
:101E9000DF92EF92FF920F931F93CF93DF93EB01AB
:101EA00080910A028A3108F47AC0EA85FB85808134
:101EB00091818032934050F4198618868FEF9FEFFE
:101EC000DC018C839D83AE83BF836FC0828193814D
:101ED0006CEA7DE00E940307892B09F460C0EA8563
:101EE000FB85848195816CEA7DE00E940307892B44
:101EF00009F455C054E0A52EB12C03E010E0C12C2C
:101F0000D12C760180910A0290E0A816B906E4F57A
:101F1000EA85FB85C801880F991FE80FF91F8081AA
:101F2000918166EB73E00E944B07892B61F14501BB
:101F3000880C991CEA85FB85E80DF91D808191814B
:101F400060E679E00E940307892B39F0CC0CDD1C98
:101F5000EE1CFF1C6894C0F810C0EA85FB85E80DF4
:101F6000F91D808191816CEB72E00E940307892B3F
:101F7000B1F0CC0CDD1CEE1CFF1C0E5F1F4F82E08D
:101F8000A80EB11CBFCF8501015011091595079509
:101F9000198708870C30110524F41986188680E00B
:101FA00009C0CC82DD82EE82FF828BE090E09983D3
:101FB000888381E0DF91CF911F910F91FF90EF9087
:101FC000DF90CF90BF90AF909F908F9008958F92A9
:101FD0009F92AF92BF92CF92DF92EF92FF920F93B8
:101FE0001F93CF93DF93EB0180910A028A3108F4AB
:101FF00071C0EA85FB8580819181843F914060F4C6
:10200000198618868FEF9FEFDC018C839D83AE834A
:10201000BF838BE090E066C08281938160E679E0C7
:102020000E940307892B09F455C073E0A72EB12C39
:1020300002E010E0C12CD12C760180910A0290E0E0
:10204000A816B906E4F5EA85FB85C801880F991F33
:10205000E80FF91F8081918168E572E00E944B07CB
:10206000892B61F14501880C991CEA85FB85E80DF7
:10207000F91D8081918160EB74E00E940307892B38
:1020800039F0CC0CDD1CEE1CFF1C6894C0F810C0AD
:10209000EA85FB85E80DF91D8081918168E572E094
:1020A0000E940307892BB1F0CC0CDD1CEE1CFF1C39
:1020B0000E5F1F4F82E0A80EB11CBFCF85010150FB
:1020C000110915950795198708870C30110524F417
:1020D0001986188680E009C0CC82DD82EE82FF82FC
:1020E00084E090E09983888381E0DF91CF911F9114
:1020F0000F91FF90EF90DF90CF90BF90AF909F90A7
:102100008F900895AF92BF92CF92DF92EF92FF929D
:102110000F931F93CF93DF93EB0180910A028634D4
:1021200010F480E086C0EA85FB85828193816EEEA3
:1021300072E00E940307892BA1F3EA85FB85848165
:1021400095816EEE72E00E944B07892B51F3EA8570
:10215000FB858681978162E27BE00E940307892BE1
:1021600001F3EA85FB858085918562E27BE00E9430
:102170004B07892BB1F25CE0A52EB12C05E010E0F5
:10218000C12CD12C7601EA85FB85C801880F991FE7
:10219000E80FF91F808191816EEE72E00E940307C3
:1021A000892B09F4BECFEA85FB85EA0DFB1D8081F2
:1021B000918166E678E00E944B07892B39F0CC0CC0
:1021C000DD1CEE1CFF1C6894C0F811C0EA85FB857D
:1021D000EA0DFB1D808191816EEE72E00E944B073B
:1021E000892B09F49ECFCC0CDD1CEE1CFF1C0E5F6E
:1021F0001F4F84E0A80EB11C0534110521F6EA85B5
:10220000FB85E657FF4F808191816EEE72E00E9460
:102210000307892B09F485CF80E290E099878887AE
:10222000CC82DD82EE82FF8288E090E09983888311
:1022300081E0DF91CF911F910F91FF90EF90DF90A0
:10224000CF90BF90AF90089580910B0390E02091C4
:102250000C03821B9109089520910C0380910B03BC
:10226000281750F4E22FF0E0E35FFC4F808190E00C
:102270002F5F20930C0308958FEF9FEF0895E09157
:102280000C0380910B03E81730F4F0E0E35FFC4FA0
:10229000808190E008958FEF9FEF08950895CF9289
:1022A000DF92EF92FF920F931F93CF93DF937C0106
:1022B000CB018A012091E702222389F0EB016B0117
:1022C000C40ED51ECC15DD0569F06991D701ED91DD
:1022D000FC910190F081E02DC7010995F3CF642FA7
:1022E0000E940C13C801DF91CF911F910F91FF90B5
:1022F000EF90DF90CF900895CF93DF931F92CDB7EB
:10230000DEB769832091E7022223D1F02091E80211
:10231000203240F021E030E0FC013383228380E072
:1023200090E015C08091E902E82FF0E0E651FD4F02
:10233000998190838F5F8093E9028093E80205C0C2
:1023400061E0CE0101960E940C1381E090E00F90B5
:10235000DF91CF910895FC011382128248EE53E081
:1023600060E070E0448355836683778387EB91E078
:1023700091838083089510920C0310920B031092A6
:10238000E9021092E8020C944F1281E08093E70278
:1023900060930A031092E9021092E80208950C94E7
:1023A000C5110F93062F21E04091E8026AEE72E01A
:1023B00080910A030E94B5121092E9021092E8027D
:1023C0001092E7020F9108958F929F92AF92BF9261
:1023D000CF92DF92EF92FF920F931F93CF93DF93F1
:1023E000EC01F62ED42E48015901EE2019F10E947D
:1023F000C5111E2D143008F013E01150B8F0E8811B
:10240000F98128E0129FB0011124A501940104C0B4
:1024100056954795379527956A95D2F7CA01B90120
:102420000190F081E02DCE010995E7CF60E0CE016B
:102430000E94D1114D2D413208F040E22C2D6DE06B
:1024400073E08F2D0E946D1210920C0380930B038A
:10245000DF91CF911F910F91FF90EF90DF90CF9080
:10246000BF90AF909F908F900895CF92EF920F936F
:102470001F93C22EE12C00E010E098010E94E411AD
:102480001F910F91EF90CF90089521E00C94351299
:1024900061E00C94D1118BED92E00C94AB11109291
:1024A0009A0381E0809398031092970361E082E1A0
:1024B0000E940A1661E083E10E940A16E9EBF0E04F
:1024C00080818E7F808380818D7F808388E480936C
:1024D000B80085E48093BC000895413208F043C001
:1024E00090919A039111FCCF91E090939A032093DD
:1024F00098032FEF20932D0310927203240F209343
:1025000071039093990390919903880F892B80937D
:10251000990380919703813061F410929703809121
:1025200099038093BB008091BC0083FDF8CF85ECBC
:1025300001C085EE8093BC0080919A038130E1F365
:1025400080917203841710F44091720323E733E003
:10255000FB01D9018A2F821B841718F48D91819376
:10256000F9CF842F089580E008950F93413208F049
:102570004AC090919A039111FCCF92E090939A03F4
:10258000009398039FEF90932D0310927203409352
:102590007103FB0163E773E0DB019A2F961B94172D
:1025A00018F491919D93F9CF10929903909199030A
:1025B000880F892B8093990380919703813061F470
:1025C00010929703809199038093BB008091BC0087
:1025D00083FDF8CF85EC01C085EE8093BC002223FB
:1025E00021F080919A038230E1F380912D038F3F97
:1025F00061F080912D03803251F080912D03803362
:1026000041F483E007C081E005C080E003C082E0C0
:1026100001C084E00F910895613298F420919A03EB
:10262000243089F460934F03FC0181E593E0DC01E1
:102630002A2F281B261718F421912D93F9CF80E01B
:10264000089581E0089582E0089585ED8093BC00AF
:102650008091BC0084FDFCCF10929A03089585EC14
:102660008093BC0010929A0308951F920F920FB6A8
:102670000F9211242F933F934F935F936F937F9308
:102680008F939F93AF93BF93EF93FF938091B90084
:10269000887F803609F49EC078F5883209F45DC0E1
:1026A00090F4803109F456C038F4882309F4F5C059
:1026B000883009F44FC0F5C0883109F44EC080322B
:1026C00009F45FC0EEC0803409F46AC058F4803366
:1026D00009F457C0883309F0E4C080932D030E94A9
:1026E0002F13DFC0803509F44FC0883509F45DC071
:1026F000883409F0D6C0D3C0883909F4C4C0A8F41E
:10270000883709F467C038F4883609F463C0803725
:1027100009F460C0C6C0883809F4B5C0803909F42E
:102720005FC0803809F0BDC05BC0803B09F483C046
:1027300038F4803A09F466C0883A09F47CC0B1C024
:10274000803C09F4A4C0883C09F4A1C0883B09F48A
:1027500087C0A7C08091990310C0909172038091A7
:102760007103981770F5E091720381E08E0F8093EA
:102770007203F0E0ED58FC4F80818093BB0085EC44
:1027800083C080932D038BC0E091720381E08E0F94
:10279000809372038091BB00F0E0ED58FC4F808382
:1027A00090917203809171036BC0E091720381E09C
:1027B0008E0F809372038091BB00F0E0ED58FC4FC8
:1027C00080838091980381116AC081E08093970390
:1027D00084EA5EC083E080939A0310922E03CFCFE9
:1027E00080912E03803208F04EC0E0912E0381E0EC
:1027F0008E0F80932E038091BB00F0E0E15DFC4FD3
:102800008083BDCF0E942F1380912E03803230F43D
:10281000E0912E03F0E0E15DFC4F108260912E0309
:1028200070E0E0919303F09194038FE293E00995B7
:1028300010922E0336C084E080939A0310925003C6
:1028400010924F03E0919503F091960309958091C2
:102850004F03811105C081E080934F031092510313
:10286000E091500381E08E0F80935003F0E0EF5A27
:10287000FC4F80818093BB009091500380914F0367
:10288000981708F47CCF85E88093BC000AC085ECDB
:102890008093BC0010929A0304C010922D030E94F2
:1028A0002513FF91EF91BF91AF919F918F917F91F0
:1028B0006F915F914F913F912F910F900FBE0F90AD
:1028C0001F9018951F920F920FB60F9211242F93FD
:1028D0003F938F939F93AF93BF9380919C0390916D
:1028E0009D03A0919E03B0919F0330919B0323E031
:1028F000230F2D3720F40196A11DB11D05C026E838
:10290000230F0296A11DB11D20939B0380939C036E
:1029100090939D03A0939E03B0939F038091A00387
:102920009091A103A091A203B091A3030196A11DD0
:10293000B11D8093A0039093A103A093A203B09331
:10294000A303BF91AF919F918F913F912F910F90D2
:102950000FBE0F901F9018952FB7F89460919C03AD
:1029600070919D0380919E0390919F032FBF0895C6
:102970003FB7F8948091A0039091A103A091A20386
:10298000B091A30326B5A89B05C02F3F19F001966F
:10299000A11DB11D3FBF6627782F892F9A2F620F87
:1029A000711D811D911D42E0660F771F881F991FC1
:1029B0004A95D1F70895CF92DF92EF92FF92CF938D
:1029C000DF936B017C010E94B814EB01C114D104A8
:1029D000E104F10489F00E94B9190E94B8146C1B3B
:1029E0007D0B683E734090F381E0C81AD108E1087E
:1029F000F108C851DC4FEACFDF91CF91FF90EF9003
:102A0000DF90CF9008958230910538F0880F991F9C
:102A1000880F991F05970197F1F70895789484B569
:102A2000826084BD84B5816084BD85B5826085BDCA
:102A300085B5816085BDEEE6F0E0808181608083B0
:102A4000E1E8F0E010828081826080838081816093
:102A50008083E0E8F0E0808181608083E1EBF0E05A
:102A6000808184608083E0EBF0E0808181608083FE
:102A7000EAE7F0E0808184608083808182608083E7
:102A80008081816080838081806880831092C10012
:102A900008951F93CF93DF93182FEB0161E00E94FD
:102AA000D115209711F460E004C0CF3FD10539F46F
:102AB00061E0812FDF91CF911F910C940A16E12FD5
:102AC000F0E0E859FF4FE491E330F9F048F4E130E9
:102AD000B9F0E230A1F584B5806284BDC8BD34C0D0
:102AE000E730E9F0E83019F1E43049F580918000F1
:102AF000806280938000D0938B00C0938A0024C0B2
:102B000084B5806884BDC7BD1FC080918000806887
:102B100080938000D0938900C093880015C0809175
:102B2000B00080688093B000C093B3000DC0809166
:102B3000B00080628093B000C093B40005C0C0387C
:102B4000D1050CF0B5CFAFCFDF91CF911F91089594
:102B5000833081F028F4813099F08230A1F008951B
:102B60008730A9F08830B9F08430D1F480918000AA
:102B70008F7D03C0809180008F77809380000895BF
:102B800084B58F7702C084B58F7D84BD0895809110
:102B9000B0008F7703C08091B0008F7D8093B0002C
:102BA0000895CF93DF9390E0FC01E458FF4F249108
:102BB000FC01E057FF4F8491882349F190E0880F92
:102BC000991FFC01E854FF4FA591B49182559F4F86
:102BD000FC01C591D4919FB7611108C0F8948C9104
:102BE000209582238C93888182230AC0623051F41D
:102BF000F8948C91322F309583238C938881822B8B
:102C0000888304C0F8948C91822B8C939FBFDF91B2
:102C1000CF9108950F931F93CF93DF931F92CDB75A
:102C2000DEB7282F30E0F901E859FF4F8491F90110
:102C3000E458FF4F1491F901E057FF4F049100232E
:102C4000C9F0882321F069830E94A8156981E02FCB
:102C5000F0E0EE0FFF1FE255FF4FA591B4919FB733
:102C6000F8948C91611103C01095812301C0812BD0
:102C70008C939FBF0F90DF91CF911F910F9108957B
:102C8000CF93DF93282F30E0F901E859FF4F84916B
:102C9000F901E458FF4FD491F901E057FF4FC49177
:102CA000CC2391F081110E94A815EC2FF0E0EE0FDB
:102CB000FF1FEC55FF4FA591B4912C912D2381E07E
:102CC00090E021F480E002C080E090E0DF91CF91BD
:102CD0000895FC01818D228D90E0805C9F4F821BC6
:102CE00091098F7399270895FC01918D828D981712
:102CF00031F0828DE80FF11D858D90E008958FEF02
:102D00009FEF0895FC01918D828D981761F0828D5F
:102D1000DF01A80FB11D5D968C91928D9F5F9F730F
:102D2000928F90E008958FEF9FEF089586E098E1ED
:102D3000892B49F080E090E0892B29F00E94061849
:102D400081110C9400000895FC01848DDF01A80F0F
:102D5000B11DA35ABF4F2C91848D90E001968F73C3
:102D60009927848FA689B7892C93A089B1898C91E2
:102D700080648C93938D848D981306C00288F389A8
:102D8000E02D80818F7D80830895CF93DF93EC01C8
:102D9000888D8823C9F0EA89FB89808185FD05C07B
:102DA000A889B9898C9186FD0FC00FB607FCF5CFB5
:102DB000808185FFF2CFA889B9898C9185FFEDCFFD
:102DC000CE010E94A416E7CFDF91CF910895CF9254
:102DD000DF92FF920F931F93CF93DF931F92CDB794
:102DE000DEB76C0181E0D60158968C9358975B96BC
:102DF0009C915B975C968C915C97981307C050965A
:102E0000ED91FC915197808185FD2EC0F601038DD7
:102E100010E00F5F1F4F0F731127F02EF601848D06
:102E2000F81211C00FB607FCF9CFD6015096ED91FC
:102E3000FC915197808185FFF1CFC60169830E9483
:102E4000A4166981EBCF838DE80FF11DE35AFF4F84
:102E50006083D6015B960C935B975296ED91FC9143
:102E60005397808180620CC0D6015696ED91FC91FB
:102E7000579760835096ED91FC91519780818064C3
:102E8000808381E090E00F90DF91CF911F910F91AF
:102E9000FF90DF90CF900895BF92CF92DF92EF9294
:102EA000FF92CF93DF93EC016A017B01B22EE88998
:102EB000F98982E08083411581EE5807610571052B
:102EC000A1F060E079E08DE390E0A70196010E9417
:102ED000F51B215031094109510956954795379500
:102EE0002795211580E1380798F0E889F989108243
:102EF00060E874E88EE190E0A70196010E94F51B5E
:102F00002150310941095109569547953795279523
:102F1000EC85FD853083EE85FF852083188EEC8956
:102F2000FD89B082EA89FB89808180618083EA899A
:102F3000FB89808188608083EA89FB898081806841
:102F40008083EA89FB8980818F7D8083DF91CF91A7
:102F5000FF90EF90DF90CF90BF9008951F920F9257
:102F60000FB60F9211242F938F939F93EF93FF939C
:102F7000E091B403F091B5038081E091BA03F09140
:102F8000BB0382FD12C090818091BD038F5F8F7360
:102F90002091BE03821751F0E091BD03F0E0EC55A3
:102FA000FC4F958F8093BD0301C08081FF91EF910D
:102FB0009F918F912F910F900FBE0F901F9018959A
:102FC0001F920F920FB60F9211242F933F934F939E
:102FD0005F936F937F938F939F93AF93BF93EF9381
:102FE000FF9384EA93E00E94A416FF91EF91BF91B2
:102FF000AF919F918F917F916F915F914F913F9191
:103000002F910F900FBE0F901F90189584EA93E0B8
:103010000E94691621E0892B09F420E0822F08958F
:103020001092A7031092A60388EE93E0A0E0B0E010
:103030008093A8039093A903A093AA03B093AB0332
:1030400087EC91E09093A5038093A40385EC90E036
:103050009093B1038093B00384EC90E09093B3031A
:103060008093B20380EC90E09093B5038093B40317
:1030700081EC90E09093B7038093B60382EC90E0EC
:103080009093B9038093B80386EC90E09093BB03D0
:103090008093BA031092BD031092BE031092BF0337
:1030A0001092C003089508950E940E150E945318AF
:1030B0000E948E00C6E9D6E10E9462042097E1F3E7
:1030C0000E949616F9CFCF92DF92EF92FF920F9364
:1030D0001F93CF93DF937C016A01EB0100E010E0C6
:1030E0000C151D0571F06991D701ED91FC910190CE
:1030F000F081E02DC7010995892B19F00F5F1F4F53
:10310000EFCFC801DF91CF911F910F91FF90EF900A
:10311000DF90CF9008956115710581F0DB010D906E
:103120000020E9F7AD0141505109461B570BDC0166
:10313000ED91FC910280F381E02D099480E090E014
:1031400008950C948B18DC01ED91FC910190F081B5
:10315000E02D099463ED71E00C948B180F931F938D
:10316000CF93DF93EC010E948B188C01CE010E945B
:10317000AA18800F911FDF91CF911F910F91089591
:103180008F929F92AF92BF92CF92DF92EF92FF9277
:103190000F931F93CF93DF93CDB7DEB7A1970FB6F1
:1031A000F894DEBF0FBECDBF7C01C42EE52FCB014E
:1031B000D22E19A221E02D1510F02AE0D22E8E0178
:1031C0000F5D1F4F8D2C912CA12CB12C6C2D7E2FBF
:1031D000A50194010E94F51B8C2DD29E801911240B
:1031E000015011098A3014F4805D01C0895CF80136
:1031F0008083211531054105510521F0C22EE32FB1
:10320000CA01E4CFB801C7010E948B18A1960FB67E
:10321000F894DEBF0FBECDBFDF91CF911F910F910C
:10322000FF90EF90DF90CF90BF90AF909F908F90E6
:103230000895CF92DF92EF92FF920F931F93CF9357
:10324000DF93EC016A017B012115310579F4E881F6
:10325000F9810190F081E02D642FDF91CF911F91D2
:103260000F91FF90EF90DF90CF9009942A303105B5
:10327000E9F477FF1AC06DE20E94A3188C0144277D
:103280005527BA014C195D096E097F092AE0CE0164
:103290000E94C018800F911FDF91CF911F910F9155
:1032A000FF90EF90DF90CF9008952AE0B701A6013C
:1032B000CE01DF91CF911F910F91FF90EF90DF90A2
:1032C000CF900C94C0189A01AB01662757FD60950A
:1032D000762F0C9419190F931F93CF93DF93EC0162
:1032E0009A01AB01662757FD6095762F0E94191948
:1032F0008C01CE010E94AA18800F911FDF91CF91FF
:103300001F910F9108952115310541F4DC01ED91D4
:10331000FC910190F081E02D642F09940C94C01869
:103320000F931F93CF93DF93EC019A01462F50E048
:1033300060E070E00E9483198C01CE010E94AA18FF
:10334000800F911FDF91CF911F910F9108950F93DF
:103350001F93CF93DF93EC010E9483198C01CE0160
:103360000E94AA18800F911FDF91CF911F910F919A
:10337000089508955058BB27AA270ED075C166D16D
:1033800030F06BD120F031F49F3F11F41EF45BC19B
:103390000EF4E095E7FB51C1E92F77D180F3BA171E
:1033A000620773078407950718F071F49EF58FC1C3
:1033B0000EF4E0950B2EBA2FA02D0B01B901900150
:1033C0000C01CA01A0011124FF27591B99F0593F94
:1033D00050F4503E68F11A16F040A22F232F342FDC
:1033E0004427585FF3CF469537952795A795F0402A
:1033F0005395C9F77EF41F16BA0B620B730B840B3F
:10340000BAF09150A1F0FF0FBB1F661F771F881FF6
:10341000C2F70EC0BA0F621F731F841F48F487954E
:1034200077956795B795F7959E3F08F0B3CF93953D
:10343000880F08F09927EE0F979587950895D9D0B2
:1034400008F481E008950CD00FC107D140F0FED000
:1034500030F021F45F3F19F0F0C0511139C1F3C0D1
:1034600014D198F39923C9F35523B1F3951B550B48
:10347000BB27AA2762177307840738F09F5F5F4F47
:10348000220F331F441FAA1FA9F333D00E2E3AF088
:10349000E0E830D091505040E695001CCAF729D0A2
:1034A000FE2F27D0660F771F881FBB1F26173707F1
:1034B0004807AB07B0E809F0BB0B802DBF01FF2721
:1034C00093585F4F2AF09E3F510568F0B6C000C187
:1034D0005F3FECF3983EDCF3869577956795B7955B
:1034E000F7959F5FC9F7880F911D9695879597F976
:1034F0000895E1E0660F771F881FBB1F62177307EF
:103500008407BA0720F0621B730B840BBA0BEE1F03
:1035100088F7E095089504D06894B111D9C0089552
:10352000BCD088F09F5790F0B92F9927B751A0F0E1
:10353000D1F0660F771F881F991F1AF0BA95C9F747
:1035400012C0B13081F0C3D0B1E00895C0C0672F80
:10355000782F8827B85F39F0B93FCCF386957795F7
:103560006795B395D9F73EF49095809570956195E0
:103570007F4F8F4F9F4F0895E89409C097FB3EF40B
:1035800090958095709561957F4F8F4F9F4F9923B0
:10359000A9F0F92F96E9BB279395F695879577952E
:1035A0006795B795F111F8CFFAF4BB0F11F460FFEE
:1035B0001BC06F5F7F4F8F4F9F4F16C0882311F046
:1035C00096E911C0772321F09EE8872F762F05C05A
:1035D000662371F096E8862F70E060E02AF09A95F5
:1035E000660F771F881FDAF7880F9695879597F9EA
:1035F0000895990F0008550FAA0BE0E8FEEF161684
:103600001706E807F907C0F012161306E407F507D6
:1036100098F0621B730B840B950B39F40A2661F04A
:10362000232B242B252B21F408950A2609F4A140ED
:10363000A6958FEF811D811D089597F99F6780E8FA
:1036400070E060E008959FEF80EC089500240A94F4
:103650001616170618060906089500240A9412166D
:103660001306140605060895092E0394000C11F4A0
:10367000882352F0BB0F40F4BF2B11F460FF04C04D
:103680006F5F7F4F8F4F9F4F089557FD9058440FA6
:10369000551F59F05F3F71F04795880F97FB991FB1
:1036A00061F09F3F79F0879508951216130614066E
:1036B000551FF2CF4695F1DF08C0161617061806FB
:1036C000991FF1CF86957105610508940895E894D6
:1036D000BB2766277727CB0197F908950BD0C4CF76
:1036E000B5DF28F0BADF18F0952309F0A6CFABCFED
:1036F0001124EECFCADFA0F3959FD1F3950F50E0D0
:10370000551F629FF001729FBB27F00DB11D639F93
:10371000AA27F00DB11DAA1F649F6627B00DA11D39
:10372000661F829F2227B00DA11D621F739FB00DDF
:10373000A11D621F839FA00D611D221F749F33274F
:10374000A00D611D231F849F600D211D822F762FE8
:103750006A2F11249F5750408AF0E1F088234AF0E5
:10376000EE0FFF1FBB1F661F771F881F9150504031
:10377000A9F79E3F510570F060CFAACF5F3FECF3F1
:10378000983EDCF3869577956795B795F795E7951D
:103790009F5FC1F7FE2B880F911D9695879597F92E
:1037A0000895DB018F939F930E94171CBF91AF91E7
:1037B000A29F800D911DA39F900DB29F900D11248B
:1037C000089597FB072E16F4009407D077FD09D0D3
:1037D0000E94591C07FC05D03EF4909581959F4F9F
:1037E0000895709561957F4F0895A1E21A2EAA1B46
:1037F000BB1BFD010DC0AA1FBB1FEE1FFF1FA217A1
:10380000B307E407F50720F0A21BB30BE40BF50B9D
:10381000661F771F881F991F1A9469F76095709526
:10382000809590959B01AC01BD01CF0108950E9448
:10383000731CA59F900DB49F900DA49F800D911DAA
:10384000112408950F93083090F0982F872F762F2A
:10385000652F542F432F322F22270850F4CF220FE9
:10386000331F441F551F661F771F881F991F0A9516
:10387000B2F70F91089597FB10F8169400080F9374
:10388000083098F00850232F342F452F562F672FDC
:10389000782F892F902DF4CF05949795879577955C
:1038A000679557954795379527950A95AAF70F91EC
:1038B0000895AA1BBB1B51E107C0AA1FBB1FA61777
:1038C000B70710F0A61BB70B881F991F5A95A9F7C9
:1038D00080959095BC01CD010895EE0FFF1F0590D6
:1038E000F491E02D0994A29FB001B39FC001A39F62
:1038F000700D811D1124911DB29F700D811D112429
:08390000911D0895F894FFCF1A
:10390800070053746172743A20005369676E616CE2
:103918003A204E45433A2000534F4E593A20005220
:1039280043353A20005243363A2000554E4B4E4F0D
:10393800574E3A20005475726E2057686974652096
:103948004F4E005475726E205768697465204F4653
:103958004600666C617368004E657720746872650E
:1039680073686F6C64200053656E74205261772E03
:103978000053656E64696E67200020200053656EF1
:1039880064696E6720524742204F4E006E6577206B
:103998006C7578313A200053656E64696E67205201
:1039A8004742204F4646004C696768743A20002019
:1039B8006C7800000000007C114F1124112C113F7D
:1039C800114E1100000000E716631869168216747C
:1039D80016C5160D0A006E616E00696E66006F7678
:0239E800660077
:00000001FF
