:100000000C9464000C948C000C948C000C948C0068
:100010000C948C000C948C000C948C000C9476073F
:100020000C948C000C948C000C948C000C948C0020
:100030000C948C000C948C000C948C000C948C0010
:100040000C9445140C948C000C9491170C94C317C9
:100050000C948C000C948C000C948C000C948C00F0
:100060000C9418130C948C0000000008000201008E
:100070000003040700000000000000000102040863
:100080001020408001020408102001020408102002
:10009000040404040404040402020202020203032E
:1000A00003030303000000002300260029000000D2
:1000B0000000250028002B0000000000240027007D
:1000C0002A00D4042E12F31711241FBECFEFD8E05C
:1000D000DEBFCDBF11E0A0E0B1E0EEECF8E302C07E
:1000E00005900D92A23FB107D9F724E0A2EFB1E04D
:1000F00001C01D92A135B207E1F710E0C8ECD0E0D5
:1001000004C02297FE010E94521CC23CD107C9F7CD
:100110000E9437180C94651C0C94000026E040E8FF
:1001200055E260E070E084EB93E00E942F1760E0FE
:1001300070E089E00E942C1561E088E00E94B4150F
:1001400060E08DE00E94B41560E08CE00E94B41580
:100150008FE092E00E94550560E18EEF91E00E94F1
:100160003A0560ED77E080E090E00E94BE1462E026
:1001700071E084EB93E00E948418109210020895BD
:100180008EEF91E00C94DF046FEF71E08FE092E06E
:100190000E942206892BC1F18091FF0190910002FB
:1001A0008330910519F46AE071E016C0843091053E
:1001B00019F468E171E010C08130910519F46FE124
:1001C00071E00AC08230910519F465E271E004C063
:1001D000019631F46BE271E084EB93E00E948418A5
:1001E0004091030250910402609105027091060251
:1001F00020E130E084EB93E00E948A198FE092E0E6
:100200000E946C0581E0089580E00895CF93DF930C
:100210008DE00E942316EC018CE00E94231621E061
:10022000219719F0019709F020E0822FDF91CF91FB
:100230000895CF93DF9365E371E084EB93E00E9430
:100240009118C0E0D0E0BE0189E00E942C1562E365
:1002500070E080E090E00E94BE142596C43081E0FA
:10026000D80789F7DF91CF910895CF93DF9363E4A7
:1002700071E084EB93E00E949118CFEFD0E0BE01D3
:1002800089E00E942C156EE170E080E090E00E9411
:10029000BE142597CB3F8FEFD80789F7DF91CF9119
:1002A00008950F931F93CF93DF938C01C0E0D0E0AC
:1002B000C017D107F4F462E571E084EB93E00E948B
:1002C000841860E070E089E00E942C1568EC70E012
:1002D00080E090E00E94BE146FEF70E089E00E9421
:1002E0002C1568EC70E080E090E00E94BE1421962E
:1002F000DFCF60E070E089E00E942C1565EE71E0D0
:1003000084EB93E0DF91CF911F910F910C949118A2
:1003100080910001909101010296909301018093D8
:100320000001109212021092130210921402109205
:10033000150282E090E00E94510168E571E084EBD3
:1003400093E00E94841860910001709101014AE0DD
:1003500050E084EB93E00C944E1980910001909151
:1003600001018330910534F002979093010180934D
:10037000000104C085E090E00E9451011092120239
:1003800010921302109214021092150281E090E074
:100390000E94510168E571E084EB93E00E948418AB
:1003A00060910001709101014AE050E084EB93E01C
:1003B0000C944E19482F282F269530E0C9018851FA
:1003C0009C4F642F70E00E94C41B9B016093FC0152
:1003D000CB019927019663E070E00E94C41B261BA5
:1003E0006650443209F128F44E31D1F04132C1F067
:1003F0001BC04832C9F04833B9F46093FB012C505C
:100400002093FA014AE050E084EB93E00E947319D4
:100410004AE050E06091FA0184EB93E00C94731988
:100420006093FB012A5003C06093FB012B50209383
:10043000FA0108958F929F92AF92BF92CF92DF926E
:10044000EF92FF924091F6015091F7016091F8010F
:100450007091F901480F591F611D711D4093F601FC
:100460005093F7016093F8017093F9010E949B1477
:100470004B015C01C090F601D090F701E090F801CB
:10048000F090F901C61AD70AE80AF90A11F10E9498
:100490009B14681979098A099B096C157D058E05DD
:1004A0009F05B8F461E088E00E94ED158091FB01A2
:1004B000882319F090E00E94E61460E088E00E9432
:1004C000ED158091FA01882311F390E00E94E61463
:1004D000DECFFF90EF90DF90CF90BF90AF909F90D6
:1004E0008F9008958F929F92AF92BF92CF92DF929A
:1004F000EF92FF924091F6015091F7016091F8015F
:100500007091F901480F591F611D711D4093F6014B
:100510005093F7016093F8017093F9010E949B14C6
:100520004B015C01C090F601D090F701E090F8011A
:10053000F090F901C61AD70AE80AF90A59F00E94A0
:100540009B14681979098A099B096C157D058E052C
:100550009F05A8F3FF90EF90DF90CF90BF90AF90F2
:100560009F908F9008958F929F92AF92BF92CF925B
:10057000DF92EF92FF920F93CF934B015C01C22F5A
:10058000802F4150C12CD12C7601C39404C0CC0CD7
:10059000DD1CEE1CFF1C4A95D2F79091FD019013D3
:1005A0000E94DA010E949B146093F6017093F70198
:1005B0008093F8019093F9016093F2017093F30135
:1005C0008093F4019093F50188E293E20E941A026D
:1005D00084E991E10E947202C114D104E104F104A2
:1005E000F1F0D701C60188219921AA21BB21892BCD
:1005F0008A2B8B2B39F080E392E00E941A028AE961
:1006000096E006C080E392E00E941A0280E392E046
:100610000E947202F694E794D794C794DDCF80E3EA
:1006200092E00E941A02CC23F9F08091F20190919D
:10063000F30180529A452091F6013091F701821B17
:10064000930B0E94720288E293E20E941A028AECE3
:1006500098E00E94720280E392E00E941A02C15068
:1006600019F08EEB97E7EDCFCF910F91FF90EF90C0
:10067000DF90CF90BF90AF909F908F900895EF92B2
:10068000FF920F93CF93DF930E94C0000E94C0009F
:100690007C0161E771E084EB93E00E9484184AE0FA
:1006A00050E0B70184EB93E00E9446196AE771E0DD
:1006B00084EB93E00E9484184AE050E060E070E030
:1006C00084EB93E00E944E19C0E0D0E0C7010E9683
:1006D0008C179D0784F16DE771E084EB93E00E9435
:1006E000911806E221E040E26DEF72E08FEF90E0BA
:1006F0000E94B30268EC70E080E090E00E94BE14BB
:100700000E94C000EC018E159F0574F46CE871E046
:1007100084EB93E00E9484184AE050E0BE0184EB31
:1007200093E00E944E197E0168EC70E080E090E05A
:100730000E94BE14CBCFDF91CF910F91FF90EF902D
:10074000089564E170E080E090E00E94BE140E9491
:100750003F030E94190181E0809311020895EF92F6
:10076000FF920F93CF93DF930E94C0007C01EC01B6
:10077000C7010997C817D90784F167E971E084EBCD
:1007800093E00E94911806E221E040E26DEF72E0F2
:100790008FEF90E00E94B30268EC70E080E090E0A0
:1007A0000E94BE140E94C000EC01E816F90674F421
:1007B0006CE871E084EB93E00E9484184AE050E01A
:1007C000BE0184EB93E00E944E197E0168EC70E05C
:1007D00080E090E00E94BE14CBCF60E177E280E041
:1007E00090E0DF91CF910F91FF90EF900C94BE14A9
:1007F0008091030290910402A0910502B09106023B
:100800008D3722E892072FEFA207B105D1F467EAEE
:1008100071E084EB93E00E9491188091100291E0C6
:10082000892780931002882349F00E9435010E9495
:10083000AF031092110282E090E02AC084E090E0C1
:1008400027C020911002222329F18F3A20E5920738
:100850002FEFA207B105C9F08F3820E792072FEFDD
:10086000A207B10579F08F3E9041AF4FB105A9F4D1
:1008700060E070E089E00E942C150E94AF030E94A6
:10088000C00006C00E94880105C00E94AD0102C0E0
:100890000E94510180E090E0089581E090E0089589
:1008A000CF92DF92EF92FF92CF93DF930E948F144B
:1008B0006B017C010E940601882309F440C06DEAA7
:1008C00071E084EB93E00E94841880911002811102
:1008D0002CC0C0921202D0921302E0921402F09245
:1008E00015020E94C000EC0167EB71E084EB93E01D
:1008F0000E9484184AE050E0BE0184EB93E00E941D
:1009000046196FEB71E084EB93E00E94911880919F
:100910001102811114C08091000190910101C8174A
:10092000D9076CF40E94A1030AC082E090E00E9403
:10093000510160ED77E080E090E00E94BE140E94DB
:10094000C40081110E94F803809112029091130259
:10095000A0911402B0911502C81AD90AEA0AFB0A3A
:1009600089ECC8168FEAD806E104F104B0F0809152
:100970001102882391F063EA71E084EB93E00E9416
:1009800091180E9435016CE474E080E090E00E94D0
:10099000BE140E94AF0310921102DF91CF91FF901D
:1009A000EF90DF90CF90089563E070E08FE092E0E9
:1009B0000E9450058EEF91E00C94DE040895CF93D1
:1009C000DF9363E270E08BEE92E00E94B21142E0AE
:1009D00050E063E270E08BEE92E00E9428128BEE12
:1009E00092E00E940F11D82F80E0C82F8BEE92E08A
:1009F0000E940F11C82BD92B8BEE92E00E942B1274
:100A0000BE0180E090E00E949F1A2AE939E949E995
:100A10005FE30E94061A0E94731ACB01DF91CF9107
:100A20000895CF93C62F63E270E08BEE92E00E94B0
:100A3000B2116C2F8BEE92E00E945F118BEE92E070
:100A4000CF910C942B12633161F028F420EF260F24
:100A5000223078F406C0603260F0623210F0633207
:100A600041F40E9411058FE39CE90197F1F700C062
:100A7000000008950F931F93CF93DF931F92CDB77C
:100A8000DEB78C018BEE92E069830E949E11698132
:100A9000C8010F90DF91CF911F910F910C94230506
:100AA00060931702109219020895F89482E08093DF
:100AB000B0008093B10094E69093B3001092B2001E
:100AC0008093700078948093160210921A0280919D
:100AD000170260E00C94B41582E080931602109225
:100AE0001A0208958F929F92AF92BF92CF92DF9297
:100AF000EF92FF927B01BA0180E090E00E949F1A82
:100B00004B015C01B70180E090E00E949F1A6B01ED
:100B10007C012DEC3CEC4CE45FE30E94511B9B01FB
:100B2000AC01C501B4010E94021A87FD17C02DEC6B
:100B30003CEC4CE45FE3C501B4010E94511B9B01F6
:100B4000AC01C701B6010E94021A992787FD909552
:100B50008827990F881F9927019602C080E090E0AE
:100B6000FF90EF90DF90CF90BF90AF909F908F90CD
:100B700008958F929F92AF92BF92CF92DF92EF92A1
:100B8000FF920F931F93CF93DF936C01EB01EC84E3
:100B9000FD8486E0E816F1040CF444C0EE0CFF1C62
:100BA00006E010E045EC842E4DE9942E4CE1A42E95
:100BB00041E8B42E8A859B85FC01E00FF11F40813E
:100BC0005181F8013497E80FF91F60817181C601E6
:100BD0000E947205FC01A501940163E971E080E0C7
:100BE00091E00E94B41B4F01AA2497FCA094BA2C58
:100BF00086269726A826B9260E5F1F4F0E151F05BD
:100C0000C9F68C829D82AE82BF8280E290E0998795
:100C100088878FEF9FEF9983888361E070E080E0A1
:100C200090E003C060E070E0CB01DF91CF911F91B5
:100C30000F91FF90EF90DF90CF90BF90AF909F907B
:100C40008F9008950F931F93CF93DF938C01EB0147
:100C50008DE192E09B878A8780911A0290E09D87C0
:100C60008C878091E70290E09F878E8780911602A3
:100C7000853009F05EC0C8010E94110B882319F06D
:100C800081E090E058C0BE01C8010E94CA0F8111E6
:100C9000F7CFBE01C8010E94260F8111F1CFBE011E
:100CA000C8010E94820A8111EBCFBE01C8010E94D7
:100CB000E80C8111E5CFBE01C8010E948F0D8111A2
:100CC000DFCFBE01C8010E94B00B8111D9CFBE0198
:100CD000C8010E94F5098111D3CFBE01C8010E944D
:100CE0003C098111CDCFBE01C8010E94870E811140
:100CF000C7CFBE01C8010E9465108111C1CFBE01DE
:100D0000C8010E9430088111BBCFBE01C8010E94FA
:100D1000C1088111B5CFBE01C8010E94B905672B7A
:100D2000682B692B09F0ACCF82E0809316021092F9
:100D30001A0280E090E0DF91CF911F910F9108950A
:100D4000CF92DF92EF92FF92CF93DF93EC0188274F
:100D500077FD8095982F0E94A11A6B017C0120E0FD
:100D600030E040E45FE30E94511B20E030E048E4C3
:100D700052E40E94061A0E946E1AC617D707ECF0BA
:100D800020E030E040EA5FE3C701B6010E94511B5A
:100D900020E030E048E452E40E94061A20E030E00F
:100DA00040E85FE30E949E190E946E1A21E06C17D2
:100DB0007D070CF420E0822F01C080E090E0DF91FD
:100DC000CF91FF90EF90DF90CF900895CF92DF9278
:100DD000EF92FF92CF93DF93EC016C597F4F8827FE
:100DE00077FD8095982F0E94A11A6B017C0120E06D
:100DF00030E040E45FE30E94511B20E030E048E433
:100E000052E40E94061A0E946E1AC617D707ECF029
:100E100020E030E040EA5FE3C701B6010E94511BC9
:100E200020E030E048E452E40E94061A20E030E07E
:100E300040E85FE30E949E190E946E1A21E06C1741
:100E40007D070CF420E0822F01C080E090E0DF916C
:100E5000CF91FF90EF90DF90CF900895CF92DF92E7
:100E6000EF92FF92CF93DF93EC01645671098827CC
:100E700077FD8095982F0E94A11A6B017C0120E0DC
:100E800030E040E45FE30E94511B20E030E048E4A2
:100E900052E40E94061A0E946E1AC617D707ECF099
:100EA00020E030E040EA5FE3C701B6010E94511B39
:100EB00020E030E048E452E40E94061A20E030E0EE
:100EC00040E85FE30E949E190E946E1A21E06C17B1
:100ED0007D070CF420E0822F01C080E090E0DF91DC
:100EE000CF91FF90EF90DF90CF9008951F920F92D7
:100EF0000FB60F9211242F933F934F935F936F93ED
:100F00007F938F939F93AF93BF93EF93FF938091C2
:100F100017020E94231620911B0230911C022F5FA2
:100F20003F4F30931C0220931B0290911A0295367A
:100F300018F096E090931602909116029430C9F141
:100F400028F4923069F09330D1F05EC0953009F406
:100F500051C0963009F058C091E09093E70251C01B
:100F6000811152C020911B0230911C0224363105A0
:100F700008F442C01092E70210921A021CC081309D
:100F800009F042C0E0911A0291E09E0F90931A027C
:100F9000F0E020911B0230911C02EE0FFF1FEA5E71
:100FA000FD4F3087278310921C0210921B0294E0A1
:100FB00029C0811117C0E0911A0291E09E0F909311
:100FC0001A02F0E020911B0230911C02EE0FFF1F6D
:100FD000EA5EFD4F3087278310921C0210921B029D
:100FE00093E010C020911B0230911C022536310580
:100FF00058F007C0811108C010921C0210921B0209
:1010000003C095E090931602909119029923B9F0CC
:1010100081110AC080911802882321F08091180262
:1010200061E009C02D9A0BC080911802882331F02D
:101030008091180260E00E94ED1501C02D98FF918B
:10104000EF91BF91AF919F918F917F916F915F9140
:101050004F913F912F910F900FBE0F901F901895B9
:10106000AF92BF92CF92DF92EF92FF920F931F93B6
:10107000CF93DF93EB0180911A02883510F480E062
:1010800075C0EA85FB858281938160E672E20E94E9
:10109000E606892BA1F3EA85FB858481958164E9C5
:1010A00071E10E942E07892B51F3BEE1CB2ED12C8A
:1010B0001DE1E12EF12C00E010E080911A0290E099
:1010C0000497E816F906C4F5EA85FB85C701880F81
:1010D000991FE80FF91F8081918164EF71E00E94F0
:1010E000E606892B61F25601AA0CBB1CEA85FB853A
:1010F000EA0DFB1D8081918168E572E00E942E0758
:10110000892B21F0000F111F01600EC0EA85FB85BD
:10111000EA0DFB1D8081918164EA76E00E942E0732
:10112000892B49F0000F111F82E0E80EF11C82E0CC
:10113000C80ED11CC2CF760181E0E81AF108F594FF
:10114000E794F986E8868AE2E816F1040CF497CF72
:10115000C801AA2797FDA095BA2F8C839D83AE83E3
:10116000BF8389E090E09983888381E0DF91CF910C
:101170001F910F91FF90EF90DF90CF90BF90AF90B5
:101180000895AF92BF92CF92DF92EF92FF920F93AA
:101190001F93CF93DF93EB0180911A02803211F0FD
:1011A00080E05FC0EA85FB85828193816CE271E01B
:1011B0000E94E606892BA1F3EA85FB85848195814F
:1011C0006EEE72E00E942E07892B51F306E010E0CC
:1011D000C12CD12C7601EA85FB85E00FF11F8081BF
:1011E00091816CE271E00E94E606892BC9F25801F8
:1011F00082E0A80EB11CEA85FB85EA0DFB1D80810B
:10120000918168E077E00E942E07892B39F0CC0CA1
:10121000DD1CEE1CFF1C6894C0F811C0EA85FB853C
:10122000EA0DFB1D808191816EEE72E00E942E0717
:10123000892B09F4B5CFCC0CDD1CEE1CFF1C0C5F18
:101240001F4F0E33110539F68EE090E0998788879D
:10125000CC82DD82EE82FF828FE090E099838883EA
:1012600081E0DF91CF911F910F91FF90EF90DF9080
:10127000CF90BF90AF900895AF92BF92CF92DF9280
:10128000EF92FF920F931F93CF93DF93EB01809127
:101290001A02823261F5EA85FB858281938168E5D5
:1012A00072E00E94E606892B11F180911A0290E00B
:1012B00081509048880F991FEA85FB85E80FF91F38
:1012C0008081918168E572E00E94E606892B79F0C1
:1012D000198618868FEF9FEFDC018C839D83AE8388
:1012E000BF8386E090E09983888381E073C0EA85BC
:1012F000FB858281938160E47FE10E94E606892B71
:1013000021F080911A02813210F480E063C0EA85F6
:10131000FB858481958160EA7FE00E942E07892BFE
:10132000A1F358E0A52EB12C03E010E0C12CD12C84
:101330007601EA85FB85C801880F991FE80FF91F20
:101340008081918168E572E00E94E606892BE9F2CE
:10135000EA85FB85EA0DFB1D8081918160E476E0E2
:101360000E942E07892B39F0CC0CDD1CEE1CFF1CD3
:101370006894C0F811C0EA85FB85EA0DFB1D8081E9
:10138000918166E272E00E942E07892B09F4BDCF9D
:10139000CC0CDD1CEE1CFF1C0E5F1F4F84E0A80E62
:1013A000B11C0332110529F6EA85FB85EA5BFF4F84
:1013B0008081918168E572E00E94E606892B09F43C
:1013C000A4CF80E190E099878887CC82DD82EE828D
:1013D000FF8287CFDF91CF911F910F91FF90EF9008
:1013E000DF90CF90BF90AF900895AF92BF92CF9211
:1013F000DF92EF92FF920F931F93CF93DF93EB0156
:1014000080911A02893310F480E071C0EA85FB856F
:101410008281938160E47FE10E94E606892BA1F33B
:10142000EA85FB858481958160EA7FE00E942E0732
:10143000892B51F338E0A32EB12C03E010E0C12C2E
:10144000D12C7601EA85FB85C801880F991FE80F2A
:10145000F91F8081918168E572E00E94E606892B80
:1014600099F2EA85FB85EA0DFB1D8081918160E49C
:1014700076E00E942E07892B39F0CC0CDD1CEE1C87
:10148000FF1C6894C0F811C0EA85FB85EA0DFB1DBE
:101490008081918166E272E00E942E07892B09F417
:1014A000B3CFCC0CDD1CEE1CFF1C0E5F1F4F84E085
:1014B000A80EB11C0B33110529F6EA85FB85EA5805
:1014C000FF4F8081918168E572E00E94E606892BDA
:1014D00009F49ACF8CE190E099878887CC82DD82ED
:1014E000EE82FF828AE090E09983888381E0DF9139
:1014F000CF911F910F91FF90EF90DF90CF90BF9011
:10150000AF9008956F927F928F929F92AF92BF9209
:10151000CF92DF92EF92FF920F931F93CF93DF93BF
:10152000EB0180911A02823208F461C0EA85FB85E2
:10153000828193816EE571E00E94E606892B09F4B1
:1015400056C063E0A62EB12C02E010E0C12CD12CD5
:101550007601350180911A0290E0A816B906E4F5EB
:101560004801880C991CEA85FB85E80DF91D8081EE
:1015700091816EE977E00E94E606892B39F0CC0C68
:10158000DD1CEE1CFF1C6894C0F810C0EA85FB85CA
:10159000E80DF91D808191816EEE72E00E94E606F1
:1015A000892B29F1CC0CDD1CEE1CFF1CC501880F1A
:1015B000991FEA85FB85E80FF91F808191816EE50F
:1015C00071E00E942E0722E0A20EB11C892B19F0B7
:1015D0000E5F1F4FBECF830101501109159507956E
:1015E000198708870031110524F41986188680E0D0
:1015F00009C0CC82DD82EE82FF828CE090E099838C
:10160000888381E0DF91CF911F910F91FF90EF9040
:10161000DF90CF90BF90AF909F908F907F906F9012
:101620000895AF92BF92CF92DF92EF92FF920F9305
:101630001F93CF93DF93EB01EA85FB858281938132
:1016400068E273E20E94E606892B11F480E07DC017
:1016500080911A02843019F5EA85FB858481958191
:101660006AEC78E00E942E07892BC9F0EA85FB8599
:101670008681978160E372E00E94E606892B79F00B
:10168000198618868FEF9FEFDC018C839D83AE83D4
:10169000BF8383E090E09983888381E056C0809186
:1016A0001A02843498F2EA85FB858481958164E985
:1016B00071E10E942E07892B49F206E010E0C12C4F
:1016C000D12C7601EA85FB85E00FF11F80819181A5
:1016D00060E372E00E94E606892B09F4B7CF580157
:1016E00082E0A80EB11CEA85FB85EA0DFB1D808116
:1016F00091816AE976E00E942E07892B39F0CC0CA3
:10170000DD1CEE1CFF1C6894C0F811C0EA85FB8547
:10171000EA0DFB1D8081918160E372E00E942E073B
:10172000892B09F493CFCC0CDD1CEE1CFF1C0C5F45
:101730001F4F0638110531F680E290E099878887BF
:10174000CC82DD82EE82FF82A4CFDF91CF911F9108
:101750000F91FF90EF90DF90CF90BF90AF900895E2
:101760008F929F92AF92BF92CF92DF92EF92FF92B1
:101770000F931F93CF93DF9300D000D0CDB7DEB788
:101780004B01DB011A96ED91FC911B9782819381AD
:101790006EEA7DE00E94E606892B11F480E093C09A
:1017A000D4011A96ED91FC911B978481958166ED89
:1017B00076E00E94E606892B89F3E6E0EE2EF12C16
:1017C00020E030E040E050E0A12CB12CC12CD12C25
:1017D000D4011A96ED91FC911B97EE0DFF1D8081AF
:1017E000918166EF71E029833A834B835C830E9489
:1017F000E606892B99F287010E5F1F4FD4011A96D6
:10180000ED91FC911B97E00FF11F808191816CEDB0
:1018100074E00E942E0729813A814B815C81892BDB
:1018200039F0B501C60101E00E94051C21601DC010
:10183000D4011A96ED91FC911B97E00FF11F808166
:10184000918160E971E029833A834B835C830E9434
:101850002E0729813A814B815C81892B09F49ECF27
:10186000B501C60101E00E94051C5B016C01B4E0FA
:10187000EB0EF11CE6ECEE16F10409F0A9CFD40151
:1018800014962C93149715963C93159716964C9393
:10189000169717965C931797B501C60100E20E9450
:1018A000201C12962C93129713963C93139785E065
:1018B00090E011969C938E9380E390E019969C9310
:1018C0008E93189781E00F900F900F900F90DF91FB
:1018D000CF911F910F91FF90EF90DF90CF90BF902D
:1018E000AF909F908F9008958F929F92AF92BF92EA
:1018F000CF92DF92EF92FF920F931F93CF93DF93DC
:101900007A016901DA01CD91DC91FB01848595852D
:10191000C817D9070CF04AC0CE01880F991F02845E
:10192000F385E02DE80FF91FA080B180C170DD279D
:10193000F1E0CF27209719F484E690E002C08CE90B
:101940009FEF4801880E991EB401C5010E94A006B0
:10195000892B99F4800E911EB401C5010E94A00646
:10196000892B71F4B401600F711FC5010E94A0069C
:10197000892BF9F023E030E005C021E030E002C01F
:1019800022E030E0D6018D919C911197019682174B
:10199000930744F0F60111821082D7018D919C913A
:1019A000119701968D939C93CE0105C081E090E044
:1019B00002C08FEF9FEFDF91CF911F910F91FF90AA
:1019C000EF90DF90CF90BF90AF909F908F90089551
:1019D0004F925F926F927F928F929F92AF92BF923F
:1019E000CF92DF92EF92FF920F931F93CF93DF93EB
:1019F00000D000D0CDB7DEB76C017B011C821B820A
:101A000081E090E09A83898380911A028D3010F4EE
:101A100080E070C009E713E09E012D5F3F4FAE01EB
:101A20004F5F5F4FC6010E94740C892B89F79E019E
:101A30002D5F3F4FAE014F5F5F4FB701C6010E9460
:101A4000740C019729F79E012D5F3F4FAE014F5F48
:101A50005F4FB701C6010E94740C892BC9F6412C57
:101A6000512C3201A12CB12C80911A0290E02981D5
:101A70003A81281739079CF509E713E09E012D5F8D
:101A80003F4FAE014F5F5F4FB701C6010E94740C1C
:101A90004C019E012D5F3F4FAE014F5F5F4FB7017D
:101AA000C6010E94740C21E08216910451F4892B26
:101AB00009F0AECF440C551C661C771C689440F8A6
:101AC0000AC0892809F0A4CF019709F0A1CF440CDE
:101AD000551C661C771C8FEFA81AB80AC5CFF701F2
:101AE000B186A086448255826682778281E090E04A
:101AF000918380830F900F900F900F90DF91CF9183
:101B00001F910F91FF90EF90DF90CF90BF90AF901B
:101B10009F908F907F906F905F904F9008952F923D
:101B20003F924F925F926F927F928F929F92AF926D
:101B3000BF92CF92DF92EF92FF920F931F93CF93BA
:101B4000DF9300D000D0CDB7DEB76C017B011C82E3
:101B50001B82DB011C968D919C911D97181619060E
:101B600014F080E0BDC0DB011A96ED91FC911B974B
:101B700082E090E09A838983828193816AE67AE0A9
:101B80000E94E606892B69F3D7011A96ED91FC9124
:101B90001B9789819A819C012F5F3F4F3A8329834C
:101BA000880F991FE80FF91F8081918169E773E021
:101BB0000E942E07892BA9F20CEB11E09E012D5FEC
:101BC0003F4FAE014F5F5F4FB701C6010E94740CDB
:101BD000892B39F69E012D5F3F4FAE014F5F5F4F5E
:101BE000B701C6010E94740C019709F0BACF212CED
:101BF000312C2101A12CB12C29813A81F701848556
:101C00009585281739070CF060C00CEB11E09E0198
:101C10002D5F3F4FAE014F5F5F4FB701C6010E947E
:101C2000740C3C01B3E0AB16B10491F00CEB11E085
:101C30009E012D5F3F4FAE014F5F5F4FB701C60161
:101C40000E94740C4C01E3E0AE16B10409F510C01B
:101C50000CEB11E09E012D5F3F4FAE014F5F5F4FD8
:101C6000B701C6010E94740C68167906F9F279CFA3
:101C70000CEB11E09E012D5F3F4FAE014F5F5F4FB8
:101C8000B701C6010E94740C8816990609F069CF45
:101C90006114710459F48A94892809F062CF220CE6
:101CA000331C441C551C689420F80BC06A946728A8
:101CB00009F057CF892809F054CF220C331C441C5B
:101CC000551CAFEFAA1ABA0A97CFB186A086248214
:101CD00035824682578282E090E09183808381E062
:101CE0000F900F900F900F90DF91CF911F910F9158
:101CF000FF90EF90DF90CF90BF90AF909F908F902C
:101D00007F906F905F904F903F902F900895AF928B
:101D1000BF92CF92DF92EF92FF920F931F93CF93D8
:101D2000DF93EB01EA85FB858281938168E873E1AB
:101D30000E94E606892B11F480E07DC080911A0292
:101D4000843019F5EA85FB85848195816AEC78E019
:101D50000E942E07892BC9F0EA85FB858681978131
:101D600060E372E00E94E606892B79F019861886F6
:101D70008FEF9FEFDC018C839D83AE83BF8387E071
:101D800090E09983888381E056C080911A02843460
:101D900098F2EA85FB858481958168E873E10E9469
:101DA0002E07892B49F206E010E0C12CD12C7601D8
:101DB000EA85FB85E00FF11F8081918160E372E08D
:101DC0000E94E606892B09F4B7CF580182E0A80EDD
:101DD000B11CEA85FB85EA0DFB1D8081918160E4E1
:101DE00076E00E942E07892B39F0CC0CDD1CEE1C0E
:101DF000FF1C6894C0F811C0EA85FB85EA0DFB1D45
:101E00008081918160E372E00E942E07892B09F4A2
:101E100093CFCC0CDD1CEE1CFF1C0C5F1F4F063853
:101E2000110531F680E290E099878887CC82DD82C7
:101E3000EE82FF82A4CFDF91CF911F910F91FF908F
:101E4000EF90DF90CF90BF90AF9008958F929F92C8
:101E5000AF92BF92CF92DF92EF92FF920F931F93B8
:101E6000CF93DF93EB0180911A028A3108F47AC094
:101E7000EA85FB85808191818032934050F41986F8
:101E800018868FEF9FEFDC018C839D83AE83BF8329
:101E90006FC0828193816CEA7DE00E94E606892B07
:101EA00009F460C0EA85FB85848195816CEA7DE058
:101EB0000E94E606892B09F455C054E0A52EB12CEA
:101EC00003E010E0C12CD12C760180911A0290E041
:101ED000A816B906E4F5EA85FB85C801880F991FA5
:101EE000E80FF91F8081918166EB73E00E942E0755
:101EF000892B61F14501880C991CEA85FB85E80D69
:101F0000F91D8081918160E679E00E94E606892BC7
:101F100039F0CC0CDD1CEE1CFF1C6894C0F810C01E
:101F2000EA85FB85E80DF91D808191816CEB72E0FB
:101F30000E94E606892BB1F0CC0CDD1CEE1CFF1CC8
:101F40000E5F1F4F82E0A80EB11CBFCF850101506C
:101F5000110915950795198708870C30110524F488
:101F60001986188680E009C0CC82DD82EE82FF826D
:101F70008BE090E09983888381E0DF91CF911F917E
:101F80000F91FF90EF90DF90CF90BF90AF909F9018
:101F90008F9008958F929F92AF92BF92CF92DF92CF
:101FA000EF92FF920F931F93CF93DF93EB018091FA
:101FB0001A028A3108F471C0EA85FB85808191811B
:101FC000843F914060F4198618868FEF9FEFDC0103
:101FD0008C839D83AE83BF838BE090E066C082815B
:101FE000938160E679E00E94E606892B09F455C0EA
:101FF00073E0A72EB12C02E010E0C12CD12C7601A9
:1020000080911A0290E0A816B906E4F5EA85FB85EE
:10201000C801880F991FE80FF91F8081918168E539
:1020200072E00E942E07892B61F14501880C991CF2
:10203000EA85FB85E80DF91D8081918160EB74E0F4
:102040000E94E606892B39F0CC0CDD1CEE1CFF1C2F
:102050006894C0F810C0EA85FB85E80DF91D808101
:10206000918168E572E00E94E606892BB1F0CC0C04
:10207000DD1CEE1CFF1C0E5F1F4F82E0A80EB11C82
:10208000BFCF85010150110915950795198708875C
:102090000C30110524F41986188680E009C0CC8222
:1020A000DD82EE82FF8284E090E09983888381E084
:1020B000DF91CF911F910F91FF90EF90DF90CF9024
:1020C000BF90AF909F908F900895AF92BF92CF92A4
:1020D000DF92EF92FF920F931F93CF93DF93EB0169
:1020E00080911A02863410F480E086C0EA85FB8570
:1020F000828193816EEE72E00E94E606892BA1F345
:10210000EA85FB85848195816EEE72E00E942E0740
:10211000892B51F3EA85FB858681978162E27BE01A
:102120000E94E606892B01F3EA85FB85808591856F
:1021300062E27BE00E942E07892BB1F25CE0A52EC3
:10214000B12C05E010E0C12CD12C7601EA85FB858D
:10215000C801880F991FE80FF91F808191816EEEE9
:1021600072E00E94E606892B09F4BECFEA85FB8562
:10217000EA0DFB1D8081918166E678E00E942E07C2
:10218000892B39F0CC0CDD1CEE1CFF1C6894C0F8C8
:1021900011C0EA85FB85EA0DFB1D808191816EEE01
:1021A00072E00E942E07892B09F49ECFCC0CDD1C17
:1021B000EE1CFF1C0E5F1F4F84E0A80EB11C0534FF
:1021C000110521F6EA85FB85E657FF4F8081918155
:1021D0006EEE72E00E94E606892B09F485CF80E25C
:1021E00090E099878887CC82DD82EE82FF8288E04A
:1021F00090E09983888381E0DF91CF911F910F91C7
:10220000FF90EF90DF90CF90BF90AF9008958091B6
:102210001B0390E020911C03821B910908952091DB
:102220001C0380911B03281750F4E22FF0E0E35EBB
:10223000FC4F808190E02F5F20931C0308958FEF67
:102240009FEF0895E0911C0380911B03E81730F481
:10225000F0E0E35EFC4F808190E008958FEF9FEF08
:1022600008950895CF92DF92EF92FF920F931F93FC
:10227000CF93DF937C01CB018A012091F7022223C7
:1022800089F0EB016B01C40ED51ECC15DD0569F09C
:102290006991D701ED91FC910190F081E02DC7018A
:1022A0000995F3CF642F0E94EF12C801DF91CF91FF
:1022B0001F910F91FF90EF90DF90CF900895CF93F3
:1022C000DF931F92CDB7DEB769832091F7022223F7
:1022D000D1F02091F802203240F021E030E0FC0102
:1022E0003383228380E090E015C08091F902E82FCB
:1022F000F0E0E650FD4F998190838F5F8093F90263
:102300008093F80205C061E0CE0101960E94EF12B1
:1023100081E090E00F90DF91CF910895FC0113824E
:10232000128248EE53E060E070E044835583668398
:10233000778387EC91E091838083089510921C034A
:1023400010921B031092F9021092F8020C943212B0
:1023500081E08093F70260931A031092F9021092C1
:10236000F80208950C94A8110F93062F21E04091D4
:10237000F8026AEF72E080911A030E94981210929C
:10238000F9021092F8021092F7020F9108958F92BD
:102390009F92AF92BF92CF92DF92EF92FF920F93F4
:1023A0001F93CF93DF93EC01F62ED42E48015901F1
:1023B000EE2019F10E94A8111E2D143008F013E030
:1023C0001150B8F0E881F98128E0129FB001112482
:1023D000A501940104C056954795379527956A95B0
:1023E000D2F7CA01B9010190F081E02DCE01099523
:1023F000E7CF60E0CE010E94B4114D2D413208F0CC
:1024000040E22C2D6DE173E08F2D0E94501210924E
:102410001C0380931B03DF91CF911F910F91FF90BD
:10242000EF90DF90CF90BF90AF909F908F900895E6
:10243000CF92EF920F931F93C22EE12C00E010E099
:1024400098010E94C7111F910F91EF90CF900895AE
:1024500021E00C94181261E00C94B4118BEE92E020
:102460000C948E111092AA0381E08093A80310921D
:10247000A70361E082E10E94ED1561E083E10E9423
:10248000ED15E9EBF0E080818E7F808380818D7F88
:10249000808388E48093B80085E48093BC0008952D
:1024A000413208F043C09091AA039111FCCF91E012
:1024B0009093AA032093A8032FEF20933D0310923B
:1024C0008203240F209381039093A9039091A90381
:1024D000880F892B8093A9038091A703813061F431
:1024E0001092A7038091A9038093BB008091BC0048
:1024F00083FDF8CF85EC01C085EE8093BC00809110
:10250000AA038130E1F380918203841710F4409193
:10251000820323E833E0FB01D9018A2F821B841751
:1025200018F48D918193F9CF842F089580E0089558
:102530000F93413208F04AC09091AA039111FCCF49
:1025400092E09093AA030093A8039FEF90933D031A
:102550001092820340938103FB0163E873E0DB0187
:102560009A2F961B941718F491919D93F9CF10927E
:10257000A9039091A903880F892B8093A9038091C7
:10258000A703813061F41092A7038091A90380937F
:10259000BB008091BC0083FDF8CF85EC01C085EEC7
:1025A0008093BC00222321F08091AA038230E1F3C2
:1025B00080913D038F3F61F080913D03803251F067
:1025C00080913D03803341F483E007C081E005C082
:1025D00080E003C082E001C084E00F910895613281
:1025E00098F42091AA03243089F460935F03FC01DE
:1025F00081E693E0DC012A2F281B261718F421918D
:102600002D93F9CF80E0089581E0089582E0089548
:1026100085ED8093BC008091BC0084FDFCCF1092BE
:10262000AA03089585EC8093BC001092AA03089534
:102630001F920F920FB60F9211242F933F934F9337
:102640005F936F937F938F939F93AF93BF93EF931A
:10265000FF938091B900887F803609F49EC078F599
:10266000883209F45DC090F4803109F456C038F422
:10267000882309F4F5C0883009F44FC0F5C08831CB
:1026800009F44EC0803209F45FC0EEC0803409F412
:102690006AC058F4803309F457C0883309F0E4C0A5
:1026A00080933D030E941213DFC0803509F44FC0B0
:1026B000883509F45DC0883409F0D6C0D3C08839A4
:1026C00009F4C4C0A8F4883709F467C038F4883620
:1026D00009F463C0803709F460C0C6C0883809F4C3
:1026E000B5C0803909F45FC0803809F0BDC05BC057
:1026F000803B09F483C038F4803A09F466C0883A14
:1027000009F47CC0B1C0803C09F4A4C0883C09F441
:10271000A1C0883B09F487C0A7C08091A90310C05D
:102720009091820380918103981770F5E091820364
:1027300081E08E0F80938203F0E0ED57FC4F8081A3
:102740008093BB0085EC83C080933D038BC0E091F8
:10275000820381E08E0F809382038091BB00F0E0C2
:10276000ED57FC4F808390918203809181036BC071
:10277000E091820381E08E0F809382038091BB0001
:10278000F0E0ED57FC4F80838091A80381116AC06F
:1027900081E08093A70384EA5EC083E08093AA036C
:1027A00010923E03CFCF80913E03803208F04EC09E
:1027B000E0913E0381E08E0F80933E038091BB0049
:1027C000F0E0E15CFC4F8083BDCF0E94121380914A
:1027D0003E03803230F4E0913E03F0E0E15CFC4FD8
:1027E000108260913E0370E0E091A303F091A40396
:1027F0008FE393E0099510923E0336C084E0809306
:10280000AA031092600310925F03E091A503F09178
:10281000A603099580915F03811105C081E0809333
:102820005F0310926103E091600381E08E0F80935B
:102830006003F0E0EF59FC4F80818093BB009091E2
:10284000600380915F03981708F47CCF85E880933C
:10285000BC000AC085EC8093BC001092AA0304C09F
:1028600010923D030E940813FF91EF91BF91AF9129
:102870009F918F917F916F915F914F913F912F9198
:102880000F900FBE0F901F9018951F920F920FB6CA
:102890000F9211242F933F938F939F93AF93BF93E6
:1028A0008091AC039091AD03A091AE03B091AF03C2
:1028B0003091AB0323E0230F2D3720F40196A11DA7
:1028C000B11D05C026E8230F0296A11DB11D20935E
:1028D000AB038093AC039093AD03A093AE03B0938E
:1028E000AF038091B0039091B103A091B203B09176
:1028F000B3030196A11DB11D8093B0039093B10362
:10290000A093B203B093B303BF91AF919F918F9106
:102910003F912F910F900FBE0F901F9018952FB7DA
:10292000F8946091AC037091AD038091AE039091E7
:10293000AF032FBF08953FB7F8948091B0039091F3
:10294000B103A091B203B091B30326B5A89B05C013
:102950002F3F19F00196A11DB11D3FBF6627782FAB
:10296000892F9A2F620F711D811D911D42E0660F04
:10297000771F881F991F4A95D1F70895CF92DF924C
:10298000EF92FF92CF93DF936B017C010E949B1427
:10299000EB01C114D104E104F10489F00E949C19F7
:1029A0000E949B146C1B7D0B683E734090F381E08A
:1029B000C81AD108E108F108C851DC4FEACFDF910D
:1029C000CF91FF90EF90DF90CF90089582309105E6
:1029D00038F0880F991F880F991F05970197F1F715
:1029E0000895789484B5826084BD84B5816084BD87
:1029F00085B5826085BD85B5816085BDEEE6F0E078
:102A0000808181608083E1E8F0E0108280818260D3
:102A10008083808181608083E0E8F0E08081816054
:102A20008083E1EBF0E0808184608083E0EBF0E084
:102A3000808181608083EAE7F0E080818460808328
:102A400080818260808380818160808380818068D2
:102A500080831092C10008951F93CF93DF93182FA6
:102A6000EB0161E00E94B415209711F460E004C00E
:102A7000CF3FD10539F461E0812FDF91CF911F91D4
:102A80000C94ED15E12FF0E0E859FF4FE491E330AD
:102A9000F9F048F4E130B9F0E230A1F584B5806294
:102AA00084BDC8BD34C0E730E9F0E83019F1E43046
:102AB00049F580918000806280938000D0938B00E4
:102AC000C0938A0024C084B5806884BDC7BD1FC080
:102AD00080918000806880938000D0938900C093AB
:102AE000880015C08091B00080688093B000C093CA
:102AF000B3000DC08091B00080628093B000C0939D
:102B0000B40005C0C038D1050CF0B5CFAFCFDF9110
:102B1000CF911F910895833081F028F4813099F08E
:102B20008230A1F008958730A9F08830B9F0843060
:102B3000D1F4809180008F7D03C0809180008F77D9
:102B400080938000089584B58F7702C084B58F7D0F
:102B500084BD08958091B0008F7703C08091B0004C
:102B60008F7D8093B0000895CF93DF9390E0FC01B8
:102B7000E458FF4F2491FC01E057FF4F84918823D4
:102B800049F190E0880F991FFC01E854FF4FA5918F
:102B9000B49182559F4FFC01C591D4919FB76111AB
:102BA00008C0F8948C91209582238C93888182238D
:102BB0000AC0623051F4F8948C91322F30958323FF
:102BC0008C938881822B888304C0F8948C91822B0B
:102BD0008C939FBFDF91CF9108950F931F93CF9355
:102BE000DF931F92CDB7DEB7282F30E0F901E85907
:102BF000FF4F8491F901E458FF4F1491F901E05718
:102C0000FF4F04910023C9F0882321F069830E94BB
:102C10008B156981E02FF0E0EE0FFF1FE255FF4FAB
:102C2000A591B4919FB7F8948C91611103C0109550
:102C3000812301C0812B8C939FBF0F90DF91CF9197
:102C40001F910F910895CF93DF93282F30E0F90162
:102C5000E859FF4F8491F901E458FF4FD491F901ED
:102C6000E057FF4FC491CC2391F081110E948B1546
:102C7000EC2FF0E0EE0FFF1FEC55FF4FA591B49144
:102C80002C912D2381E090E021F480E002C080E0CF
:102C900090E0DF91CF910895FC01818D228D90E02D
:102CA000805C9F4F821B91098F7399270895FC01C7
:102CB000918D828D981731F0828DE80FF11D858DF1
:102CC00090E008958FEF9FEF0895FC01918D828D24
:102CD000981761F0828DDF01A80FB11D5D968C9170
:102CE000928D9F5F9F73928F90E008958FEF9FEF7B
:102CF000089589EE97E1892B49F080E090E0892BD7
:102D000029F00E94E91781110C9400000895FC013C
:102D1000848DDF01A80FB11DA35ABF4F2C91848D64
:102D200090E001968F739927848FA689B7892C9399
:102D3000A089B1898C9180648C93938D848D981334
:102D400006C00288F389E02D80818F7D80830895FD
:102D5000CF93DF93EC01888D8823C9F0EA89FB8942
:102D6000808185FD05C0A889B9898C9186FD0FC039
:102D70000FB607FCF5CF808185FFF2CFA889B9890E
:102D80008C9185FFEDCFCE010E948716E7CFDF91B2
:102D9000CF910895CF92DF92FF920F931F93CF931D
:102DA000DF931F92CDB7DEB76C0181E0D601589654
:102DB0008C9358975B969C915B975C968C915C97F3
:102DC000981307C05096ED91FC915197808185FD35
:102DD0002EC0F601038D10E00F5F1F4F0F731127F8
:102DE000F02EF601848DF81211C00FB607FCF9CF52
:102DF000D6015096ED91FC915197808185FFF1CFDE
:102E0000C60169830E9487166981EBCF838DE80F25
:102E1000F11DE35AFF4F6083D6015B960C935B97DD
:102E20005296ED91FC915397808180620CC0D6013F
:102E30005696ED91FC91579760835096ED91FC91D9
:102E4000519780818064808381E090E00F90DF91D2
:102E5000CF911F910F91FF90DF90CF900895BF9277
:102E6000CF92DF92EF92FF92CF93DF93EC016A0152
:102E70007B01B22EE889F98982E08083411581EED9
:102E8000580761057105A1F060E079E08DE390E0FD
:102E9000A70196010E94D81B21503109410951090F
:102EA0005695479537952795211580E1380798F075
:102EB000E889F989108260E874E88EE190E0A70162
:102EC00096010E94D81B215031094109510956959C
:102ED000479537952795EC85FD853083EE85FF85F1
:102EE0002083188EEC89FD89B082EA89FB89808174
:102EF00080618083EA89FB89808188608083EA8998
:102F0000FB89808180688083EA89FB8980818F7D4D
:102F10008083DF91CF91FF90EF90DF90CF90BF90B3
:102F200008951F920F920FB60F9211242F938F9333
:102F30009F93EF93FF93E091C403F091C5038081C9
:102F4000E091CA03F091CB0382FD12C09081809181
:102F5000CD038F5F8F732091CE03821751F0E091E4
:102F6000CD03F0E0EC54FC4F958F8093CD0301C06E
:102F70008081FF91EF919F918F912F910F900FBEC4
:102F80000F901F9018951F920F920FB60F92112459
:102F90002F933F934F935F936F937F938F939F9361
:102FA000AF93BF93EF93FF9384EB93E00E94871658
:102FB000FF91EF91BF91AF919F918F917F916F9111
:102FC0005F914F913F912F910F900FBE0F901F90E7
:102FD000189584EB93E00E944C1621E0892B09F4AC
:102FE00020E0822F08951092B7031092B60388EE66
:102FF00093E0A0E0B0E08093B8039093B903A0936E
:10300000BA03B093BB0387ED91E09093B50380932F
:10301000B40385EC90E09093C1038093C00384ECEB
:1030200090E09093C3038093C20380EC90E0909370
:10303000C5038093C40381EC90E09093C703809311
:10304000C60382EC90E09093C9038093C80386EC9A
:1030500090E09093CB038093CA031092CD0310921B
:10306000CE031092CF031092D003089508950E94CA
:10307000F1140E9436180E948E00C9E7D6E10E9422
:1030800050042097E1F30E947916F9CFCF92DF9296
:10309000EF92FF920F931F93CF93DF937C016A010E
:1030A000EB0100E010E00C151D0571F06991D701EE
:1030B000ED91FC910190F081E02DC7010995892BDC
:1030C00019F00F5F1F4FEFCFC801DF91CF911F9114
:1030D0000F91FF90EF90DF90CF90089561157105EB
:1030E00081F0DB010D900020E9F7AD01415051095D
:1030F000461B570BDC01ED91FC910280F381E02D22
:10310000099480E090E008950C946E18DC01ED9134
:10311000FC910190F081E02D099463EE71E00C9434
:103120006E180F931F93CF93DF93EC010E946E18DC
:103130008C01CE010E948D18800F911FDF91CF91DD
:103140001F910F9108958F929F92AF92BF92CF924D
:10315000DF92EF92FF920F931F93CF93DF93CDB740
:10316000DEB7A1970FB6F894DEBF0FBECDBF7C01CE
:10317000C42EE52FCB01D22E19A221E02D1510F07F
:103180002AE0D22E8E010F5D1F4F8D2C912CA12C89
:10319000B12C6C2D7E2FA50194010E94D81B8C2D83
:1031A000D29E80191124015011098A3014F4805DD7
:1031B00001C0895CF8018083211531054105510565
:1031C00021F0C22EE32FCA01E4CFB801C7010E944B
:1031D0006E18A1960FB6F894DEBF0FBECDBFDF917B
:1031E000CF911F910F91FF90EF90DF90CF90BF9004
:1031F000AF909F908F900895CF92DF92EF92FF92C1
:103200000F931F93CF93DF93EC016A017B0121158C
:10321000310579F4E881F9810190F081E02D642F86
:10322000DF91CF911F910F91FF90EF90DF90CF90A2
:1032300009942A303105E9F477FF1AC06DE20E9443
:1032400086188C0144275527BA014C195D096E096F
:103250007F092AE0CE010E94A318800F911FDF9101
:10326000CF911F910F91FF90EF90DF90CF90089535
:103270002AE0B701A601CE01DF91CF911F910F91F6
:10328000FF90EF90DF90CF900C94A3189A01AB01C0
:10329000662757FD6095762F0C94FC180F931F93AB
:1032A000CF93DF93EC019A01AB01662757FD609540
:1032B000762F0E94FC188C01CE010E948D18800F81
:1032C000911FDF91CF911F910F9108952115310525
:1032D00041F4DC01ED91FC910190F081E02D642F2F
:1032E00009940C94A3180F931F93CF93DF93EC01D1
:1032F0009A01462F50E060E070E00E9466198C0150
:10330000CE010E948D18800F911FDF91CF911F91E8
:103310000F9108950F931F93CF93DF93EC010E94B9
:1033200066198C01CE010E948D18800F911FDF91CC
:10333000CF911F910F91089508955058BB27AA2748
:103340000ED075C166D130F06BD120F031F49F3FC3
:1033500011F41EF45BC10EF4E095E7FB51C1E92FB7
:1033600077D180F3BA17620773078407950718F0BF
:1033700071F49EF58FC10EF4E0950B2EBA2FA02D9F
:103380000B01B90190010C01CA01A0011124FF2712
:10339000591B99F0593F50F4503E68F11A16F0400D
:1033A000A22F232F342F4427585FF3CF469537950C
:1033B0002795A795F0405395C9F77EF41F16BA0BD1
:1033C000620B730B840BBAF09150A1F0FF0FBB1F7F
:1033D000661F771F881FC2F70EC0BA0F621F731FC8
:1033E000841F48F4879577956795B795F7959E3F25
:1033F00008F0B3CF9395880F08F09927EE0F9795B3
:1034000087950895D9D008F481E008950CD00FC1B4
:1034100007D140F0FED030F021F45F3F19F0F0C04A
:10342000511139C1F3C014D198F39923C9F355232D
:10343000B1F3951B550BBB27AA27621773078407A7
:1034400038F09F5F5F4F220F331F441FAA1FA9F35D
:1034500033D00E2E3AF0E0E830D091505040E6954F
:10346000001CCAF729D0FE2F27D0660F771F881FB0
:10347000BB1F261737074807AB07B0E809F0BB0B9F
:10348000802DBF01FF2793585F4F2AF09E3F5105C3
:1034900068F0B6C000C15F3FECF3983EDCF3869560
:1034A00077956795B795F7959F5FC9F7880F911D39
:1034B0009695879597F90895E1E0660F771F881F25
:1034C000BB1F621773078407BA0720F0621B730BD8
:1034D000840BBA0BEE1F88F7E095089504D068942A
:1034E000B111D9C00895BCD088F09F5790F0B92F82
:1034F0009927B751A0F0D1F0660F771F881F991F49
:103500001AF0BA95C9F712C0B13081F0C3D0B1E05A
:103510000895C0C0672F782F8827B85F39F0B93F6A
:10352000CCF3869577956795B395D9F73EF490954A
:103530008095709561957F4F8F4F9F4F0895E894C8
:1035400009C097FB3EF490958095709561957F4FEB
:103550008F4F9F4F9923A9F0F92F96E9BB27939599
:10356000F695879577956795B795F111F8CFFAF4A9
:10357000BB0F11F460FF1BC06F5F7F4F8F4F9F4FDA
:1035800016C0882311F096E911C0772321F09EE838
:10359000872F762F05C0662371F096E8862F70E09E
:1035A00060E02AF09A95660F771F881FDAF7880F78
:1035B0009695879597F90895990F0008550FAA0BCE
:1035C000E0E8FEEF16161706E807F907C0F0121636
:1035D0001306E407F50798F0621B730B840B950B39
:1035E00039F40A2661F0232B242B252B21F408958E
:1035F0000A2609F4A140A6958FEF811D811D08952B
:1036000097F99F6780E870E060E008959FEF80EC95
:10361000089500240A941616170618060906089538
:1036200000240A9412161306140605060895092E9E
:103630000394000C11F4882352F0BB0F40F4BF2B0D
:1036400011F460FF04C06F5F7F4F8F4F9F4F08954D
:1036500057FD9058440F551F59F05F3F71F0479543
:10366000880F97FB991F61F09F3F79F08795089528
:10367000121613061406551FF2CF4695F1DF08C047
:10368000161617061806991FF1CF86957105610564
:1036900008940895E894BB2766277727CB0197F90C
:1036A00008950BD0C4CFB5DF28F0BADF18F095230A
:1036B00009F0A6CFABCF1124EECFCADFA0F3959FC0
:1036C000D1F3950F50E0551F629FF001729FBB2709
:1036D000F00DB11D639FAA27F00DB11DAA1F649FB5
:1036E0006627B00DA11D661F829F2227B00DA11D68
:1036F000621F739FB00DA11D621F839FA00D611DEE
:10370000221F749F3327A00D611D231F849F600D0E
:10371000211D822F762F6A2F11249F5750408AF047
:10372000E1F088234AF0EE0FFF1FBB1F661F771FD3
:10373000881F91505040A9F79E3F510570F060CF0F
:10374000AACF5F3FECF3983EDCF3869577956795BB
:10375000B795F795E7959F5FC1F7FE2B880F911DF1
:103760009695879597F90895DB018F939F930E9413
:10377000FA1BBF91AF91A29F800D911DA39F900D49
:10378000B29F900D1124089597FB072E16F4009414
:1037900007D077FD09D00E943C1C07FC05D03EF401
:1037A000909581959F4F0895709561957F4F0895ED
:1037B000A1E21A2EAA1BBB1BFD010DC0AA1FBB1F35
:1037C000EE1FFF1FA217B307E407F50720F0A21BA7
:1037D000B30BE40BF50B661F771F881F991F1A9414
:1037E00069F760957095809590959B01AC01BD013E
:1037F000CF0108950E94561CA59F900DB49F900D77
:10380000A49F800D911D112408950F93083090F00E
:10381000982F872F762F652F542F432F322F222753
:103820000850F4CF220F331F441F551F661F771F08
:10383000881F991F0A95B2F70F91089597FB10F80A
:10384000169400080F93083098F00850232F342F57
:10385000452F562F672F782F892F902DF4CF059461
:1038600097958795779567955795479537952795B8
:103870000A95AAF70F910895AA1BBB1B51E107C037
:10388000AA1FBB1FA617B70710F0A61BB70B881FF0
:10389000991F5A95A9F780959095BC01CD0108957F
:1038A000EE0FFF1F0590F491E02D0994A29FB00147
:1038B000B39FC001A39F700D811D1124911DB29F64
:0E38C000700D811D1124911D0895F894FFCF05
:1038CE00050053746172743A20005369676E616C1F
:1038DE003A204E45433A2000534F4E593A2000525B
:1038EE0043353A20005243363A2000554E4B4E4F48
:1038FE00574E3A20005475726E20576869746520D1
:10390E004F4E005475726E205768697465204F468D
:10391E004600666C617368004E6577207468726548
:10392E0073686F6C64200053656E74205261772E3D
:10393E000053656E64696E67200020200053656E2B
:10394E0064696E6720524742204F4E006E657720A5
:10395E006C7578313A200053656E64696E6720523B
:10396E004742204F4646005365747570004D6F7682
:10397E00656D656E743A004C696768743A20002074
:10398E006C7800000000005F11321107110F112238
:10399E0011311100000000CA1646184C1665165754
:1039AE0016A8160D0A006E616E00696E66006F76BF
:0239BE006600A1
:00000001FF
