:100000000C9464000C948C000C948C000C948C0068
:100010000C948C000C948C000C948C000C948F0726
:100020000C948C000C948C000C948C000C948C0020
:100030000C948C000C948C000C948C000C948C0010
:100040000C9422150C948C000C946E180C94A0182F
:100050000C948C000C948C000C948C000C948C00F0
:100060000C94F5130C948C000000000800020100B1
:100070000003040700000000000000000102040863
:100080001020408001020408102001020408102002
:10009000040404040404040402020202020203032E
:1000A00003030303000000002300260029000000D2
:1000B0000000250028002B0000000000240027007D
:1000C0002A00ED040B13D01811241FBECFEFD8E087
:1000D000DEBFCDBF12E0A0E0B1E0E6E9FAE302C086
:1000E00005900D92AA34B107D9F724E0AAE4B2E052
:1000F00001C01D92AF3DB207E1F710E0C8ECD0E0BF
:1001000004C02297FE010E94361DC23CD107C9F7E8
:100110000E9414190C94491D0C94000040ED57E006
:1001200060E070E082E493E00E944B1120E835E249
:1001300040E050E062E474E082E493E00E945E11EB
:1001400082E493E00E94481162E071E080917303C1
:10015000909174030E9461196AE070E080E090E081
:100160000E949B1541E060E082E493E00E94C91187
:1001700026E040E855E260E070E082E494E00E940E
:100180000C1860E070E089E00E94091661E088E0E8
:100190000E94911660E08DE00E94911687E692E041
:1001A0000E946E0560E186E592E00E94530560EDD5
:1001B00077E080E090E00E949B1564E171E082E4CA
:1001C00094E00C94611986E592E00C94F80467E5DC
:1001D00072E087E692E00E943B06892BC1F1809194
:1001E0005702909158028330910519F46CE171E047
:1001F00016C08430910519F46AE271E010C08130B4
:10020000910519F461E371E00AC08230910519F497
:1002100067E371E004C0019631F46DE371E082E4BC
:1002200094E00E94611940915B0250915C026091E0
:100230005D0270915E0220E130E082E494E00E9471
:100240006E1A87E692E00E94850581E0089580E0BD
:1002500008958DE00E94001721E0019709F020E049
:10026000822F0895CF93DF9367E471E082E494E0F6
:100270000E946E19C0E0D0E0BE0189E00E9409161C
:1002800062E370E080E090E00E949B152596C43008
:1002900081E0D80789F7DF91CF910895CF93DF935D
:1002A00065E571E082E494E00E946E19CFEFD0E042
:1002B000BE0189E00E9409166EE170E080E090E0E6
:1002C0000E949B152597CB3F8FEFD80789F7DF91C9
:1002D000CF9108950F931F93CF93DF938C01C0E0CC
:1002E000D0E0C017D107F4F464E671E082E494E052
:1002F0000E94611960E070E089E00E94091664E6DE
:1003000070E080E090E00E949B156FEF70E089E064
:100310000E94091664E670E080E090E00E949B1560
:100320002196DFCF60E070E089E0DF91CF911F91EF
:100330000F910C9409168091000190910101029691
:1003400090930101809300011092690210926A0259
:1003500010926B0210926C0260E070E089E00E94E3
:10036000091664E670E080E090E00E949B156FEF54
:1003700070E089E00E94091664E670E080E090E099
:100380000E949B1560E070E089E00E94091664E617
:1003900070E080E090E00E949B156FEF70E089E0D4
:1003A0000E94091664E670E080E090E00E949B15D0
:1003B00060E070E089E00E9409166AE671E082E47C
:1003C00094E00E94611960910001709101014AE07E
:1003D00050E082E494E00C942B1A809100019091FB
:1003E000010102979093010180930001109269022C
:1003F00010926A0210926B0210926C0260E070E040
:1004000089E00E94091664E670E080E090E00E94B6
:100410009B156FEF70E089E00E94091664E670E0BA
:1004200080E090E00E949B1560E070E089E00E940F
:1004300009166AE671E082E494E00E946119609115
:100440000001709101014AE050E082E494E00C94D4
:100450002B1A482F282F269530E0C90188519C4F30
:10046000642F70E00E94A81C9B0160935402CB0192
:100470009927019663E070E00E94A81C261B665035
:10048000443209F128F44E31D1F04132C1F01BC0A1
:100490004832C9F04833B9F4609353022C5020938A
:1004A00052024AE050E082E494E00E94571A4AE087
:1004B00050E06091520282E494E00C94571A6093E9
:1004C00053022A5003C0609353022B5020935202D0
:1004D00008958F929F92AF92BF92CF92DF92EF9248
:1004E000FF9240914E0250914F02609150027091E4
:1004F0005102480F591F611D711D40934E025093C8
:100500004F0260935002709351020E9478154B0184
:100510005C01C0904E02D0904F02E0905002F090EB
:100520005102C61AD70AE80AF90A11F10E94781591
:10053000681979098A099B096C157D058E059F0547
:10054000B8F461E088E00E94CA16809153028823C3
:1005500019F090E00E94C31560E088E00E94CA167E
:1005600080915202882311F390E00E94C315DECFE0
:10057000FF90EF90DF90CF90BF90AF909F908F90C3
:1005800008958F929F92AF92BF92CF92DF92EF9297
:10059000FF9240914E0250914F0260915002709133
:1005A0005102480F591F611D711D40934E02509317
:1005B0004F0260935002709351020E9478154B01D4
:1005C0005C01C0904E02D0904F02E0905002F0903B
:1005D0005102C61AD70AE80AF90A59F00E9478159A
:1005E000681979098A099B096C157D058E059F0597
:1005F000A8F3FF90EF90DF90CF90BF90AF909F90C7
:100600008F9008958F929F92AF92BF92CF92DF9278
:10061000EF92FF920F93CF934B015C01C22F802F7B
:100620004150C12CD12C7601C39404C0CC0CDD1CEC
:10063000EE1CFF1C4A95D2F79091550290130E9430
:1006400029020E94781560934E0270934F028093A6
:1006500050029093510260934A0270934B02809330
:100660004C0290934D0288E293E20E94690284E971
:1006700091E10E94C102C114D104E104F104F1F03E
:10068000D701C60188219921AA21BB21892B8A2B58
:100690008B2B39F080E392E00E9469028AE996E0B0
:1006A00006C080E392E00E94690280E392E00E942B
:1006B000C102F694E794D794C794DDCF80E392E02B
:1006C0000E946902CC23F9F080914A0290914B027A
:1006D00080529A4520914E0230914F02821B930B1B
:1006E0000E94C10288E293E20E9469028AEC98E0CB
:1006F0000E94C10280E392E00E946902C15019F099
:100700008EEB97E7EDCFCF910F91FF90EF90DF90B9
:10071000CF90BF90AF909F908F900895EF92FF92EF
:100720000F93CF93DF930E94E3000E94E3007C01CC
:1007300063E871E082E494E00E9461194AE050E0CD
:10074000B70182E494E00E94231A6CE871E082E42D
:1007500094E00E9461194AE050E060E070E082E4B9
:1007600094E00E942B1AC0E0D0E0C7010E968C17CF
:100770009D0784F16FE871E082E494E00E946E19B5
:1007800006E221E040E26DEF72E08FEF90E00E9420
:10079000020368EC70E080E090E00E949B150E94EC
:1007A000E300EC018E159F0574F46EE971E082E4BC
:1007B00094E00E9461194AE050E0BE0182E494E0B6
:1007C0000E942B1A7E0168EC70E080E090E00E94AD
:1007D0009B15CBCFDF91CF910F91FF90EF900895B4
:1007E000EF92FF920F93CF93DF930E94E3007C017F
:1007F000EC01C7010997C817D90784F169EA71E0CC
:1008000082E494E00E946E1906E221E040E26DEF7E
:1008100072E08FEF90E00E94020368EC70E080E0ED
:1008200090E00E949B150E94E300EC01E816F90697
:1008300074F46EE971E082E494E00E9461194AE088
:1008400050E0BE0182E494E00E942B1A7E0168EC25
:1008500070E080E090E00E949B15CBCF60E177E2F2
:1008600080E090E0DF91CF910F91FF90EF900C949A
:100870009B1580915B0290915C02A0915D02B0910A
:100880005E028F3A20E592072FEFA207B105D9F05B
:100890008F3820E792072FEFA207B10589F08F3E2E
:1008A0009041AF4FB10591F460E070E089E00E94A3
:1008B00009160E94F0030E94E3000E946A0106C02C
:1008C0000E949B0108950E94ED0108950895CF9222
:1008D000DF92EF92FF92CF93DF930E946C156B0132
:1008E0007C010E942901882309F442C0C092690258
:1008F000D0926A02E0926B02F0926C020E94E300D6
:10090000EC0180916802811133C0809100019091C7
:100910000101C817D90764F569EB71E082E494E03E
:100920000E9461194AE050E0BE0182E494E00E9416
:10093000231A61EC71E082E494E00E946E196BE985
:1009400071E082E494E00E946E1964E170E080E05E
:1009500090E00E949B150E948E0364EF71E080E09E
:1009600090E00E949B150E94320181E08093680212
:100970000E94E70081110E943904809169029091E0
:100980006A02A0916B02B0916C02C81AD90AEA0AF5
:10099000FB0A89ECC8168FEAD806E104F104B0F02E
:1009A00080916802882391F065EB71E082E494E025
:1009B0000E946E190E944E016CE474E080E090E0A9
:1009C0000E949B150E94F00310926802DF91CF9164
:1009D000FF90EF90DF90CF90089562E070E087E69F
:1009E00092E00E94690586E592E00C94F704089570
:1009F000CF93DF9363E270E089E793E00E948F1268
:100A000042E050E063E270E089E793E00E94051362
:100A100089E793E00E94EC11D82F80E0C82F89E786
:100A200093E00E94EC11C82BD92B89E793E00E9438
:100A30000813BE0180E090E00E94831B2AE939E997
:100A400049E95FE30E94EA1A0E94571BCB01DF913C
:100A5000CF910895CF93C62F63E270E089E793E0CA
:100A60000E948F126C2F89E793E00E943C1289E765
:100A700093E0CF910C940813633161F028F420EFD8
:100A8000260F223078F406C0603260F0623210F037
:100A9000633241F40E942A058FE39CE90197F1F744
:100AA00000C0000008950F931F93CF93DF931F9210
:100AB000CDB7DEB78C0189E793E069830E947B1292
:100AC0006981C8010F90DF91CF911F910F910C9414
:100AD0003C0560936E02109270020895F89482E0D3
:100AE0008093B0008093B10094E69093B30010928D
:100AF000B20080937000789480936D02109271021E
:100B000080916E0260E00C94911682E080936D02F9
:100B10001092710208958F929F92AF92BF92CF92DE
:100B2000DF92EF92FF927B01BA0180E090E00E9499
:100B3000831B4B015C01B70180E090E00E94831BA6
:100B40006B017C012DEC3CEC4CE45FE30E94351C16
:100B50009B01AC01C501B4010E94E61A87FD17C0D4
:100B60002DEC3CEC4CE45FE3C501B4010E94351C64
:100B70009B01AC01C701B6010E94E61A992787FDC7
:100B800090958827990F881F9927019602C080E0C9
:100B900090E0FF90EF90DF90CF90BF90AF909F904C
:100BA0008F9008958F929F92AF92BF92CF92DF92D3
:100BB000EF92FF920F931F93CF93DF936C01EB01A2
:100BC000EC84FD8486E0E816F1040CF444C0EE0CDD
:100BD000FF1C06E010E045EC842E4DE9942E4CE11C
:100BE000A42E41E8B42E8A859B85FC01E00FF11FFD
:100BF00040815181F8013497E80FF91F60817181BC
:100C0000C6010E948B05FC01A501940163E971E016
:100C100080E091E00E94981C4F01AA2497FCA094C8
:100C2000BA2C86269726A826B9260E5F1F4F0E15CA
:100C30001F05C9F68C829D82AE82BF8280E290E061
:100C4000998788878FEF9FEF9983888361E070E0B1
:100C500080E090E003C060E070E0CB01DF91CF91D5
:100C60001F910F91FF90EF90DF90CF90BF90AF90CA
:100C70009F908F9008950F931F93CF93DF938C01D4
:100C8000EB0184E792E09B878A878091710290E074
:100C90009D878C8780913E0390E09F878E8780910F
:100CA0006D02853009F05EC0C8010E942A0B8823BE
:100CB00019F081E090E058C0BE01C8010E94E30F26
:100CC0008111F7CFBE01C8010E943F0F8111F1CF02
:100CD000BE01C8010E949B0A8111EBCFBE01C80171
:100CE0000E94010D8111E5CFBE01C8010E94A80D2F
:100CF0008111DFCFBE01C8010E94C90B8111D9CF7C
:100D0000BE01C8010E940E0A8111D3CFBE01C801E5
:100D10000E9455098111CDCFBE01C8010E94A00ECD
:100D20008111C7CFBE01C8010E947E108111C1CFC1
:100D3000BE01C8010E9449088111BBCFBE01C80194
:100D40000E94DA088111B5CFBE01C8010E94D20508
:100D5000672B682B692B09F0ACCF82E080936D0282
:100D60001092710280E090E0DF91CF911F910F917E
:100D70000895CF92DF92EF92FF92CF93DF93EC0131
:100D8000882777FD8095982F0E94851B6B017C0139
:100D900020E030E040E45FE30E94351C20E030E0DA
:100DA00048E452E40E94EA1A0E94521BC617D70771
:100DB000ECF020E030E040EA5FE3C701B6010E94BA
:100DC000351C20E030E048E452E40E94EA1A20E0BA
:100DD00030E040E85FE30E94821A0E94521B21E04B
:100DE0006C177D070CF420E0822F01C080E090E0BA
:100DF000DF91CF91FF90EF90DF90CF900895CF9249
:100E0000DF92EF92FF92CF93DF93EC016C597F4F0B
:100E1000882777FD8095982F0E94851B6B017C01A8
:100E200020E030E040E45FE30E94351C20E030E049
:100E300048E452E40E94EA1A0E94521BC617D707E0
:100E4000ECF020E030E040EA5FE3C701B6010E9429
:100E5000351C20E030E048E452E40E94EA1A20E029
:100E600030E040E85FE30E94821A0E94521B21E0BA
:100E70006C177D070CF420E0822F01C080E090E029
:100E8000DF91CF91FF90EF90DF90CF900895CF92B8
:100E9000DF92EF92FF92CF93DF93EC0164567109DA
:100EA000882777FD8095982F0E94851B6B017C0118
:100EB00020E030E040E45FE30E94351C20E030E0B9
:100EC00048E452E40E94EA1A0E94521BC617D70750
:100ED000ECF020E030E040EA5FE3C701B6010E9499
:100EE000351C20E030E048E452E40E94EA1A20E099
:100EF00030E040E85FE30E94821A0E94521B21E02A
:100F00006C177D070CF420E0822F01C080E090E098
:100F1000DF91CF91FF90EF90DF90CF9008951F92D7
:100F20000F920FB60F9211242F933F934F935F931D
:100F30006F937F938F939F93AF93BF93EF93FF93A1
:100F400080916E020E94001720917202309173020C
:100F50002F5F3F4F30937302209372029091710282
:100F6000953618F096E090936D0290916D02943052
:100F7000C9F128F4923069F09330D1F05EC0953019
:100F800009F451C0963009F058C091E090933E03A7
:100F900051C0811152C020917202309173022436E7
:100FA000310508F442C010923E03109271021CC039
:100FB000813009F042C0E091710291E09E0F909360
:100FC0007102F0E02091720230917302EE0FFF1F68
:100FD000E359FD4F308727831092730210927202FB
:100FE00094E029C0811117C0E091710291E09E0F39
:100FF00090937102F0E02091720230917302EE0F33
:10100000FF1FE359FD4F3087278310927302109220
:10101000720293E010C02091720230917302253663
:10102000310558F007C0811108C010927302109268
:10103000720203C095E090936D0290917002992323
:10104000B9F081110AC080916F02882321F080914C
:101050006F0261E009C02D9A0BC080916F02882356
:1010600031F080916F0260E00E94CA1601C02D9895
:10107000FF91EF91BF91AF919F918F917F916F9170
:101080005F914F913F912F910F900FBE0F901F9046
:101090001895AF92BF92CF92DF92EF92FF920F938B
:1010A0001F93CF93DF93EB0180917102883510F489
:1010B00080E075C0EA85FB858281938160E672E2FB
:1010C0000E94FF06892BA1F3EA85FB858481958127
:1010D00064E971E10E944707892B51F3BEE1CB2EF1
:1010E000D12C1DE1E12EF12C00E010E08091710285
:1010F00090E00497E816F906C4F5EA85FB85C70178
:10110000880F991FE80FF91F8081918164EF71E0CA
:101110000E94FF06892B61F25601AA0CBB1CEA85CE
:10112000FB85EA0DFB1D8081918168E572E00E94DC
:101130004707892B21F0000F111F01600EC0EA85BF
:10114000FB85EA0DFB1D8081918164EA76E00E94B7
:101150004707892B49F0000F111F82E0E80EF11CB0
:1011600082E0C80ED11CC2CF760181E0E81AF108F6
:10117000F594E794F986E8868AE2E816F1040CF41F
:1011800097CFC801AA2797FDA095BA2F8C839D837E
:10119000AE83BF8389E090E09983888381E0DF910B
:1011A000CF911F910F91FF90EF90DF90CF90BF9064
:1011B000AF900895AF92BF92CF92DF92EF92FF92DD
:1011C0000F931F93CF93DF93EB01809171028032D5
:1011D00011F080E05FC0EA85FB85828193816CE23B
:1011E00071E00E94FF06892BA1F3EA85FB858481CB
:1011F00095816EEE72E00E944707892B51F306E05D
:1012000010E0C12CD12C7601EA85FB85E00FF11F9F
:10121000808191816CE271E00E94FF06892BC9F206
:10122000580182E0A80EB11CEA85FB85EA0DFB1D82
:101230008081918168E077E00E944707892B39F02F
:10124000CC0CDD1CEE1CFF1C6894C0F811C0EA85B4
:10125000FB85EA0DFB1D808191816EEE72E00E949C
:101260004707892B09F4B5CFCC0CDD1CEE1CFF1C05
:101270000C5F1F4F0E33110539F68EE090E0998711
:101280008887CC82DD82EE82FF828FE090E09983B6
:10129000888381E0DF91CF911F910F91FF90EF90B4
:1012A000DF90CF90BF90AF900895AF92BF92CF9252
:1012B000DF92EF92FF920F931F93CF93DF93EB0197
:1012C00080917102823261F5EA85FB85828193818A
:1012D00068E572E00E94FF06892B11F1809171028E
:1012E00090E081509048880F991FEA85FB85E80FB0
:1012F000F91F8081918168E572E00E94FF06892BC9
:1013000079F0198618868FEF9FEFDC018C839D831F
:10131000AE83BF8386E090E09983888381E073C0C9
:10132000EA85FB858281938160E47FE10E94FF066C
:10133000892B21F080917102813210F480E063C02A
:10134000EA85FB858481958160EA7FE00E944707FA
:10135000892BA1F358E0A52EB12C03E010E0C12C9D
:10136000D12C7601EA85FB85C801880F991FE80F0B
:10137000F91F8081918168E572E00E94FF06892B48
:10138000E9F2EA85FB85EA0DFB1D8081918160E42D
:1013900076E00E944707892B39F0CC0CDD1CEE1C4F
:1013A000FF1C6894C0F811C0EA85FB85EA0DFB1D9F
:1013B0008081918166E272E00E944707892B09F4DF
:1013C000BDCFCC0CDD1CEE1CFF1C0E5F1F4F84E05C
:1013D000A80EB11C0332110529F6EA85FB85EA5BEC
:1013E000FF4F8081918168E572E00E94FF06892BA2
:1013F00009F4A4CF80E190E099878887CC82DD82D0
:10140000EE82FF8287CFDF91CF911F910F91FF90E6
:10141000EF90DF90CF90BF90AF900895AF92BF92C2
:10142000CF92DF92EF92FF920F931F93CF93DF93B0
:10143000EB0180917102893310F480E071C0EA857C
:10144000FB858281938160E47FE10E94FF06892B06
:10145000A1F3EA85FB858481958160EA7FE00E94A3
:101460004707892B51F338E0A32EB12C03E010E09D
:10147000C12CD12C7601EA85FB85C801880F991F04
:10148000E80FF91F8081918168E572E00E94FF06F4
:10149000892B99F2EA85FB85EA0DFB1D80819181FC
:1014A00060E476E00E944707892B39F0CC0CDD1C04
:1014B000EE1CFF1C6894C0F811C0EA85FB85EA0D9C
:1014C000FB1D8081918166E272E00E944707892BB3
:1014D00009F4B3CFCC0CDD1CEE1CFF1C0E5F1F4FBC
:1014E00084E0A80EB11C0B33110529F6EA85FB85B3
:1014F000EA58FF4F8081918168E572E00E94FF0603
:10150000892B09F49ACF8CE190E099878887CC8267
:10151000DD82EE82FF828AE090E09983888381E019
:10152000DF91CF911F910F91FF90EF90DF90CF90BF
:10153000BF90AF9008956F927F928F929F92AF92DB
:10154000BF92CF92DF92EF92FF920F931F93CF93B0
:10155000DF93EB0180917102823208F461C0EA8569
:10156000FB85828193816EE571E00E94FF06892BE5
:1015700009F456C063E0A62EB12C02E010E0C12CA5
:10158000D12C760135018091710290E0A816B90640
:10159000E4F54801880C991CEA85FB85E80DF91DE6
:1015A000808191816EE977E00E94FF06892B39F0F6
:1015B000CC0CDD1CEE1CFF1C6894C0F810C0EA8542
:1015C000FB85E80DF91D808191816EEE72E00E942D
:1015D000FF06892B29F1CC0CDD1CEE1CFF1CC5017C
:1015E000880F991FEA85FB85E80FF91F808191819B
:1015F0006EE571E00E94470722E0A20EB11C892B24
:1016000019F00E5F1F4FBECF8301015011091595D0
:101610000795198708870031110524F41986188663
:1016200080E009C0CC82DD82EE82FF828CE090E017
:101630009983888381E0DF91CF911F910F91FF9073
:10164000EF90DF90CF90BF90AF909F908F907F9062
:101650006F900895AF92BF92CF92DF92EF92FF9278
:101660000F931F93CF93DF93EB01EA85FB85828174
:10167000938168E273E20E94FF06892B11F480E0F7
:101680007DC080917102843019F5EA85FB858481E3
:1016900095816AEC78E00E944707892BC9F0EA85BA
:1016A000FB858681978160E372E00E94FF06892BAB
:1016B00079F0198618868FEF9FEFDC018C839D836C
:1016C000AE83BF8383E090E09983888381E056C036
:1016D00080917102843498F2EA85FB85848195813A
:1016E00064E971E10E944707892B49F206E010E0A6
:1016F000C12CD12C7601EA85FB85E00FF11F80819A
:10170000918160E372E00E94FF06892B09F4B7CF54
:10171000580182E0A80EB11CEA85FB85EA0DFB1D8D
:10172000808191816AE976E00E944707892B39F030
:10173000CC0CDD1CEE1CFF1C6894C0F811C0EA85BF
:10174000FB85EA0DFB1D8081918160E372E00E94C0
:101750004707892B09F493CFCC0CDD1CEE1CFF1C32
:101760000C5F1F4F0638110531F680E290E0998733
:101770008887CC82DD82EE82FF82A4CFDF91CF9179
:101780001F910F91FF90EF90DF90CF90BF90AF909F
:1017900008958F929F92AF92BF92CF92DF92EF9275
:1017A000FF920F931F93CF93DF9300D000D0CDB75C
:1017B000DEB74B01DB011A96ED91FC911B978281FC
:1017C00093816EEA7DE00E94FF06892B11F480E090
:1017D00093C0D4011A96ED91FC911B978481958159
:1017E00066ED76E00E94FF06892B89F3E6E0EE2E97
:1017F000F12C20E030E040E050E0A12CB12CC12CD5
:10180000D12CD4011A96ED91FC911B97EE0DFF1D82
:101810008081918166EF71E029833A834B835C83F9
:101820000E94FF06892B99F287010E5F1F4FD4019A
:101830001A96ED91FC911B97E00FF11F8081918129
:101840006CED74E00E94470729813A814B815C81ED
:10185000892B39F0B501C60101E00E94E91C216025
:101860001DC0D4011A96ED91FC911B97E00FF11F5A
:101870008081918160E971E029833A834B835C83A5
:101880000E94470729813A814B815C81892B09F4A9
:101890009ECFB501C60101E00E94E91C5B016C010D
:1018A000B4E0EB0EF11CE6ECEE16F10409F0A9CF62
:1018B000D40114962C93149715963C93159716966D
:1018C0004C93169717965C931797B501C60100E2E3
:1018D0000E94041D12962C93129713963C93139713
:1018E00085E090E011969C938E9380E390E01996AA
:1018F0009C938E93189781E00F900F900F900F900C
:10190000DF91CF911F910F91FF90EF90DF90CF90DB
:10191000BF90AF909F908F9008958F929F92AF92BB
:10192000BF92CF92DF92EF92FF920F931F93CF93CC
:10193000DF937A016901DA01CD91DC91FB018485A5
:101940009585C817D9070CF04AC0CE01880F991F9A
:101950000284F385E02DE80FF91FA080B180C170EB
:10196000DD27F1E0CF27209719F484E690E002C04C
:101970008CE99FEF4801880E991EB401C5010E94B1
:10198000B906892B99F4800E911EB401C5010E94FD
:10199000B906892B71F4B401600F711FC5010E9453
:1019A000B906892BF9F023E030E005C021E030E0F2
:1019B00002C022E030E0D6018D919C9111970196F2
:1019C0008217930744F0F60111821082D7018D919E
:1019D0009C91119701968D939C93CE0105C081E057
:1019E00090E002C08FEF9FEFDF91CF911F910F9199
:1019F000FF90EF90DF90CF90BF90AF909F908F902F
:101A000008954F925F926F927F928F929F92AF92C2
:101A1000BF92CF92DF92EF92FF920F931F93CF93DB
:101A2000DF9300D000D0CDB7DEB76C017B011C8204
:101A30001B8281E090E09A838983809171028D30CE
:101A400010F480E070C009E713E09E012D5F3F4F66
:101A5000AE014F5F5F4FC6010E948D0C892B89F745
:101A60009E012D5F3F4FAE014F5F5F4FB701C60133
:101A70000E948D0C019729F79E012D5F3F4FAE010B
:101A80004F5F5F4FB701C6010E948D0C892BC9F6CD
:101A9000412C512C3201A12CB12C8091710290E08B
:101AA00029813A81281739079CF509E713E09E013F
:101AB0002D5F3F4FAE014F5F5F4FB701C6010E94E0
:101AC0008D0C4C019E012D5F3F4FAE014F5F5F4F6C
:101AD000B701C6010E948D0C21E08216910451F4D9
:101AE000892B09F0AECF440C551C661C771C6894FA
:101AF00040F80AC0892809F0A4CF019709F0A1CFC6
:101B0000440C551C661C771C8FEFA81AB80AC5CF69
:101B1000F701B186A086448255826682778281E091
:101B200090E0918380830F900F900F900F90DF9142
:101B3000CF911F910F91FF90EF90DF90CF90BF90CA
:101B4000AF909F908F907F906F905F904F9008958F
:101B50002F923F924F925F926F927F928F929F92BD
:101B6000AF92BF92CF92DF92EF92FF920F931F93AB
:101B7000CF93DF9300D000D0CDB7DEB76C017B01EF
:101B80001C821B82DB011C968D919C911D9718165F
:101B9000190614F080E0BDC0DB011A96ED91FC91AE
:101BA0001B9782E090E09A838983828193816AE621
:101BB0007AE00E94FF06892B69F3D7011A96ED910E
:101BC000FC911B9789819A819C012F5F3F4F3A833B
:101BD0002983880F991FE80FF91F8081918169E798
:101BE00073E00E944707892BA9F20CEB11E09E01DC
:101BF0002D5F3F4FAE014F5F5F4FB701C6010E949F
:101C00008D0C892B39F69E012D5F3F4FAE014F5F42
:101C10005F4FB701C6010E948D0C019709F0BACF42
:101C2000212C312C2101A12CB12C29813A81F701E1
:101C300084859585281739070CF060C00CEB11E0FE
:101C40009E012D5F3F4FAE014F5F5F4FB701C60151
:101C50000E948D0C3C01B3E0AB16B10491F00CEB8B
:101C600011E09E012D5F3F4FAE014F5F5F4FB70107
:101C7000C6010E948D0C4C01E3E0AE16B10409F5DB
:101C800010C00CEB11E09E012D5F3F4FAE014F5F86
:101C90005F4FB701C6010E948D0C68167906F9F2F4
:101CA00079CF0CEB11E09E012D5F3F4FAE014F5FEE
:101CB0005F4FB701C6010E948D0C8816990609F086
:101CC00069CF6114710459F48A94892809F062CFAC
:101CD000220C331C441C551C689420F80BC06A94D9
:101CE000672809F057CF892809F054CF220C331CFC
:101CF000441C551CAFEFAA1ABA0A97CFB186A0862A
:101D0000248235824682578282E090E091838083EC
:101D100081E00F900F900F900F90DF91CF911F9166
:101D20000F91FF90EF90DF90CF90BF90AF909F907A
:101D30008F907F906F905F904F903F902F9008957D
:101D4000AF92BF92CF92DF92EF92FF920F931F93C9
:101D5000CF93DF93EB01EA85FB858281938168E86D
:101D600073E10E94FF06892B11F480E07DC0809111
:101D70007102843019F5EA85FB85848195816AECCE
:101D800078E00E944707892BC9F0EA85FB858681A8
:101D9000978160E372E00E94FF06892B79F0198633
:101DA00018868FEF9FEFDC018C839D83AE83BF830A
:101DB00087E090E09983888381E056C0809171022A
:101DC000843498F2EA85FB858481958168E873E123
:101DD0000E944707892B49F206E010E0C12CD12C64
:101DE0007601EA85FB85E00FF11F8081918160E338
:101DF00072E00E94FF06892B09F4B7CF580182E0F8
:101E0000A80EB11CEA85FB85EA0DFB1D808191813E
:101E100060E476E00E944707892B39F0CC0CDD1C8A
:101E2000EE1CFF1C6894C0F811C0EA85FB85EA0D22
:101E3000FB1D8081918160E372E00E944707892B3E
:101E400009F493CFCC0CDD1CEE1CFF1C0C5F1F4F64
:101E50000638110531F680E290E099878887CC82B8
:101E6000DD82EE82FF82A4CFDF91CF911F910F918F
:101E7000FF90EF90DF90CF90BF90AF9008958F923A
:101E80009F92AF92BF92CF92DF92EF92FF920F9309
:101E90001F93CF93DF93EB01809171028A3108F495
:101EA0007AC0EA85FB85808191818032934050F42D
:101EB000198618868FEF9FEFDC018C839D83AE839C
:101EC000BF836FC0828193816CEA7DE00E94FF0630
:101ED000892B09F460C0EA85FB85848195816CEAD1
:101EE0007DE00E94FF06892B09F455C054E0A52E21
:101EF000B12C03E010E0C12CD12C7601809171024D
:101F000090E0A816B906E4F5EA85FB85C801880FBC
:101F1000991FE80FF91F8081918166EB73E00E94A1
:101F20004707892B61F14501880C991CEA85FB85DF
:101F3000E80DF91D8081918160E679E00E94FF063D
:101F4000892B39F0CC0CDD1CEE1CFF1C6894C0F80A
:101F500010C0EA85FB85E80DF91D808191816CEB4D
:101F600072E00E94FF06892BB1F0CC0CDD1CEE1C48
:101F7000FF1C0E5F1F4F82E0A80EB11CBFCF850172
:101F80000150110915950795198708870C3011051F
:101F900024F41986188680E009C0CC82DD82EE82A6
:101FA000FF828BE090E09983888381E0DF91CF917D
:101FB0001F910F91FF90EF90DF90CF90BF90AF9067
:101FC0009F908F9008958F929F92AF92BF92CF92E1
:101FD000DF92EF92FF920F931F93CF93DF93EB016A
:101FE000809171028A3108F471C0EA85FB85808195
:101FF0009181843F914060F4198618868FEF9FEF9E
:10200000DC018C839D83AE83BF838BE090E066C050
:102010008281938160E679E00E94FF06892B09F4B2
:1020200055C073E0A72EB12C02E010E0C12CD12CDA
:1020300076018091710290E0A816B906E4F5EA8570
:10204000FB85C801880F991FE80FF91F80819181D6
:1020500068E572E00E944707892B61F14501880C11
:10206000991CEA85FB85E80DF91D8081918160EB63
:1020700074E00E94FF06892B39F0CC0CDD1CEE1CAD
:10208000FF1C6894C0F810C0EA85FB85E80DF91DB7
:102090008081918168E572E00E94FF06892BB1F092
:1020A000CC0CDD1CEE1CFF1C0E5F1F4F82E0A80E47
:1020B000B11CBFCF850101501109159507951987EE
:1020C00008870C30110524F41986188680E009C0B1
:1020D000CC82DD82EE82FF8284E090E09983888367
:1020E00081E0DF91CF911F910F91FF90EF90DF90F2
:1020F000CF90BF90AF909F908F900895AF92BF9276
:10210000CF92DF92EF92FF920F931F93CF93DF93C3
:10211000EB0180917102863410F480E086C0EA857C
:10212000FB85828193816EEE72E00E94FF06892B0F
:10213000A1F3EA85FB85848195816EEE72E00E94B1
:102140004707892B51F3EA85FB858681978162E2F7
:102150007BE00E94FF06892B01F3EA85FB858085E1
:10216000918562E27BE00E944707892BB1F25CE037
:10217000A52EB12C05E010E0C12CD12C7601EA850A
:10218000FB85C801880F991FE80FF91F8081918195
:102190006EEE72E00E94FF06892B09F4BECFEA853D
:1021A000FB85EA0DFB1D8081918166E678E00E9447
:1021B0004707892B39F0CC0CDD1CEE1CFF1C689402
:1021C000C0F811C0EA85FB85EA0DFB1D8081918175
:1021D0006EEE72E00E944707892B09F49ECFCC0C6B
:1021E000DD1CEE1CFF1C0E5F1F4F84E0A80EB11C0F
:1021F0000534110521F6EA85FB85E657FF4F8081FE
:1022000091816EEE72E00E94FF06892B09F485CF62
:1022100080E290E099878887CC82DD82EE82FF821F
:1022200088E090E09983888381E0DF91CF911F91CE
:102230000F91FF90EF90DF90CF90BF90AF900895F7
:102240000F931F93CF93DF93EC01662359F00E9405
:102250006C1569837A838B839C83DF91CF911F9167
:102260000F9108950E946C1509811A812B813C8180
:10227000601B710B820B930B613271058105910517
:1022800030F763E070E080E090E00E949B15EACFB9
:1022900060E00C942011FC0113AA14AA15AA16AA36
:1022A0001182128213821482411551056105710554
:1022B00021F0CB01BA010C949B150895FB01BA01E2
:1022C000A901DC01D296FC93EE93D19726E0CF01D1
:1022D0000C940C181F93CF93DF93EC01162F65EC31
:1022E00071E089A99AA90E9461194AE050E0612F22
:1022F00089A99AA90E94501A6CEC71E089A99AA93F
:102300000E94611962E370E080E090E0DF91CF917C
:102310001F910C949B151F93CF93DF93EC01162F05
:102320008D81882389F189A99AA9DC01ED91FC911D
:102330000480F581E02D0995892BA9F307C0263784
:10234000310519F12835310509F41D8289A99AA9A9
:10235000DC01ED91FC910480F581E02D09951816C2
:10236000190694F489A99AA9DC01ED91FC910680E3
:10237000F781E02D09959C01332723363105F9F6C5
:10238000612FCE010E946A1183E6DF91CF911F91E8
:1023900008950F931F93CF93DF931F92CDB7DEB7AE
:1023A0008C01662349F081E0F801858360E0C80173
:1023B00049830E948B114981F80145830F90DF9179
:1023C000CF911F910F9108958091A90390E02091E2
:1023D000AA03821B910908952091AA038091A90361
:1023E000281750F4E22FF0E0E555FC4F808190E093
:1023F0002F5F2093AA0308958FEF9FEF0895E09138
:10240000AA038091A903E81730F4F0E0E555FC4FEA
:10241000808190E008958FEF9FEF08950895CF9207
:10242000DF92EF92FF920F931F93CF93DF937C0184
:10243000CB018A0120918503222389F0EB016B01F6
:10244000C40ED51ECC15DD0569F06991D701ED915B
:10245000FC910190F081E02DC7010995F3CF642F25
:102460000E94CC13C801DF91CF911F910F91FF9073
:10247000EF90DF90CF900895CF93DF931F92CDB769
:10248000DEB76983209185032223D1F02091860352
:10249000203240F021E030E0FC013383228380E0F1
:1024A00090E015C080918703E82FF0E0E857FC4FDB
:1024B000998190838F5F809387038093860305C003
:1024C00061E0CE0101960E94CC1381E090E00F9074
:1024D000DF91CF910895FC011382128248EE53E000
:1024E00060E070E0448355836683778381E292E005
:1024F0009183808308951092AA031092A9031092E9
:102500008703109286030C940F1381E08093850358
:102510006093A803109287031092860308950C9489
:1025200085120F93062F21E04091860368E873E03F
:102530008091A8030E94751310928703109286035E
:10254000109285030F9108958F929F92AF92BF9240
:10255000CF92DF92EF92FF920F931F93CF93DF936F
:10256000EC01F62ED42E48015901EE2019F10E94FB
:1025700085121E2D143008F013E01150B8F0E881D8
:10258000F98128E0129FB0011124A501940104C033
:1025900056954795379527956A95D2F7CA01B9019F
:1025A0000190F081E02DCE010995E7CF60E0CE01EA
:1025B0000E9491124D2D413208F040E22C2D6BEA21
:1025C00073E08F2D0E942D131092AA038093A9030C
:1025D000DF91CF911F910F91FF90EF90DF90CF90FF
:1025E000BF90AF909F908F900895CF92EF920F93EE
:1025F0001F93C22EE12C00E010E098010E94A4126B
:102600001F910F91EF90CF90089521E00C94F51257
:1026100061E00C94911289E793E00C946B12109294
:10262000380481E0809336041092350461E082E141
:102630000E94CA1661E083E10E94CA16E9EBF0E04D
:1026400080818E7F808380818D7F808388E48093EA
:10265000B80085E48093BC000895413208F043C07F
:10266000909138049111FCCF91E09093380420931D
:1026700036042FEF2093CB0310921004240F2093E5
:102680000F049093370490913704880F892B80931F
:10269000370480913504813061F4109235048091C3
:1026A00037048093BB008091BC0083FDF8CF85EC9C
:1026B00001C085EE8093BC00809138048130E1F345
:1026C00080911004841710F44091100421E134E04B
:1026D000FB01D9018A2F821B841718F48D918193F5
:1026E000F9CF842F089580E008950F93413208F0C8
:1026F0004AC0909138049111FCCF92E09093380435
:10270000009336049FEF9093CB03109210044093F4
:102710000F04FB0161E174E0DB019A2F961B941713
:1027200018F491919D93F9CF10923704909137044A
:10273000880F892B8093370480913504813061F4B0
:1027400010923504809137048093BB008091BC00C7
:1027500083FDF8CF85EC01C085EE8093BC00222379
:1027600021F0809138048230E1F38091CB038F3FD8
:1027700061F08091CB03803251F08091CB038033A4
:1027800041F483E007C081E005C080E003C082E03F
:1027900001C084E00F910895613298F420913804CB
:1027A000243089F46093ED03FC018FEE93E0DC01AB
:1027B0002A2F281B261718F421912D93F9CF80E09A
:1027C000089581E0089582E0089585ED8093BC002E
:1027D0008091BC0084FDFCCF10923804089585ECF4
:1027E0008093BC001092380408951F920F920FB688
:1027F0000F9211242F933F934F935F936F937F9387
:102800008F939F93AF93BF93EF93FF938091B90002
:10281000887F803609F49EC078F5883209F45DC05F
:1028200090F4803109F456C038F4882309F4F5C0D7
:10283000883009F44FC0F5C0883109F44EC08032A9
:1028400009F45FC0EEC0803409F46AC058F48033E4
:1028500009F457C0883309F0E4C08093CB030E9489
:10286000EF13DFC0803509F44FC0883509F45DC02F
:10287000883409F0D6C0D3C0883909F4C4C0A8F49C
:10288000883709F467C038F4883609F463C08037A4
:1028900009F460C0C6C0883809F4B5C0803909F4AD
:1028A0005FC0803809F0BDC05BC0803B09F483C0C5
:1028B00038F4803A09F466C0883A09F47CC0B1C0A3
:1028C000803C09F4A4C0883C09F4A1C0883B09F409
:1028D00087C0A7C08091370410C0909110048091E8
:1028E0000F04981770F5E091100481E08E0F80932B
:1028F0001004F0E0EF5EFB4F80818093BB0085EC1D
:1029000083C08093CB038BC0E091100481E08E0FD5
:10291000809310048091BB00F0E0EF5EFB4F80835A
:102920009091100480910F046BC0E091100481E03D
:102930008E0F809310048091BB00F0E0EF5EFB4FA0
:1029400080838091360481116AC081E080933504D0
:1029500084EA5EC083E0809338041092CC03CFCF2A
:102960008091CC03803208F04EC0E091CC0381E02E
:102970008E0F8093CC038091BB00F0E0E353FC4FBB
:102980008083BDCF0E94EF138091CC03803230F45E
:10299000E091CC03F0E0E353FC4F10826091CC0354
:1029A00070E0E0913104F09132048DEC93E00995F0
:1029B0001092CC0336C084E0809338041092EE036A
:1029C0001092ED03E0913304F09134040995809165
:1029D000ED03811105C081E08093ED031092EF03B8
:1029E000E091EE0381E08E0F8093EE03F0E0E15181
:1029F000FC4F80818093BB009091EE038091ED03AA
:102A0000981708F47CCF85E88093BC000AC085EC59
:102A10008093BC001092380404C01092CB030E9433
:102A2000E513FF91EF91BF91AF919F918F917F91AE
:102A30006F915F914F913F912F910F900FBE0F902B
:102A40001F9018951F920F920FB60F9211242F937B
:102A50003F938F939F93AF93BF9380913A0490914C
:102A60003B04A0913C04B0913D043091390423E033
:102A7000230F2D3720F40196A11DB11D05C026E8B6
:102A8000230F0296A11DB11D2093390480933A04AF
:102A900090933B04A0933C04B0933D0480913E048A
:102AA00090913F04A0914004B09141040196A11D72
:102AB000B11D80933E0490933F04A0934004B093D3
:102AC0004104BF91AF919F918F913F912F910F90B2
:102AD0000FBE0F901F9018952FB7F89460913A048D
:102AE00070913B0480913C0490913D042FBF089568
:102AF0003FB7F89480913E0490913F04A091400428
:102B0000B091410426B5A89B05C02F3F19F001964E
:102B1000A11DB11D3FBF6627782F892F9A2F620F05
:102B2000711D811D911D42E0660F771F881F991F3F
:102B30004A95D1F70895CF92DF92EF92FF92CF930B
:102B4000DF936B017C010E947815EB01C114D10465
:102B5000E104F10489F00E94801A0E9478156C1B30
:102B60007D0B683E734090F381E0C81AD108E108FC
:102B7000F108C851DC4FEACFDF91CF91FF90EF9081
:102B8000DF90CF9008958230910538F0880F991F1B
:102B9000880F991F05970197F1F70895789484B5E8
:102BA000826084BD84B5816084BD85B5826085BD49
:102BB00085B5816085BDEEE6F0E08081816080832F
:102BC000E1E8F0E010828081826080838081816012
:102BD0008083E0E8F0E0808181608083E1EBF0E0D9
:102BE000808184608083E0EBF0E08081816080837D
:102BF000EAE7F0E080818460808380818260808366
:102C00008081816080838081806880831092C10090
:102C100008951F93CF93DF93182FEB0161E00E947B
:102C20009116209711F460E004C0CF3FD10539F42C
:102C300061E0812FDF91CF911F910C94CA16E12F93
:102C4000F0E0E859FF4FE491E330F9F048F4E13067
:102C5000B9F0E230A1F584B5806284BDC8BD34C04E
:102C6000E730E9F0E83019F1E43049F5809180006F
:102C7000806280938000D0938B00C0938A0024C030
:102C800084B5806884BDC7BD1FC080918000806806
:102C900080938000D0938900C093880015C08091F4
:102CA000B00080688093B000C093B3000DC08091E5
:102CB000B00080628093B000C093B40005C0C038FB
:102CC000D1050CF0B5CFAFCFDF91CF911F91089513
:102CD000833081F028F4813099F08230A1F008959A
:102CE0008730A9F08830B9F08430D1F48091800029
:102CF0008F7D03C0809180008F778093800008953E
:102D000084B58F7702C084B58F7D84BD089580918E
:102D1000B0008F7703C08091B0008F7D8093B000AA
:102D20000895CF93DF9390E0FC01E458FF4F249186
:102D3000FC01E057FF4F8491882349F190E0880F10
:102D4000991FFC01E854FF4FA591B49182559F4F04
:102D5000FC01C591D4919FB7611108C0F8948C9182
:102D6000209582238C93888182230AC0623051F49B
:102D7000F8948C91322F309583238C938881822B09
:102D8000888304C0F8948C91822B8C939FBFDF9131
:102D9000CF9108950F931F93CF93DF931F92CDB7D9
:102DA000DEB7282F30E0F901E859FF4F8491F9018F
:102DB000E458FF4F1491F901E057FF4F04910023AD
:102DC000C9F0882321F069830E9468166981E02F89
:102DD000F0E0EE0FFF1FE255FF4FA591B4919FB7B2
:102DE000F8948C91611103C01095812301C0812B4F
:102DF0008C939FBF0F90DF91CF911F910F910895FA
:102E0000CF93DF93282F30E0F901E859FF4F8491E9
:102E1000F901E458FF4FD491F901E057FF4FC491F5
:102E2000CC2391F081110E946816EC2FF0E0EE0F98
:102E3000FF1FEC55FF4FA591B4912C912D2381E0FC
:102E400090E021F480E002C080E090E0DF91CF913B
:102E50000895FC01818D228D90E0805C9F4F821B44
:102E600091098F7399270895FC01918D828D981790
:102E700031F0828DE80FF11D858D90E008958FEF80
:102E80009FEF0895FC01918D828D981761F0828DDE
:102E9000DF01A80FB11D5D968C91928D9F5F9F738E
:102EA000928F90E008958FEF9FEF089586EC98E160
:102EB000892B49F080E090E0892B29F00E94C61808
:102EC00081110C9400000895FC01848DDF01A80F8E
:102ED000B11DA35ABF4F2C91848D90E001968F7342
:102EE0009927848FA689B7892C93A089B1898C9161
:102EF00080648C93938D848D981306C00288F38927
:102F0000E02D80818F7D80830895CF93DF93EC0146
:102F1000888D8823C9F0EA89FB89808185FD05C0F9
:102F2000A889B9898C9186FD0FC00FB607FCF5CF33
:102F3000808185FFF2CFA889B9898C9185FFEDCF7B
:102F4000CE010E946417E7CFDF91CF910895CF9211
:102F5000DF92FF920F931F93CF93DF931F92CDB712
:102F6000DEB76C0181E0D60158968C9358975B963A
:102F70009C915B975C968C915C97981307C05096D8
:102F8000ED91FC915197808185FD2EC0F601038D56
:102F900010E00F5F1F4F0F731127F02EF601848D85
:102FA000F81211C00FB607FCF9CFD6015096ED917B
:102FB000FC915197808185FFF1CFC60169830E9402
:102FC00064176981EBCF838DE80FF11DE35AFF4F42
:102FD0006083D6015B960C935B975296ED91FC91C2
:102FE0005397808180620CC0D6015696ED91FC917A
:102FF000579760835096ED91FC9151978081806442
:10300000808381E090E00F90DF91CF911F910F912D
:10301000FF90DF90CF900895BF92CF92DF92EF9212
:10302000FF92CF93DF93EC016A017B01B22EE88916
:10303000F98982E08083411581EE580761057105A9
:10304000A1F060E079E08DE390E0A70196010E9495
:10305000BC1C2150310941095109569547953795B6
:103060002795211580E1380798F0E889F9891082C1
:1030700060E874E88EE190E0A70196010E94BC1C14
:1030800021503109410951095695479537952795A2
:10309000EC85FD853083EE85FF852083188EEC89D5
:1030A000FD89B082EA89FB89808180618083EA8919
:1030B000FB89808188608083EA89FB8980818068C0
:1030C0008083EA89FB8980818F7D8083DF91CF9126
:1030D000FF90EF90DF90CF90BF9008951F920F92D6
:1030E0000FB60F9211242F938F939F93EF93FF931B
:1030F000E0915204F09153048081E0915804F091E2
:10310000590482FD12C0908180915B048F5F8F73A0
:1031100020915C04821751F0E0915B04F0E0EE5BDB
:10312000FB4F958F80935B0401C08081FF91EF91ED
:103130009F918F912F910F900FBE0F901F90189518
:103140001F920F920FB60F9211242F933F934F931C
:103150005F936F937F938F939F93AF93BF93EF93FF
:10316000FF9382E494E00E946417FF91EF91BF9176
:10317000AF919F918F917F916F915F914F913F910F
:103180002F910F900FBE0F901F90189582E494E03E
:103190000E94291721E0892B09F420E0822F08954D
:1031A000109245041092440488EE93E0A0E0B0E051
:1031B0008093460490934704A0934804B093490435
:1031C00081E392E0909343048093420485EC90E085
:1031D00090934F0480934E0484EC90E090935104BC
:1031E0008093500480EC90E09093530480935204B9
:1031F00081EC90E0909355048093540482EC90E02D
:10320000909357048093560486EC90E09093590471
:103210008093580410925B0410925C0410925D0439
:1032200010925E04089508950E94CE150E9413190D
:103230000E948E00C6E5D7E10E9467042097E1F363
:103240000E945617F9CFCF92DF92EF92FF920F9321
:103250001F93CF93DF937C016A01EB0100E010E044
:103260000C151D0571F06991D701ED91FC9101904C
:10327000F081E02DC7010995892B19F00F5F1F4FD1
:10328000EFCFC801DF91CF911F910F91FF90EF9089
:10329000DF90CF9008956115710581F0DB010D90ED
:1032A0000020E9F7AD0141505109461B570BDC01E5
:1032B000ED91FC910280F381E02D099480E090E093
:1032C00008950C944B19DC01ED91FC910190F08173
:1032D000E02D099462ED71E00C944B190F931F934C
:1032E000CF93DF93EC010E944B198C01CE010E9419
:1032F0006A19800F911FDF91CF911F910F9108954F
:103300008F929F92AF92BF92CF92DF92EF92FF92F5
:103310000F931F93CF93DF93CDB7DEB7A1970FB66F
:10332000F894DEBF0FBECDBF7C01C42EE52FCB01CC
:10333000D22E19A221E02D1510F02AE0D22E8E01F6
:103340000F5D1F4F8D2C912CA12CB12C6C2D7E2F3D
:10335000A50194010E94BC1C8C2DD29E80191124C1
:10336000015011098A3014F4805D01C0895CF801B4
:103370008083211531054105510521F0C22EE32F2F
:10338000CA01E4CFB801C7010E944B19A1960FB63C
:10339000F894DEBF0FBECDBFDF91CF911F910F918B
:1033A000FF90EF90DF90CF90BF90AF909F908F9065
:1033B0000895CF92DF92EF92FF920F931F93CF93D6
:1033C000DF93EC016A017B012115310579F4E88175
:1033D000F9810190F081E02D642FDF91CF911F9151
:1033E0000F91FF90EF90DF90CF9009942A30310534
:1033F000E9F477FF1AC06DE20E9463198C0144273B
:103400005527BA014C195D096E097F092AE0CE01E2
:103410000E948019800F911FDF91CF911F910F9112
:10342000FF90EF90DF90CF9008952AE0B701A601BA
:10343000CE01DF91CF911F910F91FF90EF90DF9020
:10344000CF900C9480199A01AB01662757FD6095C7
:10345000762F0C94D9190F931F93CF93DF93EC0120
:103460009A01AB01662757FD6095762F0E94D91906
:103470008C01CE010E946A19800F911FDF91CF91BC
:103480001F910F9108952115310541F4DC01ED9153
:10349000FC910190F081E02D642F09940C94801927
:1034A0009A01462F50E060E070E00C94431A0F93AD
:1034B0001F93CF93DF93EC019A01462F50E060E019
:1034C00070E00E94431A8C01CE010E946A19800F9D
:1034D000911FDF91CF911F910F9108950F931F932B
:1034E000CF93DF93EC010E94431A8C01CE010E941E
:1034F0006A19800F911FDF91CF911F910F9108954D
:1035000008955058BB27AA270ED075C166D130F058
:103510006BD120F031F49F3F11F41EF45BC10EF427
:10352000E095E7FB51C1E92F77D180F3BA17620725
:1035300073078407950718F071F49EF58FC10EF498
:10354000E0950B2EBA2FA02D0B01B90190010C01B3
:10355000CA01A0011124FF27591B99F0593F50F4CB
:10356000503E68F11A16F040A22F232F342F442723
:10357000585FF3CF469537952795A795F04053951B
:10358000C9F77EF41F16BA0B620B730B840BBAF0EB
:103590009150A1F0FF0FBB1F661F771F881FC2F756
:1035A0000EC0BA0F621F731F841F48F4879577956A
:1035B0006795B795F7959E3F08F0B3CF9395880F21
:1035C00008F09927EE0F979587950895D9D008F4BC
:1035D00081E008950CD00FC107D140F0FED030F04B
:1035E00021F45F3F19F0F0C0511139C1F3C014D17B
:1035F00098F39923C9F35523B1F3951B550BBB27BA
:10360000AA2762177307840738F09F5F5F4F220F66
:10361000331F441FAA1FA9F333D00E2E3AF0E0E85F
:1036200030D091505040E695001CCAF729D0FE2FAB
:1036300027D0660F771F881FBB1F2617370748073D
:10364000AB07B0E809F0BB0B802DBF01FF279358F3
:103650005F4F2AF09E3F510568F0B6C000C15F3F42
:10366000ECF3983EDCF3869577956795B795F795DB
:103670009F5FC9F7880F911D9695879597F90895D3
:10368000E1E0660F771F881FBB1F6217730784076F
:10369000BA0720F0621B730B840BBA0BEE1F88F77E
:1036A000E095089504D06894B111D9C00895BCD0B4
:1036B00088F09F5790F0B92F9927B751A0F0D1F01B
:1036C000660F771F881F991F1AF0BA95C9F712C0A5
:1036D000B13081F0C3D0B1E00895C0C0672F782F1A
:1036E0008827B85F39F0B93FCCF386957795679511
:1036F000B395D9F73EF490958095709561957F4F7D
:103700008F4F9F4F0895E89409C097FB3EF4909522
:103710008095709561957F4F8F4F9F4F9923A9F0AA
:10372000F92F96E9BB279395F69587957795679539
:10373000B795F111F8CFFAF4BB0F11F460FF1BC07D
:103740006F5F7F4F8F4F9F4F16C0882311F096E910
:1037500011C0772321F09EE8872F762F05C06623BE
:1037600071F096E8862F70E060E02AF09A95660F77
:10377000771F881FDAF7880F9695879597F9089530
:10378000990F0008550FAA0BE0E8FEEF1616170672
:10379000E807F907C0F012161306E407F50798F0DA
:1037A000621B730B840B950B39F40A2661F0232BF3
:1037B000242B252B21F408950A2609F4A140A6956F
:1037C0008FEF811D811D089597F99F6780E870E054
:1037D00060E008959FEF80EC089500240A94161687
:1037E000170618060906089500240A9412161306EF
:1037F000140605060895092E0394000C11F488237D
:1038000052F0BB0F40F4BF2B11F460FF04C06F5F98
:103810007F4F8F4F9F4F089557FD9058440F551F6E
:1038200059F05F3F71F04795880F97FB991F61F042
:103830009F3F79F087950895121613061406551FB9
:10384000F2CF4695F1DF08C0161617061806991F25
:10385000F1CF86957105610508940895E894BB271A
:1038600066277727CB0197F908950BD0C4CFB5DF32
:1038700028F0BADF18F0952309F0A6CFABCF1124BA
:10388000EECFCADFA0F3959FD1F3950F50E0551FFF
:10389000629FF001729FBB27F00DB11D639FAA27A5
:1038A000F00DB11DAA1F649F6627B00DA11D661FF4
:1038B000829F2227B00DA11D621F739FB00DA11D15
:1038C000621F839FA00D611D221F749F3327A00DCF
:1038D000611D231F849F600D211D822F762F6A2F6B
:1038E00011249F5750408AF0E1F088234AF0EE0FF0
:1038F000FF1FBB1F661F771F881F91505040A9F7FD
:103900009E3F510570F060CFAACF5F3FECF3983E29
:10391000DCF3869577956795B795F795E7959F5F63
:10392000C1F7FE2B880F911D9695879597F90895FD
:10393000DB018F939F930E94DE1CBF91AF91A29FEA
:10394000800D911DA39F900DB29F900D112408959D
:1039500097FB072E16F4009407D077FD09D00E943C
:10396000201D07FC05D03EF4909581959F4F08954A
:10397000709561957F4F0895A1E21A2EAA1BBB1B7B
:10398000FD010DC0AA1FBB1FEE1FFF1FA217B3072B
:10399000E407F50720F0A21BB30BE40BF50B661F41
:1039A000771F881F991F1A9469F760957095809505
:1039B00090959B01AC01BD01CF0108950E943A1D75
:1039C000A59F900DB49F900DA49F800D911D112473
:1039D00008950F93083090F0982F872F762F652F3A
:1039E000542F432F322F22270850F4CF220F331F9A
:1039F000441F551F661F771F881F991F0A95B2F72E
:103A00000F91089597FB10F8169400080F93083053
:103A100098F00850232F342F452F562F672F782FDB
:103A2000892F902DF4CF0594979587957795679575
:103A300057954795379527950A95AAF70F910895B9
:103A4000AA1BBB1B51E107C0AA1FBB1FA617B707C4
:103A500010F0A61BB70B881F991F5A95A9F78095E0
:103A60009095BC01CD010895EE0FFF1F0590F491D4
:103A7000E02D0994A29FB001B39FC001A39F700DD8
:103A8000811D1124911DB29F700D811D1124911D66
:063A90000895F894FFCF39
:103A96000700564D4450565F317C315F564D4450B9
:103AA600560D0A0053746172743A20005369676EAA
:103AB600616C3A204E45433A2000534F4E593A2006
:103AC600005243353A20005243363A2000554E4BB9
:103AD6004E4F574E3A20005475726E2057686974DF
:103AE60065204F4E005475726E20576869746520C4
:103AF6004F464600666C617368004E6577207468B1
:103B0600726573686F6C64200053656E7420526131
:103B1600772E0053656E64696E672000202000537F
:103B2600656E64696E6720524742204F4E006E658F
:103B360077206C7578313A200053656E64696E673C
:103B460020524742204F4646004C696768743A2027
:103B560000206C7800564D4450435F005F564D443C
:103B660050430D0A004572726F723A2041747465B3
:103B76006D707420746F20736574206120726561A6
:103B8600642D6F6E6C79207661726961626C652056
:103B96006F7220646174612074797065206E6F7431
:103BA60020737570706F727465640D0A00000000F2
:103BB600003C120F12E411EC11FF110E120000006E
:103BC60000A717231929174217341785176E616E38
:0A3BD60000696E66006F766600005D
:00000001FF
