:100000000C9462000C948A000C948A000C948A0070
:100010000C948A000C948A000C948A000C940804B6
:100020000C948A000C948A000C948A000C948A0028
:100030000C948A000C948A000C948A000C948A0018
:100040000C94BE030C948A000C94B4020C948E029F
:100050000C948A000C948A000C948A000C948A00F8
:100060000C9406050C948A0000000000250028006E
:100070002B0000000000240027002A0004040404D0
:100080000404040402020202020203030303030342
:10009000010204081020408001020408102001021F
:1000A00004081020000000002300260029000000A2
:1000B0000008000201000003040700000000000027
:1000C0000000D61411241FBECFEFD8E0DEBFCDBF95
:1000D00011E0A0E0B1E0ECEFFFE202C005900D926C
:1000E000AA3DB107D9F724E0AAEDB1E001C01D9205
:1000F000AB38B207E1F710E0C2E6D0E004C02197C8
:10010000FE010E946C15C136D107C9F70E94A90AE9
:100110000C94FC170C940000FC01918D828D9817B3
:1001200061F0828DDF01A80FB11D5D968C91928DDB
:100130009F5F9F73928F90E008958FEF9FEF0895D8
:10014000FC01918D828D981731F0828DE80FF11DA1
:10015000858D90E008958FEF9FEF0895FC01918DBC
:10016000228D892F90E0805C9F4F821B91098F73B5
:100170009927089586EB92E00E94AE0021E0892B3A
:1001800009F420E0822F0895FC01848DDF01A80F7F
:10019000B11DA35ABF4F2C91848D90E001968F73AF
:1001A0009927848FA689B7892C93A089B1898C91CE
:1001B00080648C93938D848D981306C00288F38994
:1001C000E02D80818F7D80830895EF92FF920F93C1
:1001D0001F93CF93DF93EC0181E0888F9B8D8C8DF3
:1001E000981305C0E889F989808185FD24C0F62E21
:1001F0000B8D10E00F5F1F4F0F731127E02E8C8DBA
:10020000E8120CC00FB607FCFACFE889F9898081A3
:1002100085FFF5CFCE010E94C400F1CF8B8DFE018A
:10022000E80FF11DE35AFF4FF0820B8FEA89FB893B
:100230008081806207C0EE89FF896083E889F9893F
:1002400080818064808381E090E0DF91CF911F9175
:100250000F91FF90EF900895CF93DF93EC01888D7D
:100260008823C9F0EA89FB89808185FD05C0A889BA
:10027000B9898C9186FD0FC00FB607FCF5CF808140
:1002800085FFF2CFA889B9898C9185FFEDCFCE018A
:100290000E94C400E7CFDF91CF91089580E090E005
:1002A000892B29F00E94BA0081110C940000089556
:1002B000833081F028F4813099F08230A1F00895E4
:1002C0008730A9F08830B9F08430D1F48091800073
:1002D0008F7D03C0809180008F7780938000089588
:1002E00084B58F7702C084B58F7D84BD08958091D9
:1002F000B0008F7703C08091B0008F7D8093B000F5
:100300000895CF93DF93282F30E0F901E255FF4F96
:100310008491F901E057FF4FD491F901E458FF4F60
:10032000C491CC2391F081110E945801EC2FF0E090
:10033000EE0FFF1FEC55FF4FA591B491EC91ED230B
:1003400081E090E021F480E002C080E090E0DF9165
:10035000CF9108953FB7F894809157029091580239
:10036000A0915902B0915A0226B5A89B05C02F3F13
:1003700019F00196A11DB11D3FBFBA2FA92F982FCB
:100380008827820F911DA11DB11DBC01CD0142E046
:10039000660F771F881F991F4A95D1F7089585ED3D
:1003A0008093BC008091BC0084FDFCCF1092810240
:1003B000089540913102262F30E0240F311D213263
:1003C0003105DCF4209181022430C9F4FC0180E085
:1003D00090E0861758F4309131022191DC01A15F41
:1003E000BD4FA30FB11D2C930196F3CF8091310225
:1003F000680F6093310280E0089581E0089582E003
:1004000008950895E091DB018091DA01E81730F456
:10041000F0E0E151FE4F808190E008958FEF9FEF73
:1004200008959091DB018091DA01981750F4E92F3B
:10043000F0E0E151FE4F208130E09F5F9093DB01BF
:1004400002C02FEF3FEFC90108958091DA0190E0DB
:100450002091DB01821B91090895CF92DF92EF92E8
:10046000FF920F931F93CF93DF937C01262F972F3B
:100470008A0180918202882391F0C62FD72F6E01C6
:10048000C40ED51ECC15DD0571F06991D701ED9133
:10049000FC910190F081E02DC7010995F3CF642F05
:1004A000822F0E94D901C801DF91CF911F910F9136
:1004B000FF90EF90DF90CF900895CF93DF931F923E
:1004C000CDB7DEB76983209182022223D1F020913B
:1004D000A502203240F021E030E0FC01338322838A
:1004E00080E090E015C080918302E82FF0E0EC57A7
:1004F000FD4F998190838F5F809383028093A50243
:1005000005C061E0CE0101960E94D90181E090E032
:100510000F90DF91CF9108950E9487161F920F923E
:100520000FB60F9211242F933F934F935F936F93C6
:100530007F938F939F93AF93BF93EF93FF9386EB3C
:1005400092E00E94C400FF91EF91BF91AF919F9103
:100550008F917F916F915F914F913F912F910F906C
:100560000FBE0F901F9018951F920F920FB60F920B
:1005700011242F938F939F93EF93FF93E091C602E3
:10058000F091C7028081E091CC02F091CD0282FD12
:1005900012C090818091CF028F5F8F732091D00223
:1005A000821751F0E091CF02F0E0EA54FD4F958FB1
:1005B0008093CF0201C08081FF91EF919F918F9135
:1005C0002F910F900FBE0F901F9018951F93CF93F0
:1005D000DF93282F30E0F901E255FF4F8491F901B4
:1005E000E057FF4FD491F901E458FF4FC491CC2359
:1005F000C9F0162F81110E945801EC2FF0E0EE0F88
:10060000FF1FE859FF4FA591B4918FB7F8941111CE
:1006100005C09C91ED2FE095E92302C0EC91ED2BF4
:10062000EC938FBFDF91CF911F910895482F50E039
:10063000FA01E057FF4F9491FA01E458FF4F2491DB
:10064000222399F030E0220F331FF901EE58FF4FBB
:10065000A591B491F901E859FF4F259134912FB735
:10066000F894EC91E92BEC932FBF6115710511F40F
:1006700060E004C06F3F710519F461E00C94E6027C
:10068000FA01E255FF4FE491E330F9F048F4E1302C
:10069000B9F0E230A1F584B5806284BD68BD0895EB
:1006A000E730E9F0E83019F1E43049F58091800055
:1006B00080628093800070938B0060938A0008951D
:1006C00084B5806884BD67BD08958091800080688E
:1006D00080938000709389006093880008958091D2
:1006E000B00080688093B0006093B300089580915B
:1006F000B00080628093B0006093B40008956038C9
:1007000071050CF0BACFB4CF8F929F92AF92BF9287
:10071000CF92DF92EF92FF926B017C010E94AA01BF
:100720004B015C01C114D104E104F104F1F00E9419
:10073000AA01DC01CB0188199909AA09BB09883EE5
:100740009340A105B10570F321E0C21AD108E10878
:10075000F10888EE880E83E0981EA11CB11CC1141C
:10076000D104E104F10419F7DDCFFF90EF90DF90A1
:10077000CF90BF90AF909F908F9008951F920F924F
:100780000FB60F9211242F933F938F939F93AF93A4
:10079000BF938091DC019091DD01A091DE01B091C9
:1007A000DF013091560223E0230F2D3720F401960C
:1007B000A11DB11D05C026E8230F0296A11DB11D84
:1007C000209356028093DC019093DD01A093DE011B
:1007D000B093DF018091570290915802A091590285
:1007E000B0915A020196A11DB11D809357029093BA
:1007F0005802A0935902B0935A02BF91AF919F91B2
:100800008F913F912F910F900FBE0F901F901895D1
:100810001F920F920FB60F9211242F933F934F9375
:100820005F936F937F938F939F93AF93BF93EF9358
:10083000FF938091A8030E9481012091AC03309125
:10084000AD032F5F3F4F3093AD032093AC039091E6
:10085000AB03953618F096E09093A7039091A70309
:100860009430C9F128F4923069F09330D1F05EC031
:10087000953009F451C0963009F058C091E090933A
:10088000780451C0811152C02091AC033091AD0366
:100890002436310508F442C0109278041092AB035C
:1008A0001CC0813009F042C0E091AB0391E09E0F83
:1008B0009093AB03F0E02091AC033091AD03EE0FC9
:1008C000FF1FE955FC4F308727831092AD0310922C
:1008D000AC0394E029C0811117C0E091AB0391E013
:1008E0009E0F9093AB03F0E02091AC033091AD03E9
:1008F000EE0FFF1FE955FC4F308727831092AD03A1
:100900001092AC0393E010C02091AC033091AD0382
:100910002536310558F007C0811108C01092AD038B
:100920001092AC0303C095E09093A7039091AA03A3
:100930009923B9F081110AC08091A903882321F07D
:100940008091A90361E009C02D9A0BC08091A90391
:10095000882331F08091A90360E00E94E60201C083
:100960002D98FF91EF91BF91AF919F918F917F91C2
:100970006F915F914F913F912F910F900FBE0F900C
:100980001F901895CF92DF92EF92FF92CF93DF9353
:10099000EC01072E000C880B990B0E9493166B013B
:1009A0007C0120E030E040E45FE30E94F21620E0AA
:1009B00030E048E452E40E94DF150E945116C61749
:1009C000D707D4F020E030E040EA5FE3C701B6018A
:1009D0000E94F21620E030E048E452E40E94DF1565
:1009E00020E030E040E85FE30E9473150E9451165A
:1009F00021E06C177D070CF420E0822F90E0DF915E
:100A0000CF91FF90EF90DF90CF9008951F920F92BB
:100A10000FB60F9211242F933F934F935F936F93D1
:100A20007F938F939F93AF93BF93EF93FF938091A7
:100A3000B900887F803609F49CC068F5883209F4D3
:100A40005BC090F4803109F454C038F4882309F471
:100A5000F6C0883009F44DC0F6C0883109F44CC0A6
:100A6000803209F45DC0EFC0803409F468C048F4F6
:100A7000803309F455C0883309F0E5C080937F02C4
:100A8000D8C0803509F44FC0883509F45DC088347A
:100A900009F0D9C0D6C0883909F4C7C0A8F488378E
:100AA00009F467C038F4883609F463C0803709F464
:100AB00060C0C9C0883809F4B8C0803909F45FC083
:100AC000803809F0C0C05BC0803B09F486C038F4B0
:100AD000803A09F466C0883A09F47FC0B4C0803C0B
:100AE00009F4A7C0883C09F4A4C0883B09F48AC073
:100AF000AAC080915C0210C090917E0280917D021C
:100B0000981770F5E0917E0281E08E0F80937E024F
:100B1000F0E0E35AFD4F80818093BB0085EC86C0F6
:100B200080937F028EC0E0917E0281E08E0F8093E1
:100B30007E028091BB00F0E0E35AFD4F80839091EC
:100B40007E0280917D026EC0E0917E0281E08E0F78
:100B500080937E028091BB00F0E0E35AFD4F8083DA
:100B60008091800281116DC081E080935B0284EAF4
:100B700061C083E08093810210925502CFCF8091B3
:100B80005502803208F051C0E091550281E08E0F8D
:100B9000809355028091BB00F0E0EB5CFD4F8083B9
:100BA000BDCF85EC8093BC001092810280915502EC
:100BB000803230F4E0915502F0E0EB5CFD4F1082A2
:100BC0006091550270E0E0913302F091340285E3C8
:100BD00092E009951092550236C084E0809381021C
:100BE0001092320210923102E0912F02F091300205
:100BF000099580913102811105C081E08093310215
:100C000010920F02E091320281E08E0F8093320247
:100C1000F0E0E15FFD4F80818093BB009091320254
:100C200080913102981708F479CF85E88093BC0051
:100C30000AC085EC8093BC001092810204C010921F
:100C40007F020E94CF01FF91EF91BF91AF919F91E1
:100C50008F917F916F915F914F913F912F910F9065
:100C60000FBE0F901F9018950F931F93CF93DF9394
:100C70008C01C0E0D0E0C017D107F4F461E871E066
:100C800086EB92E00E94A70A60E070E08AE00E9492
:100C9000160368EC70E080E090E00E9484036FEF40
:100CA00070E08AE00E94160368EC70E080E090E05B
:100CB0000E9484032196DFCF6091000170E08AE0FA
:100CC0000E94160384E391E0DF91CF911F910F9171
:100CD0000C940C0A0F931F93CF93DF931F92CDB701
:100CE000DEB767E871E086EB92E00E94A70A4091C8
:100CF000E10150E060E070E02AE086EB92E00E94C3
:100D00001F0A6CE871E086EB92E00E94A70A40910E
:100D1000E20150E060E070E02AE086EB92E00E94A1
:100D20001F0A6CE871E086EB92E00E94A70A4091EE
:100D3000E30150E060E070E02AE086EB92E00E9480
:100D40001F0A62E371E086EB92E00E94F70930919E
:100D5000E1012091E2014091E301032F0F71000FA7
:100D6000000F000F65E5102F169F010E10E0111DFA
:100D70001124932F9074832F807237FD20C091111E
:100D80000BC0811104C0912F9095312F10C035E513
:100D9000310F00E01BEA37C081110CC03AEA039F13
:100DA000000E00E0011D11249BEA901B310F192F4A
:100DB00000E029C080E0312F3095012F0FC0911144
:100DC00012C081110DC0602F3AEA639F060E60E0E9
:100DD000611D11243BEA361B05E5060F10E013C028
:100DE000012F00950FC0811107C095E5910F6BEAA7
:100DF000062F011B192F06C08AEA810F90E0062FEB
:100E0000011B182F30E02F3F11F12223E9F01123AD
:100E100021F0129F010E10E0111D332321F0329FAB
:100E2000030E30E0311D002321F0029F000E00E090
:100E3000011D11242095229F020E20E0211D112466
:100E4000120F320F020F03C00FEF3FEF1FEF4F3FA4
:100E500009F420C020E0442321F0449F212D09F013
:100E60002F5F2223A1F0112321F0129F010E10E029
:100E7000111D332321F0329F030E30E0311D00237A
:100E800021F0029F000E00E0011D112403C000E0CC
:100E900030E010E06FE871E086EB92E039830E9469
:100EA000A70A412F50E060E070E02AE086EB92E074
:100EB0000E941F0A6CE871E086EB92E00E94A70A8C
:100EC0003981432F50E060E070E02AE086EB92E049
:100ED0000E941F0A6CE871E086EB92E00E94A70A6C
:100EE000402F50E060E070E02AE086EB92E00E9444
:100EF0001F0A62E371E086EB92E00E94F709612F1E
:100F000070E089E00E9416033981632F70E085E06C
:100F10000E941603602F70E086E00E94160381E0B5
:100F20008093E0010F90DF91CF911F910F91089571
:100F300060E070E089E00E94160360E070E085E008
:100F40000E94160360E070E086E00E941603109293
:100F5000E0010895CF93DF938CE991E00E940C0AA1
:100F60008091EE0190910001C82FD0E08917C8F45C
:100F70008091000190E08C179D0784F1BE018AE00A
:100F80000E941603CE010E94680A64E170E080E0CE
:100F900090E00E948403CE3FD10504F52296E8CF6D
:100FA00022978091000190E0C817D907BCF0BE01DC
:100FB0008AE00E941603CE010E94680A64E170E094
:100FC00080E090E00E948403C330D1054CF760E0DC
:100FD00070E08AE00E9416031092000180910001E7
:100FE0008093EE01DF91CF9108950F931F93CF93DC
:100FF000DF938FE00E9481018C0180E10E948101DA
:10100000EC010130110539F0019769F48AEA91E0A9
:101010000E940C0A06C084EB91E00E940C0A219702
:10102000A9F381E001C080E0DF91CF911F910F9182
:101030000895CF92DF92EF92FF92CF93DF9381E0FA
:101040008093820283E28093A40210928302109222
:10105000A502809181028111FCCF81E08093810201
:10106000809380029FEF90937F0210927E02809384
:101070007D0280935C0280915C02866480935C02B6
:1010800080915B02813061F410925B0280915C027E
:101090008093BB008091BC0083FDF8CF85EC01C03C
:1010A00085EE8093BC00809181028130E1F38091D4
:1010B0007E02823018F480917E0201C082E0ADE5AC
:1010C000B2E02FEE31E0F9019E2F921B981718F431
:1010D0009D919193F9CF1092DB018093DA018BE916
:1010E00093E00E941102D82F80E0C82F8BE993E093
:1010F0000E941102C82BD92B81E00E949A09BE01DF
:1011000080E090E00E9491162AE939E949E95FE31D
:101110000E94DF150E9458166B017C016EEB71E096
:1011200086EB92E00E94A70AA60160E070E02AE048
:1011300086EB92E00E941F0A86EC91E00E940C0A66
:10114000C601DF91CF91FF90EF90DF90CF9008958F
:10115000CF93DF9385ED91E00E940C0AC0910001CE
:101160008AEC91E00E940C0AD091000110920001DB
:101170000E94AA07D093000160ED77E080E090E044
:101180000E9484030E94F507811107C00E949807FE
:101190001092E401DF91CF910895C0930001DF9197
:1011A000CF910C94AA07CF92DF92EF92FF920F9308
:1011B0001F93CF93DF936C017A018B01C0E0D0E0E5
:1011C000CE15DF0589F0D8016D918D01D601ED9125
:1011D000FC910190F081E02DC6010995892B11F455
:1011E0007E0102C02196ECCFC701DF91CF911F9104
:1011F0000F91FF90EF90DF90CF9008958F929F9284
:10120000AF92BF92CF92DF92EF92FF920F931F9314
:10121000CF93DF93FC01C081D1812091B202309144
:10122000B302C217D3070CF04BC09E01220F331F2D
:10123000E091B002F091B102E20FF31F8080918043
:10124000C170DD27F1E0CF27209719F404E610E004
:1012500002C00CE91FEF7A015B016C01040F151F3E
:10126000B801C4010E94C204892B99F40E0D1F1D00
:10127000B801C4010E94C204892B71F4B8016E0D3B
:101280007F1DC4010E94C204892BE9F023E030E0F5
:1012900005C021E030E002C022E030E0F5018081AD
:1012A00091810196821793073CF0F501118210821B
:1012B000F60180819181019691838083CE0105C0E2
:1012C00081E090E002C08FEF9FEFDF91CF911F91FF
:1012D0000F91FF90EF90DF90CF90BF90AF909F90D5
:1012E0008F900895E6EBF2E0A089B18982E08C93BB
:1012F000A485B5851C92A685B7858FEC8C93108E3E
:10130000A489B58986E08C93A289B3898C91806188
:101310008C93A289B3898C9188608C93A289B389BC
:101320008C9180688C930288F389E02D80818F7D79
:1013300080830895382F2091A5029091A402213234
:1013400008F049C0809181028111FCCF42E04093B6
:101350008102309380023FEF30937F0210927E0231
:1013600020937D02A4E8B2E04DE552E0FA013E2F61
:10137000341B321718F43D913193F9CF10925C026F
:1013800020915C02990F922B90935C0290915B02EA
:10139000913061F410925B0290915C029093BB00DB
:1013A0009091BC0093FDF8CF95EC01C095EE909321
:1013B000BC00909181029230E1F390917F029F3FB7
:1013C00079F080917F02803241F080917F028033FA
:1013D00031F084E005C081E003C082E001C083E019
:1013E000109283021092A502109282020895611554
:1013F000710579F0FB0101900020E9F73197AF0109
:10140000461B570BDC01ED91FC910280F381E02D2E
:10141000099480E090E00895CF93DF93BC0186EBC0
:1014200092E00E94F709EC0162E371E086EB92E042
:101430000E94F7098C0F9D1FDF91CF9108954F9265
:101440005F926F927F92EF92FF920F931F93CF93D1
:10145000DF93CDB7DEB7A1970FB6F894DEBF0FBE0E
:10146000CDBF7C01FA01CB0119A2223008F42AE099
:101470008E010F5D1F4F422E512C612C712CBF012C
:10148000A30192010E94C017F901CA01015011097C
:101490006A3014F4605D01C0695CD8016C93232B41
:1014A000242B252B61F7B801C7010E94F709A196EB
:1014B0000FB6F894DEBF0FBECDBFDF91CF911F9165
:1014C0000F91FF90EF907F906F905F904F900895F5
:1014D000CF92DF92EF92FF92CF93DF936C01990F3F
:1014E000EE08FF08F7FE1CC0E091B602F091B702CB
:1014F0000190F081E02D6DE286EB92E00995EC0120
:1015000044275527BA014C195D096E097F092AE065
:1015100086EB92E00E941F0A7C01EC0EFD1E08C0C3
:101520002AE0B701A60186EB92E00E941F0A7C0127
:1015300062E371E086EB92E00E94F7098E0D9F1D39
:10154000DF91CF91FF90EF90DF90CF9008950C94B2
:10155000F709CF93DF93CDB7DEB72C970FB6F8948A
:10156000DEBF0FBECDBF789484B5826084BD84B5E4
:10157000816084BD85B5826085BD85B5816085BD8E
:1015800080916E00816080936E0010928100809146
:1015900081008260809381008091810081608093CE
:1015A0008100809180008160809380008091B100F3
:1015B00084608093B1008091B00081608093B0001E
:1015C00080917A00846080937A0080917A008260B2
:1015D00080937A0080917A00816080937A00809174
:1015E0007A00806880937A001092C100109297036D
:1015F000109298031092990310929A031092550337
:1016000010925603109257031092580360ED77E042
:1016100080E090E00E94840386EB92E09093960332
:10162000809395030E9472092FB7F8948091DC0192
:101630009091DD01A091DE01B091DF012FBF809379
:10164000550390935603A0935703B093580363E256
:1016500071E080919503909196030E94A70A6AE039
:1016600070E080E090E00E94840381E08093690351
:101670000E9472098091810088608093810060E0FF
:1016800070E08AE00E94160360E070E089E00E944A
:10169000160360E070E085E00E94160360E070E0F1
:1016A00086E00E941603F89482E08093B000809355
:1016B000B10094E69093B3001092B2008093700052
:1016C00078948093A7031092AB038091A80390E0D5
:1016D000FC01E057FF4F2491FC01E458FF4F849137
:1016E0008823C9F090E0880F991FFC01EE58FF4F46
:1016F00045915491FC01E859FF4FA591B4919FB7D2
:10170000F894FA0180812095822380838C91E22FC6
:10171000E823EC939FBF1092DB011092DA01109244
:1017200083021092A5021092810211E010938002B0
:1017300010925B0261E082E10E94E60261E083E1D7
:101740000E94E6028091B9008E7F8093B90080915B
:10175000B9008D7F8093B90088E48093B80085E458
:101760008093BC001093820283E28093A4021092C3
:1017700083021092A50260E18BE993E00E945D0272
:1017800081E00E949A098FE39CE90197F1F700C07C
:10179000000060ED77E080E090E00E94840365E364
:1017A00071E086EB92E00E94A70A1092ED0182E3BD
:1017B0008093E10184E68093E2018093E30110E2EB
:1017C000212E312C44244A94542C32018FB7F894A2
:1017D000C090DC01D090DD01E090DE01F090DF01EF
:1017E0008FBF0E94F5078823D1F18091ED0181110F
:1017F00036C0C092E901D092EA01E092EB01F0928A
:10180000EC016DE371E086EB92E00E94A70A409143
:10181000E9015091EA016091EB017091EC012AE03D
:1018200086EB92E00E941F0A62E371E086EB92E091
:101830000E94F7098091E401811129C00E941908D2
:1018400020910101309102012817390700F10E940F
:101850006A060E94AA0781E08093E40118C0809183
:10186000E9019091EA01A091EB01B091EC01C81A55
:10187000D90AEA0AFB0A91E5C91693ECD906E104F4
:10188000F10428F08091E40181110E94A808AEEAD9
:10189000B3E0B093B102A093B0028091AB0390E0AB
:1018A0009093B3028093B2028091780490E0909379
:1018B000B5028093B4028091A703853009F077C206
:1018C0008091B0039091B103885891098D359105AD
:1018D00088F48091AB03843041F48091B2039091FD
:1018E000B3038097479708F47EC28091AB0384349A
:1018F00008F060C28091AB038A3108F44FC0809138
:10190000AE039091AF03843F914068F41092AF0210
:101910001092AE024092AA025092AB026092AC02C8
:101920007092AD0259C08091B0039091B103859738
:101930004B97A0F5E4EBF3E082E090E0C12CD12CD2
:101940007601AC014F5F5F4F2091AB0330E042174F
:1019500053075CF4DF0112972D913C912750310918
:101960002730310508F481C2CA0101979595879502
:101970009093AF028093AE020C972CF41092AF02BA
:101980001092AE020BC0C092AA02D092AB02E092BB
:10199000AC02F092AD0284E090E03FC38091AB03D3
:1019A0008A3108F44CC08091AE039091AF0380322D
:1019B000934008F4ABCF8091B0039091B103C697E8
:1019C000869708F46FC23BC0C092AA02D092AB02C5
:1019D000E092AC02F092AD028BE090E01EC3208159
:1019E0003181255231092B31310508F06BC2CC0C05
:1019F000DD1CEE1CFF1C6894C0F802963496AC0106
:101A00004F5F5F4F2091AB0330E04217530754F410
:101A1000DF0112972D913C912C5031092B3031056B
:101A2000F0F2CA010197959587959093AF02809344
:101A3000AE020C974CF61092AF021092AE0280915B
:101A4000AB03823208F44DC08091B0039091B10392
:101A50000697079708F045C0E4EBF3E022E030E09A
:101A6000C12CD12C7601C90101964091AB0350E005
:101A700084179507E4F4DF0112974D915C9111975B
:101A80004E5151094731510508F029C2CC0CDD1CDB
:101A9000EE1CFF1C6894C0F840815181349643507D
:101AA00051094530510520F42E5F3F4FDCCFC9016D
:101AB0000197959587959093AF028093AE024097DA
:101AC0002CF41092AF021092AE020BC0C092AA0288
:101AD000D092AB02E092AC02F092AD028CE090E0CA
:101AE0009CC21C821B8281E090E09A838983809152
:101AF000AB038D3008F46BC049E753E0BE016D5F66
:101B00007F4FCE0101960E94FE08892B09F05FC02D
:101B100049E753E0BE016D5F7F4FCE0101960E9401
:101B2000FE08019709F053C049E753E0BE016D5F1D
:101B30007F4FCE0101960E94FE08892B09F047C015
:101B4000812C912C540100E010E08091AB0390E0D7
:101B500029813A81281739075CF549E753E0BE012E
:101B60006D5F7F4FCE0101960E94FE087C0149E720
:101B700053E0BE016D5F7F4FCE0101960E94FE08CB
:101B800031E0E316F10449F4892B09F5880C991C1E
:101B9000AA1CBB1C689480F808C0EF28C1F4019708
:101BA000B1F4880C991CAA1CBB1C0F5F1F4FCDCF32
:101BB0001093AF020093AE028092AA029092AB0201
:101BC000A092AC02B092AD0281E090E026C21C82ED
:101BD0001B8281E090E09A8389838091B202909188
:101BE000B302181619060CF058C0E091B002F0913B
:101BF000B10282E090E09A83898382819381899700
:101C00004E9708F04AC0A3E0B0E0BA83A98384816C
:101C100095810B970A9708F040C04CEB51E0BE014C
:101C20006D5F7F4FCE0101960E94FE08892BA9F5BA
:101C30004CEB51E0BE016D5F7F4FCE0101960E94DB
:101C4000FE08019751F5812C912C540100E010E021
:101C500029813A818091B2029091B3022817390705
:101C60000CF080C14CEB51E0BE016D5F7F4FCE01A7
:101C700001960E94FE086C010330110509F03CC179
:101C80004CEB51E0BE016D5F7F4FCE0101960E948B
:101C9000FE08C816D90609F42FC1E091B002F091F0
:101CA000B10282819381C697869708F07DC38481B3
:101CB00095814B97459708F077C3DF0116967F0112
:101CC00026ECE20EF11C20E030E040E050E060E065
:101CD00070E080E090E00D911C911197095011097E
:101CE0000830110508F060C312960D911C911397EE
:101CF000015111090D30110508F043C101E00E94A6
:101D0000351521601496AE15BF0529F72093AA0258
:101D10003093AB024093AC025093AD0200E20E94BC
:101D200050152093A8023093A90285E090E090938B
:101D3000A7028093A60280E390E09093AF02809385
:101D4000AE028091A6029091A7028330910509F01E
:101D500069C167E471E086EB92E00E94A70A4091B6
:101D6000AA025091AB026091AC027091AD0220E1E9
:101D700086EB92E00E941F0A62E371E086EB92E03C
:101D80000E94F70982E08093A7031092AB03809131
:101D9000AA029091AB02A091AC02B091AD028D3736
:101DA000E2E89E07EFEFAE07B10509F053C10E94CC
:101DB0004E010CCD8091B2039091B30382549109EE
:101DC0008E9708F097CD80E090E040E050E0BA01B7
:101DD000FC01EC54FC4F208131812950310929301C
:101DE0003105B0F087CD8091B4039091B503099788
:101DF000099708F07ACD1092AF021092AE0240928D
:101E0000AA025092AB026092AC027092AD02C5C2BF
:101E1000FC01EA54FC4F20813181275131092231E4
:101E20003105B0F4440F551F661F771F41600496BB
:101E30008038910569F63092AF022092AE0240934D
:101E4000AA025093AB026093AC027093AD02A5C29C
:101E500020813181265031092730310508F04ACDE3
:101E6000440F551F661F771FE2CF20813181235118
:101E700031092F30310548F4CC0CDD1CEE1CFF1C61
:101E80006894C0F8029634965CCD208131812A5046
:101E900031092930310508F081CDCC0CDD1CEE1C58
:101EA000FF1CF0CF8091B2039091B303C697869741
:101EB00008F0C5CDE6EBF3E083E090E0C12CD12C37
:101EC00076019DCD208131812C5031092A30310598
:101ED00008F0B5CDCC0CDD1CEE1CFF1C8ECD4D9159
:101EE0005C914C5051094B30510508F0FACDCC0CA7
:101EF000DD1CEE1CFF1CD0CD4CEB51E0BE016D5F34
:101F00007F4FCE0101960E94FE087C01033011052F
:101F100069F44CEB51E0BE016D5F7F4FCE0101963D
:101F20000E94FE08E816F90609F0B7CEC114D104E4
:101F300059F4EA94EF2809F0B0CE880C991CAA1C39
:101F4000BB1C689480F80BC0CA94CD2809F0A5CEBC
:101F5000EF2809F0A2CE880C991CAA1CBB1C0F5FAD
:101F60001F4F76CE1093AF020093AE028092AA026A
:101F70009092AB02A092AC02B092AD0282E090E0EF
:101F80004CC012960D911C91139704501109053005
:101F9000110508F009C201E00E943515B3CEA80171
:101FA00042505109DA014D915C9149505109483034
:101FB000510508F0A7C2BC016F5F7F4FD8014D915A
:101FC0005C91475051094730510508F0A1C4220FD8
:101FD000331F216002960C5F1F4F4091AB0350E00E
:101FE0004450510984179507D4F201979595879528
:101FF0009093AF028093AE028A970CF483C2C9011A
:10200000330FAA0BBB0B8093AA029093AB02A09351
:10201000AC02B093AD0289E090E09093A702809368
:10202000A6028FCE8430910519F465E571E093CE58
:102030008130910519F46CE571E08DCE8230910507
:1020400019F462E671E087CE019609F088CE68E661
:1020500071E081CE2091ED01222309F465C08F3A11
:10206000F0E59F07FFEFAF07B10549F18F3820E793
:1020700092072FEFA207B10571F08F3E9041AF4F4D
:10208000B10509F094CE60E070E08AE00E9416038A
:102090000E94190875C18091010190910201029678
:1020A00090930201809301011092E9011092EA01DC
:1020B0001092EB011092EC0182E090E01BC0809145
:1020C0000101909102018330910530F002979093C5
:1020D00002018093010104C085E090E00E94340673
:1020E0001092E9011092EA011092EB011092EC01BA
:1020F00081E090E00E94340662E771E086EB92E0B6
:102100000E94A70A409101015091020160E070E035
:102110002AE086EB92E00E941F0A62E371E086EB00
:1021200092E00E94F70943CE873AE8E59E07EFEF79
:10213000AE07B10509F414C108F06EC0853E2AE16E
:1021400092072FEFA207B10509F4ECC040F5853FD7
:10215000EAE09E07EFEFAE07B10509F4F3C078F4AB
:102160008D3C22EF920723EFA207B10509F4FCC0D2
:102170008D3F9240AF4FB10509F4C5C018CE8D3EDA
:10218000E2E19E07EFEFAE07B10509F4EBC0873E31
:102190009841AF4FB10509F00ACE80E4C7C0853D34
:1021A0002AE292072FEFA207B10509F4C9C0E8F4AB
:1021B0008D3DE2E29E07EFEFAE07B10509F4BAC02C
:1021C000873D9842AF4FB10509F0F1CD80EA9BEB16
:1021D000ADE0B0E08093E5019093E601A093E701C4
:1021E000B093E80181E090E0CBC0873C28E3920700
:1021F0002FEFA207B10509F4A7C0853C3AE3930786
:102200003FEFA307B10509F469C08F3C9043AF4F7E
:10221000B10509F0CCCDB7C08D35F2EA9F07FFEFCD
:10222000AF07B10509F481C048F58D3632E993074F
:102230003FEFA307B10509F48FC080F48738F8E7B2
:102240009F07FFEFAF07B10509F488C085379A48AB
:10225000AF4FB10509F0ABCD80E868C0873638E9EB
:1022600093073FEFA307B10509F474C085369A4977
:10227000AF4FB10509F09BCD80E658C08734F8EB2D
:102280009F07FFEFAF07B10509F462C080F4853501
:102290003AEA93073FEFA307B10509F457C08D341D
:1022A000924BAF4FB10509F082CD80EC3FC0873231
:1022B000F8ED9F07FFEFAF07B10509F459C087306C
:1022C00028EF92072FEFA207B10509F44FC085341C
:1022D0009A4BAF4FB10509F06ACD0CC08091000157
:1022E000803E10F4805E01C08FEF809300010E9459
:1022F000AA075DCD80910001803210F08052F5CFA9
:1023000010920001F4CF8091E401882319F00E941B
:10231000A8084DCD0E946A060E94AA0781E080931A
:10232000E40145CD1092E10103C080EA8093E10110
:102330008FEF21C01092E1011092E2018FEF1DC0DA
:1023400088E0F4CF80E1F2CF80E2F0CF80E7EECFFB
:1023500080E9ECCF88E9EACF80EBE8CF88ECE6CFE4
:1023600080EEE4CF88EEE2CF80EFE0CF88EFDECFE3
:102370008FEF8093E1018093E2018093E30107C036
:102380000E94340614CD8091E001811103C00E94A7
:102390006A060DCD0E9498070ACDE3E0F0E0F093C5
:1023A000A702E093A602CDCC8091AB03893370F1F4
:1023B00082819381895791098335910508F448C139
:1023C00025C0D90112966D917C91139766517109C0
:1023D0006131710508F068C1D701C601880F991FE6
:1023E000AA1FBB1F6C017D016894C0F84E5F5F4F50
:1023F0002C5F3F4F4B33510509F439C1D9016D9121
:102400007C916A50710969307105D8F28091AB03F3
:10241000823231F4828193810A97099708F454C17A
:10242000828193818957910983359105D0F48091F8
:10243000AB038132B0F084819581CA97899788F483
:102440009F012A5F3F4FC12CD12C760143E050E021
:10245000D9016D917C916A5071096930710508F458
:1024600051C1828193818C549109C59778F48091F0
:10247000AB03843031F4848195818097479708F4C9
:10248000A7C18091AB03843408F089C18091AB036C
:10249000863460F1828193810C970B9708F4E3C135
:1024A00025C0D90112966D917C9113976E517109D7
:1024B0006731710508F00DC2D701C601880F991F59
:1024C000AA1FBB1F6C017D016894C0F84E5F5F4F6F
:1024D0002C5F3F4F4534510509F4E0C1D9016D919E
:1024E0007C916C5071096B307105D8F28091AB030F
:1024F000883540F082819381855891098B3591050B
:1025000008F4F7C18091AB038032E1F482819381BA
:1025100006970697B8F4848195810997099790F4F6
:102520009F012A5F3F4FBF01625C7F4FC12CD12CBE
:102530007601D9014D915C914650510946305105C3
:1025400008F4F3C12091B2023091B30238872F838F
:10255000263031050CF424C28F010A5F1F4F83E03F
:1025600090E09E838D8395ECC92E9DE9D92E9CE148
:10257000E92E91E8F92ED8016D917C91F8013497FC
:10258000A080B18080E090E00E94911669877A87F0
:102590008B879C87B50180E090E00E9491164B01EB
:1025A0005C012DEC3CEC4CE45FE30E94F2169B01D5
:1025B000AC0169857A858B859C850E948C1687FD88
:1025C00019C02DEC3CEC4CE45FE369857A858B8582
:1025D0009C850E94F2169B01AC01C501B4010E94CA
:1025E0008C16E82F880FFF0BEE27FF0FEE1FFF273B
:1025F000319602C0E0E0F0E0A701960163E971E0E6
:1026000080E091E00E94B0176F01FF0FEE08FF0815
:10261000C626D726E826F926ED81FE813196FE836F
:10262000ED830E5F1F4F2F813885E217F30709F006
:10263000A2CFC092AA02D092AB02E092AC02F0927A
:10264000AD023092AF022092AE028FEF9FEFE5CC49
:1026500084819581CA97899708F0D8CE9F012A5F17
:102660003F4FC12CD12C760143E050E0C7CE9F01F3
:102670002A583F4FD9012D913C912A5031092930D8
:10268000310508F0C3CE2CE130E03093AF02209347
:10269000AE02C092AA02D092AB02E092AC02F092DB
:1026A000AD028AE090E0B9CCD90112966D917C918F
:1026B0001397665071096730710508F0A7CECC0CEE
:1026C000DD1CEE1CFF1C92CE2091AB03CF01820FCC
:1026D000911D820F911DDC0112978D919C910A979B
:1026E000099708F09DCE1092AF021092AE02409270
:1026F000AA025092AB026092AC027092AD02E6E088
:10270000F0E04DCED90112966D917C9113976651F0
:1027100071096131710598F5D701C601880F991FBC
:10272000AA1FBB1F6C017D016894C0F84E5F5F4F0C
:102730002C5F3F4F4332510509F08ACE9F012A5B3F
:102740003F4FD9012D913C912A5031092930310553
:1027500008F087CEE0E1F0E0F093AF02E093AE0244
:10276000C092AA02D092AB02E092AC02F092AD020B
:1027700026E030E03093A7022093A602E2CAD901F6
:1027800012966D917C9113976650710967307105AF
:1027900008F067CECC0CDD1CEE1CFF1CC7CF84817B
:1027A000958189549109C39708F070CE9F012A5FE3
:1027B0003F4FBF016A577F4FC12CD12C7601D90101
:1027C0004D915C914950510949305105A0F05ECEC0
:1027D000868197810997099708F053CE1092AF022E
:1027E0001092AE024092AA025092AB026092AC02EA
:1027F0007092AD0225C0D90112964D915C9113974C
:102800004651510941315105F0F4D701C601880FF5
:10281000991FAA1FBB1F6C017D016894C0F82C5F33
:102820003F4F2617370759F63092AF022092AE027B
:10283000C092AA02D092AB02E092AC02F092AD023A
:10284000E7E0F0E0ACCDD90112964D915C91139781
:10285000465051094730510508F018CECC0CDD1C0C
:10286000EE1CFF1CDCCF848195810997099708F045
:102870003DCE868197818C974F9708F037CE808523
:10288000918589974D9708F031CE9F01265F3F4F84
:10289000C12CD12C760145E050E020CE9F01265777
:1028A0003F4FD9012D913C912C5031092B303105EE
:1028B00008F01CCE3092AF022092AE02C092AA0263
:1028C000D092AB02E092AC02F092AD0288E090E0D0
:1028D000A4CBD90112966D917C911397695071091F
:1028E0006930710508F002CECC0CDD1CEE1CFF1C1B
:1028F000EDCD84819581825491098E9708F002CEA6
:102900008F01045C1F4F8DE190E020E030E065CB4B
:10291000D8014D915C91485151094231510510F057
:10292000CB0163CB220F331F55CBD90112964D91AA
:102930005C911397495151094331510508F5D7016D
:10294000C601880F991FAA1FBB1F6C017D016894E7
:10295000C0F82C5F3F4F2617370709F0EACDEEE0AD
:10296000F0E0F093AF02E093AE02C092AA02D092E0
:10297000AB02E092AC02F092AD028FE090E04DCB62
:10298000D90112964D915C911397495051094930E4
:10299000510508F0D7CDCC0CDD1CEE1CFF1CD9CFA7
:1029A00082E08093A7031092AB0301CAE6EBF2E04A
:1029B0001382128288EE93E0A0E0B0E084839583D6
:1029C000A683B78327E031E03183208325EC30E014
:1029D0003587248724EC30E03787268720EC30E0E9
:1029E000318B208B21EC30E0338B228B22EC30E0DA
:1029F000358B248B26EC30E0378B268B118E128E94
:102A0000138E148EE3E5F3E016821782108611868A
:102A1000128613861486158616861786108A118AE2
:102A2000128A138A148A158AEEE7F4E02FEF2083C6
:102A300012821182148613864FEF5FEFBA0147832B
:102A4000508761877287EBE9F3E0138212828483F7
:102A50009583A683B78387E191E091838083E7EA3A
:102A6000F3E08EE08183138208950F93083090F095
:102A7000982F872F762F652F542F432F322F222701
:102A80000850F4CF220F331F441F551F661F771FB6
:102A9000881F991F0A95B2F70F91089597FB10F8B8
:102AA000169400080F93083098F00850232F342F05
:102AB000452F562F672F782F892F902DF4CF05940F
:102AC0009795879577956795579547953795279566
:102AD0000A95AAF70F910895EE0FFF1F0590F49144
:102AE000E02D09945058BB27AA270E948A150C9400
:102AF00076170E94681738F00E946F1720F039F49B
:102B00009F3F19F426F40C9465170EF4E095E7FB4B
:102B10000C945F17E92F0E94871758F3BA176207C2
:102B200073078407950720F079F4A6F50C94A9178C
:102B30000EF4E0950B2EBA2FA02D0B01B9019001D8
:102B40000C01CA01A0011124FF27591B99F0593F1C
:102B500050F4503E68F11A16F040A22F232F342F64
:102B60004427585FF3CF469537952795A795F040B2
:102B70005395C9F77EF41F16BA0B620B730B840BC7
:102B8000BAF09150A1F0FF0FBB1F661F771F881F7F
:102B9000C2F70EC0BA0F621F731F841F48F48795D7
:102BA00077956795B795F7959E3F08F0B0CF9395C9
:102BB000880F08F09927EE0F9795879508950E9442
:102BC000F3150C9476170E946F1758F00E9468173F
:102BD00040F029F45F3F29F00C945F1751110C94D9
:102BE000AA170C9465170E94871768F39923B1F30D
:102BF000552391F3951B550BBB27AA276217730723
:102C0000840738F09F5F5F4F220F331F441FAA1FB6
:102C1000A9F335D00E2E3AF0E0E832D09150504072
:102C2000E695001CCAF72BD0FE2F29D0660F771F20
:102C3000881FBB1F261737074807AB07B0E809F006
:102C4000BB0B802DBF01FF2793585F4F3AF09E3F8B
:102C5000510578F00C945F170C94AA175F3FE4F3CA
:102C6000983ED4F3869577956795B795F7959F5FCE
:102C7000C9F7880F911D9695879597F90895E1E01A
:102C8000660F771F881FBB1F621773078407BA0779
:102C900020F0621B730B840BBA0BEE1F88F7E095D4
:102CA00008950E9458166894B1110C94AA170895BB
:102CB0000E948F1788F09F5798F0B92F9927B75126
:102CC000B0F0E1F0660F771F881F991F1AF0BA95D0
:102CD000C9F714C0B13091F00E94A917B1E008956E
:102CE0000C94A917672F782F8827B85F39F0B93F60
:102CF000CCF3869577956795B395D9F73EF4909583
:102D00008095709561957F4F8F4F9F4F089581E01B
:102D100090E0F8940C94FC170E94CE1608F481E021
:102D20000895E89409C097FB3EF4909580957095BE
:102D300061957F4F8F4F9F4F9923A9F0F92F96E907
:102D4000BB279395F695879577956795B795F1117C
:102D5000F8CFFAF4BB0F11F460FF1BC06F5F7F4F19
:102D60008F4F9F4F16C0882311F096E911C077232B
:102D700021F09EE8872F762F05C0662371F096E834
:102D8000862F70E060E02AF09A95660F771F881F03
:102D9000DAF7880F9695879597F90895990F0008A7
:102DA000550FAA0BE0E8FEEF16161706E807F9071D
:102DB000C0F012161306E407F50798F0621B730BB8
:102DC000840B950B39F40A2661F0232B242B252B39
:102DD00021F408950A2609F4A140A6958FEF811DDC
:102DE000811D08950E9405170C9476170E9468179C
:102DF00038F00E946F1720F0952311F00C945F17A4
:102E00000C94651711240C94AA170E94871770F36D
:102E1000959FC1F3950F50E0551F629FF001729F7F
:102E2000BB27F00DB11D639FAA27F00DB11DAA1F8E
:102E3000649F6627B00DA11D661F829F2227B00DDB
:102E4000A11D621F739FB00DA11D621F839FA00D66
:102E5000611D221F749F3327A00D611D231F849FB6
:102E6000600D211D822F762F6A2F11249F5750400D
:102E70009AF0F1F088234AF0EE0FFF1FBB1F661F88
:102E8000771F881F91505040A9F79E3F510580F051
:102E90000C945F170C94AA175F3FE4F3983ED4F3A9
:102EA000869577956795B795F795E7959F5FC1F7F5
:102EB000FE2B880F911D9695879597F9089597F9A0
:102EC0009F6780E870E060E008959FEF80EC0895D0
:102ED00000240A94161617061806090608950024F9
:102EE0000A9412161306140605060895092E039473
:102EF000000C11F4882352F0BB0F40F4BF2B11F4E7
:102F000060FF04C06F5F7F4F8F4F9F4F089557FD45
:102F10009058440F551F59F05F3F71F04795880F47
:102F200097FB991F61F09F3F79F0879508951216DE
:102F300013061406551FF2CF4695F1DF08C016168A
:102F400017061806991FF1CF86957105610508943B
:102F50000895E894BB2766277727CB0197F9089552
:102F6000DB018F939F930E94E217BF91AF91A29FC5
:102F7000800D911DA39F900DB29F900D1124089577
:102F8000A1E21A2EAA1BBB1BFD010DC0AA1FBB1F6D
:102F9000EE1FFF1FA217B307E407F50720F0A21BDF
:102FA000B30BE40BF50B661F771F881F991F1A944C
:102FB00069F760957095809590959B01AC01BD0176
:102FC000CF0108950E94ED17A59F900DB49F900D1D
:102FD000A49F800D911D11240895A29FB001B39F5D
:102FE000C001A39F700D811D1124911DB29F700D12
:0C2FF000811D1124911D0895F894FFCF5D
:102FFC00FF0A0000000000E500D308AE008C00A022
:10300C00002C01000000005D022D022502110202BD
:10301C00020102564D4450565F317C315F564D448F
:10302C0050560D0A0053746172743A20004E657745
:10303C0054696D653A20005369676E616C3A204E95
:10304C0045433A2000534F4E593A20005243353AEB
:10305C0020005243363A2000554E4B4E4F574E3AB5
:10306C0020004E6577207468726573686F6C6420FD
:10307C0000666C617368004853563A002C2000546B
:10308C0075726E2052474220746F3A005475726EFE
:10309C00205768697465204F4E004D6F74696F6ED0
:1030AC004F6E32004D6F74696F6E4F6E31004C690C
:1030BC006768743A2000206C78005475726E205743
:0A30CC0068697465204F4646000055
:00000001FF
