:100000000C9462000C948A000C948A000C948A0070
:100010000C948A000C948A000C948A000C940804B6
:100020000C948A000C948A000C948A000C948A0028
:100030000C948A000C948A000C948A000C948A0018
:100040000C94BE030C948A000C94B4020C948E029F
:100050000C948A000C948A000C948A000C948A00F8
:100060000C9406050C948A0000000000250028006E
:100070002B0000000000240027002A0004040404D0
:100080000404040402020202020203030303030342
:10009000010204081020408001020408102001021F
:1000A00004081020000000002300260029000000A2
:1000B0000008000201000003040700000000000027
:1000C0000000BD1411241FBECFEFD8E0DEBFCDBFAE
:1000D00011E0A0E0B1E0EAECFFE202C005900D9271
:1000E000AA3DB107D9F724E0AAEDB1E001C01D9205
:1000F000A738B207E1F710E0C2E6D0E004C02197CC
:10010000FE010E945315C136D107C9F70E94A80A03
:100110000C94E3170C940000FC01918D828D9817CC
:1001200061F0828DDF01A80FB11D5D968C91928DDB
:100130009F5F9F73928F90E008958FEF9FEF0895D8
:10014000FC01918D828D981731F0828DE80FF11DA1
:10015000858D90E008958FEF9FEF0895FC01918DBC
:10016000228D892F90E0805C9F4F821B91098F73B5
:100170009927089582EB92E00E94AE0021E0892B3E
:1001800009F420E0822F0895FC01848DDF01A80F7F
:10019000B11DA35ABF4F2C91848D90E001968F73AF
:1001A0009927848FA689B7892C93A089B1898C91CE
:1001B00080648C93938D848D981306C00288F38994
:1001C000E02D80818F7D80830895EF92FF920F93C1
:1001D0001F93CF93DF93EC0181E0888F9B8D8C8DF3
:1001E000981305C0E889F989808185FD24C0F62E21
:1001F0000B8D10E00F5F1F4F0F731127E02E8C8DBA
:10020000E8120CC00FB607FCFACFE889F9898081A3
:1002100085FFF5CFCE010E94C400F1CF8B8DFE018A
:10022000E80FF11DE35AFF4FF0820B8FEA89FB893B
:100230008081806207C0EE89FF896083E889F9893F
:1002400080818064808381E090E0DF91CF911F9175
:100250000F91FF90EF900895CF93DF93EC01888D7D
:100260008823C9F0EA89FB89808185FD05C0A889BA
:10027000B9898C9186FD0FC00FB607FCF5CF808140
:1002800085FFF2CFA889B9898C9185FFEDCFCE018A
:100290000E94C400E7CFDF91CF91089580E090E005
:1002A000892B29F00E94BA0081110C940000089556
:1002B000833081F028F4813099F08230A1F00895E4
:1002C0008730A9F08830B9F08430D1F48091800073
:1002D0008F7D03C0809180008F7780938000089588
:1002E00084B58F7702C084B58F7D84BD08958091D9
:1002F000B0008F7703C08091B0008F7D8093B000F5
:100300000895CF93DF93282F30E0F901E255FF4F96
:100310008491F901E057FF4FD491F901E458FF4F60
:10032000C491CC2391F081110E945801EC2FF0E090
:10033000EE0FFF1FEC55FF4FA591B491EC91ED230B
:1003400081E090E021F480E002C080E090E0DF9165
:10035000CF9108953FB7F894809153029091540241
:10036000A0915502B091560226B5A89B05C02F3F1B
:1003700019F00196A11DB11D3FBFBA2FA92F982FCB
:100380008827820F911DA11DB11DBC01CD0142E046
:10039000660F771F881F991F4A95D1F7089585ED3D
:1003A0008093BC008091BC0084FDFCCF10927D0244
:1003B000089540912D02262F30E0240F311D213267
:1003C0003105DCF420917D022430C9F4FC0180E089
:1003D00090E0861758F430912D022191DC01A55F41
:1003E000BD4FA30FB11D2C930196F3CF80912D0229
:1003F000680F60932D0280E0089581E0089582E007
:1004000008950895E091DB018091DA01E81730F456
:10041000F0E0E551FE4F808190E008958FEF9FEF6F
:1004200008959091DB018091DA01981750F4E92F3B
:10043000F0E0E551FE4F208130E09F5F9093DB01BB
:1004400002C02FEF3FEFC90108958091DA0190E0DB
:100450002091DB01821B91090895CF92DF92EF92E8
:10046000FF920F931F93CF93DF937C01262F972F3B
:100470008A0180917E02882391F0C62FD72F6E01CA
:10048000C40ED51ECC15DD0571F06991D701ED9133
:10049000FC910190F081E02DC7010995F3CF642F05
:1004A000822F0E94D901C801DF91CF911F910F9136
:1004B000FF90EF90DF90CF900895CF93DF931F923E
:1004C000CDB7DEB7698320917E022223D1F020913F
:1004D000A102203240F021E030E0FC01338322838E
:1004E00080E090E015C080917F02E82FF0E0E058B6
:1004F000FD4F998190838F5F80937F028093A1024B
:1005000005C061E0CE0101960E94D90181E090E032
:100510000F90DF91CF9108950E946E161F920F9257
:100520000FB60F9211242F933F934F935F936F93C6
:100530007F938F939F93AF93BF93EF93FF9382EB40
:1005400092E00E94C400FF91EF91BF91AF919F9103
:100550008F917F916F915F914F913F912F910F906C
:100560000FBE0F901F9018951F920F920FB60F920B
:1005700011242F938F939F93EF93FF93E091C202E7
:10058000F091C3028081E091C802F091C90282FD1E
:1005900012C090818091CB028F5F8F732091CC022B
:1005A000821751F0E091CB02F0E0EE54FD4F958FB1
:1005B0008093CB0201C08081FF91EF919F918F9139
:1005C0002F910F900FBE0F901F9018951F93CF93F0
:1005D000DF93282F30E0F901E255FF4F8491F901B4
:1005E000E057FF4FD491F901E458FF4FC491CC2359
:1005F000C9F0162F81110E945801EC2FF0E0EE0F88
:10060000FF1FE859FF4FA591B4918FB7F8941111CE
:1006100005C09C91ED2FE095E92302C0EC91ED2BF4
:10062000EC938FBFDF91CF911F910895482F50E039
:10063000FA01E057FF4F9491FA01E458FF4F2491DB
:10064000222399F030E0220F331FF901EE58FF4FBB
:10065000A591B491F901E859FF4F259134912FB735
:10066000F894EC91E92BEC932FBF6115710511F40F
:1006700060E004C06F3F710519F461E00C94E6027C
:10068000FA01E255FF4FE491E330F9F048F4E1302C
:10069000B9F0E230A1F584B5806284BD68BD0895EB
:1006A000E730E9F0E83019F1E43049F58091800055
:1006B00080628093800070938B0060938A0008951D
:1006C00084B5806884BD67BD08958091800080688E
:1006D00080938000709389006093880008958091D2
:1006E000B00080688093B0006093B300089580915B
:1006F000B00080628093B0006093B40008956038C9
:1007000071050CF0BACFB4CF8F929F92AF92BF9287
:10071000CF92DF92EF92FF926B017C010E94AA01BF
:100720004B015C01C114D104E104F104F1F00E9419
:10073000AA01DC01CB0188199909AA09BB09883EE5
:100740009340A105B10570F321E0C21AD108E10878
:10075000F10888EE880E83E0981EA11CB11CC1141C
:10076000D104E104F10419F7DDCFFF90EF90DF90A1
:10077000CF90BF90AF909F908F9008951F920F924F
:100780000FB60F9211242F933F938F939F93AF93A4
:10079000BF938091DC019091DD01A091DE01B091C9
:1007A000DF013091520223E0230F2D3720F4019610
:1007B000A11DB11D05C026E8230F0296A11DB11D84
:1007C000209352028093DC019093DD01A093DE011F
:1007D000B093DF018091530290915402A091550291
:1007E000B09156020196A11DB11D809353029093C2
:1007F0005402A0935502B0935602BF91AF919F91BE
:100800008F913F912F910F900FBE0F901F901895D1
:100810001F920F920FB60F9211242F933F934F9375
:100820005F936F937F938F939F93AF93BF93EF9358
:10083000FF938091A4030E9481012091A80330912D
:10084000A9032F5F3F4F3093A9032093A8039091F2
:10085000A703953618F096E09093A3039091A30315
:100860009430C9F128F4923069F09330D1F05EC031
:10087000953009F451C0963009F058C091E090933A
:10088000740451C0811152C02091A8033091A90372
:100890002436310508F442C0109274041092A70364
:1008A0001CC0813009F042C0E091A70391E09E0F87
:1008B0009093A703F0E02091A8033091A903EE0FD5
:1008C000FF1FED55FC4F308727831092A90310922C
:1008D000A80394E029C0811117C0E091A70391E01B
:1008E0009E0F9093A703F0E02091A8033091A903F5
:1008F000EE0FFF1FED55FC4F308727831092A903A1
:100900001092A80393E010C02091A8033091A9038E
:100910002536310558F007C0811108C01092A9038F
:100920001092A80303C095E09093A3039091A603AF
:100930009923B9F081110AC08091A503882321F081
:100940008091A50361E009C02D9A0BC08091A50399
:10095000882331F08091A50360E00E94E60201C087
:100960002D98FF91EF91BF91AF919F918F917F91C2
:100970006F915F914F913F912F910F900FBE0F900C
:100980001F901895CF92DF92EF92FF92CF93DF9353
:10099000EC01072E000C880B990B0E947A166B0154
:1009A0007C0120E030E040E45FE30E94D91620E0C3
:1009B00030E048E452E40E94C6150E943816C6177B
:1009C000D707D4F020E030E040EA5FE3C701B6018A
:1009D0000E94D91620E030E048E452E40E94C61597
:1009E00020E030E040E85FE30E945A150E9438168C
:1009F00021E06C177D070CF420E0822F90E0DF915E
:100A0000CF91FF90EF90DF90CF9008951F920F92BB
:100A10000FB60F9211242F933F934F935F936F93D1
:100A20007F938F939F93AF93BF93EF93FF938091A7
:100A3000B900887F803609F49CC068F5883209F4D3
:100A40005BC090F4803109F454C038F4882309F471
:100A5000F6C0883009F44DC0F6C0883109F44CC0A6
:100A6000803209F45DC0EFC0803409F468C048F4F6
:100A7000803309F455C0883309F0E5C080937B02C8
:100A8000D8C0803509F44FC0883509F45DC088347A
:100A900009F0D9C0D6C0883909F4C7C0A8F488378E
:100AA00009F467C038F4883609F463C0803709F464
:100AB00060C0C9C0883809F4B8C0803909F45FC083
:100AC000803809F0C0C05BC0803B09F486C038F4B0
:100AD000803A09F466C0883A09F47FC0B4C0803C0B
:100AE00009F4A7C0883C09F4A4C0883B09F48AC073
:100AF000AAC08091580210C090917A028091790228
:100B0000981770F5E0917A0281E08E0F80937A0257
:100B1000F0E0E75AFD4F80818093BB0085EC86C0F2
:100B200080937B028EC0E0917A0281E08E0F8093E9
:100B30007A028091BB00F0E0E75AFD4F80839091EC
:100B40007A02809179026EC0E0917A0281E08E0F84
:100B500080937A028091BB00F0E0E75AFD4F8083DA
:100B600080917C0281116DC081E08093570284EAFC
:100B700061C083E080937D0210925102CFCF8091BB
:100B80005102803208F051C0E091510281E08E0F95
:100B9000809351028091BB00F0E0EF5CFD4F8083B9
:100BA000BDCF85EC8093BC0010927D0280915102F4
:100BB000803230F4E0915102F0E0EF5CFD4F1082A2
:100BC0006091510270E0E0912F02F091300281E3D8
:100BD00092E009951092510236C084E080937D0224
:100BE00010922E0210922D02E0912B02F0912C0215
:100BF000099580912D02811105C081E080932D021D
:100C000010920B02E0912E0281E08E0F80932E0253
:100C1000F0E0E55FFD4F80818093BB0090912E0254
:100C200080912D02981708F479CF85E88093BC0055
:100C30000AC085EC8093BC0010927D0204C0109223
:100C40007B020E94CF01FF91EF91BF91AF919F91E5
:100C50008F917F916F915F914F913F912F910F9065
:100C60000FBE0F901F9018950F931F93CF93DF9394
:100C70008C01C0E0D0E0C017D107F4F461E871E066
:100C800082EB92E00E94A60A60E070E08AE00E9497
:100C9000160368EC70E080E090E00E9484036FEF40
:100CA00070E08AE00E94160368EC70E080E090E05B
:100CB0000E9484032196DFCF60E070E08AE00E940A
:100CC000160384E391E0DF91CF911F910F910C9473
:100CD0000B0A0F931F93CF93DF931F92CDB7DEB70D
:100CE00067E871E082EB92E00E94A60A4091E10180
:100CF00050E060E070E02AE082EB92E00E941E0A81
:100D00006CE871E082EB92E00E94A60A4091E20159
:100D100050E060E070E02AE082EB92E00E941E0A60
:100D20006CE871E082EB92E00E94A60A4091E30138
:100D300050E060E070E02AE082EB92E00E941E0A40
:100D400062E371E082EB92E00E94F6093091E101EA
:100D50002091E2014091E301032F0F71000F000F7A
:100D6000000F65E5102F169F010E10E0111D1124D4
:100D7000932F9074832F807237FD20C091110BC088
:100D8000811104C0912F9095312F10C035E5310F9E
:100D900000E01BEA37C081110CC03AEA039F000E45
:100DA00000E0011D11249BEA901B310F192F00E078
:100DB00029C080E0312F3095012F0FC0911112C052
:100DC00081110DC0602F3AEA639F060E60E0611D3D
:100DD00011243BEA361B05E5060F10E013C0012F76
:100DE00000950FC0811107C095E5910F6BEA062FA2
:100DF000011B192F06C08AEA810F90E0062F011B04
:100E0000182F30E02F3F11F12223E9F0112321F0B8
:100E1000129F010E10E0111D332321F0329F030EAB
:100E200030E0311D002321F0029F000E00E0011D83
:100E300011242095229F020E20E0211D1124120F63
:100E4000320F020F03C00FEF3FEF1FEF4F3F09F4C8
:100E500020C020E0442321F0449F212D09F02F5F82
:100E60002223A1F0112321F0129F010E10E0111D89
:100E7000332321F0329F030E30E0311D002321F097
:100E8000029F000E00E0011D112403C000E030E0CD
:100E900010E06FE871E082EB92E039830E94A60ACD
:100EA000412F50E060E070E02AE082EB92E00E9487
:100EB0001E0A6CE871E082EB92E00E94A60A39817A
:100EC000432F50E060E070E02AE082EB92E00E9465
:100ED0001E0A6CE871E082EB92E00E94A60A402FA5
:100EE00050E060E070E02AE082EB92E00E941E0A8F
:100EF00062E371E082EB92E00E94F609612F70E0FC
:100F000089E00E9416033981632F70E085E00E941A
:100F10001603602F70E086E00E94160381E0809344
:100F2000E0010F90DF91CF911F910F91089560E044
:100F300070E089E00E94160360E070E085E00E94A6
:100F4000160360E070E086E00E9416031092E00154
:100F50000895CF93DF938CE991E00E940B0A809172
:100F6000EA0190910001C82FD0E08917C8F4809160
:100F7000000190E08C179D0784F1BE018AE00E9479
:100F80001603CE010E94670A64E170E080E090E001
:100F90000E948403CE3FD10504F52296E8CF229724
:100FA0008091000190E0C817D907BCF0BE018AE02B
:100FB0000E941603CE010E94670A64E170E080E09F
:100FC00090E00E948403C330D1054CF760E070E0EC
:100FD0008AE00E9416031092000180910001809324
:100FE000EA01DF91CF9108950F931F93CF93DF9381
:100FF0008FE00E9481018C0180E10E948101EC015F
:101000000130110539F0019769F48AEA91E00E94F4
:101010000B0A06C084EB91E00E940B0A2197A9F30A
:1010200081E001C080E0DF91CF911F910F91089581
:10103000CF92DF92EF92FF92CF93DF9381E0809384
:101040007E0283E28093A00210927F021092A1029E
:1010500080917D028111FCCF81E080937D0280939D
:101060007C029FEF90937B0210927A028093790228
:101070008093580280915802866480935802809130
:101080005702813061F41092570280915802809388
:10109000BB008091BC0083FDF8CF85EC01C085EEDC
:1010A0008093BC0080917D028130E1F380917A02CF
:1010B000823018F480917A0201C082E0A9E5B2E0A2
:1010C0002BEE31E0F9019E2F921B981718F49D9199
:1010D0009193F9CF1092DB018093DA0187E993E0D5
:1010E0000E941102D82F80E0C82F87E993E00E9468
:1010F0001102C82BD92B81E00E949909BE0180E022
:1011000090E00E9478162AE939E949E95FE30E94F4
:10111000C6150E943F166B017C016EEB71E082EBFD
:1011200092E00E94A60AA60160E070E02AE082EB4D
:1011300092E00E941E0A86EC91E00E940B0AC60112
:10114000DF91CF91FF90EF90DF90CF900895CF93F4
:10115000DF9385ED91E00E940B0AC09100018AECBB
:1011600091E00E940B0AD0910001109200010E94B0
:10117000A907D093000160ED77E080E090E00E9445
:1011800084030E94F407811107C00E949707109200
:10119000E401DF91CF910895C0930001DF91CF91D9
:1011A0000C94A907CF92DF92EF92FF920F931F93B7
:1011B000CF93DF936C017A018B01C0E0D0E0CE15B4
:1011C000DF0589F0D8016D918D01D601ED91FC917B
:1011D0000190F081E02DC6010995892B11F47E0163
:1011E00002C02196ECCFC701DF91CF911F910F91E3
:1011F000FF90EF90DF90CF9008958F929F92AF92E3
:10120000BF92CF92DF92EF92FF920F931F93CF93F3
:10121000DF93FC01C081D1812091AE023091AF02F9
:10122000C217D3070CF04BC09E01220F331FE09171
:10123000AC02F091AD02E20FF31F80809180C1708B
:10124000DD27F1E0CF27209719F404E610E002C073
:101250000CE91FEF7A015B016C01040F151FB80147
:10126000C4010E94C204892B99F40E0D1F1DB80100
:10127000C4010E94C204892B71F4B8016E0D7F1D58
:10128000C4010E94C204892BE9F023E030E005C0CC
:1012900021E030E002C022E030E0F5018081918160
:1012A0000196821793073CF0F50111821082F60136
:1012B00080819181019691838083CE0105C081E078
:1012C00090E002C08FEF9FEFDF91CF911F910F91C0
:1012D000FF90EF90DF90CF90BF90AF909F908F9056
:1012E0000895E2EBF2E0A089B18982E08C93A485B5
:1012F000B5851C92A685B7858FEC8C93108EA4893A
:10130000B58986E08C93A289B3898C9180618C9396
:10131000A289B3898C9188608C93A289B3898C91BE
:1013200080688C930288F389E02D80818F7D808393
:101330000895382F2091A1029091A002213208F047
:1013400049C080917D028111FCCF42E040937D0233
:1013500030937C023FEF30937B0210927A0220930D
:101360007902A0E8B2E049E552E0FA013E2F341BD1
:10137000321718F43D913193F9CF10925802209111
:101380005802990F922B90935802909157029130E6
:1013900061F410925702909158029093BB00909183
:1013A000BC0093FDF8CF95EC01C095EE9093BC0086
:1013B00090917D029230E1F390917B029F3F79F012
:1013C00080917B02803241F080917B02803331F04A
:1013D00084E005C081E003C082E001C083E0109298
:1013E0007F021092A10210927E020895611571058C
:1013F00079F0FB0101900020E9F73197AF01461B1E
:10140000570BDC01ED91FC910280F381E02D0994F2
:1014100080E090E00895CF93DF93BC0182EB92E0EF
:101420000E94F609EC0162E371E082EB92E00E9417
:10143000F6098C0F9D1FDF91CF9108954F925F9217
:101440006F927F92EF92FF920F931F93CF93DF9350
:10145000CDB7DEB7A1970FB6F894DEBF0FBECDBFF4
:101460007C01FA01CB0119A2223008F42AE08E0196
:101470000F5D1F4F422E512C612C712CBF01A30117
:1014800092010E94A717F901CA01015011096A309F
:1014900014F4605D01C0695CD8016C93232B242B8C
:1014A000252B61F7B801C7010E94F609A1960FB676
:1014B000F894DEBF0FBECDBFDF91CF911F910F918A
:1014C000FF90EF907F906F905F904F900895CF9234
:1014D000DF92EF92FF92CF93DF936C01990FEE08AA
:1014E000FF08F7FE1CC0E091B202F091B302019038
:1014F000F081E02D6DE282EB92E00995EC0144274A
:101500005527BA014C195D096E097F092AE082EB63
:1015100092E00E941E0A7C01EC0EFD1E08C02AE02B
:10152000B701A60182EB92E00E941E0A7C0162E3F1
:1015300071E082EB92E00E94F6098E0D9F1DDF9113
:10154000CF91FF90EF90DF90CF9008950C94F60923
:10155000CF93DF93CDB7DEB72C970FB6F894DEBFED
:101560000FBECDBF789484B5826084BD84B58160A0
:1015700084BD85B5826085BD85B5816085BD80915E
:101580006E00816080936E001092810080918100D6
:1015900082608093810080918100816080938100CE
:1015A000809180008160809380008091B100846090
:1015B0008093B1008091B00081608093B0008091F1
:1015C0007A00846080937A0080917A0082608093B0
:1015D0007A0080917A00816080937A0080917A000D
:1015E000806880937A001092C10010929303109249
:1015F0009403109295031092960310925103109247
:101600005203109253031092540360ED77E080E090
:1016100090E00E94840382EB92E090939203809387
:1016200091030E9471092FB7F8948091DC01909189
:10163000DD01A091DE01B091DF012FBF8093510346
:1016400090935203A0935303B093540363E271E069
:1016500080919103909192030E94A60A6AE070E043
:1016600080E090E00E94840381E0809365030E9403
:1016700071098091810088608093810060E070E052
:101680008AE00E94160360E070E089E00E94160381
:1016900060E070E085E00E94160360E070E086E0A4
:1016A0000E941603F89482E08093B0008093B1000A
:1016B00094E69093B3001092B200809370007894F7
:1016C0008093A3031092A7038091A40390E0FC01F0
:1016D000E057FF4F2491FC01E458FF4F8491882389
:1016E000C9F090E0880F991FFC01EE58FF4F45911B
:1016F0005491FC01E859FF4FA591B4919FB7F8941C
:10170000FA0180812095822380838C91E22FE82347
:10171000EC939FBF1092DB011092DA0110927F02CE
:101720001092A10210927D0211E010937C0210929F
:10173000570261E082E10E94E60261E083E10E94DB
:10174000E6028091B9008E7F8093B9008091B90044
:101750008D7F8093B90088E48093B80085E48093FE
:10176000BC0010937E0283E28093A00210927F025D
:101770001092A10260E187E993E00E945D0281E09E
:101780000E9499098FE39CE90197F1F700C00000DE
:1017900060ED77E080E090E00E94840365E371E013
:1017A00082EB92E00E94A60A1092E90182E3809304
:1017B000E10184E68093E2018093E30110E2212EAF
:1017C000312C44244A94542C32018FB7F894C090A1
:1017D000DC01D090DD01E090DE01F090DF018FBFF1
:1017E0000E94F4078823D1F18091E901811136C06C
:1017F000C092E501D092E601E092E701F092E801A3
:101800006DE371E082EB92E00E94A60A4091E5014F
:101810005091E6016091E7017091E8012AE082EBC6
:1018200092E00E941E0A62E371E082EB92E00E9465
:10183000F6098091E401811129C00E9418082091C5
:101840000101309102012817390700F10E94690651
:101850000E94A90781E08093E40118C08091E5010E
:101860009091E601A091E701B091E801C81AD90A68
:10187000EA0AFB0A91E3C91695E7D906E104F104E7
:1018800028F08091E40181110E94A708AAEAB3E040
:10189000B093AD02A093AC028091A70390E0909327
:1018A000AF028093AE028091740490E09093B102F5
:1018B0008093B0028091A303853009F077C28091B4
:1018C000AC039091AD03885891098D35910588F44A
:1018D0008091A703843041F48091AE039091AF03CF
:1018E0008097479708F47EC28091A703843408F05C
:1018F00060C28091A7038A3108F44FC08091AA0387
:101900009091AB03843F914068F41092AB02109227
:10191000AA024092A6025092A7026092A802709278
:10192000A90259C08091AC039091AD0385974B9764
:10193000A0F5E0EBF3E082E090E0C12CD12C760141
:10194000AC014F5F5F4F2091A70330E04217530770
:101950005CF4DF0112972D913C912750310927301B
:10196000310508F481C2CA01019795958795909336
:10197000AB028093AA020C972CF41092AB02109247
:10198000AA020BC0C092A602D092A702E092A802BF
:10199000F092A90284E090E03FC38091A7038A31CE
:1019A00008F44CC08091AA039091AB03803293401D
:1019B00008F4ABCF8091AC039091AD03C6978697A6
:1019C00008F46FC23BC0C092A602D092A702E09278
:1019D000A802F092A9028BE090E01EC32081318121
:1019E000255231092B31310508F06BC2CC0CDD1CBE
:1019F000EE1CFF1C6894C0F802963496AC014F5F51
:101A00005F4F2091A70330E04217530754F4DF01E2
:101A100012972D913C912C5031092B303105F0F269
:101A2000CA010197959587959093AB028093AA027E
:101A30000C974CF61092AB021092AA028091A70369
:101A4000823208F44DC08091AC039091AD030697AB
:101A5000079708F045C0E0EBF3E022E030E0C12C4E
:101A6000D12C7601C90101964091A70350E084175B
:101A70009507E4F4DF0112974D915C9111974E5157
:101A800051094731510508F029C2CC0CDD1CEE1C70
:101A9000FF1C6894C0F8408151813496435051092D
:101AA0004530510520F42E5F3F4FDCCFC90101972F
:101AB000959587959093AB028093AA0240972CF45A
:101AC0001092AB021092AA020BC0C092A602D09252
:101AD000A702E092A802F092A9028CE090E09CC2DA
:101AE0001C821B8281E090E09A8389838091A70306
:101AF0008D3008F46BC049E753E0BE016D5F7F4F46
:101B0000CE0101960E94FD08892B09F05FC049E7CC
:101B100053E0BE016D5F7F4FCE0101960E94FD082C
:101B2000019709F053C049E753E0BE016D5F7F4F55
:101B3000CE0101960E94FD08892B09F047C0812C37
:101B4000912C540100E010E08091A70390E02981DE
:101B50003A81281739075CF549E753E0BE016D5F0C
:101B60007F4FCE0101960E94FD087C0149E753E0BA
:101B7000BE016D5F7F4FCE0101960E94FD0831E0EE
:101B8000E316F10449F4892B09F5880C991CAA1C69
:101B9000BB1C689480F808C0EF28C1F40197B1F429
:101BA000880C991CAA1CBB1C0F5F1F4FCDCF109334
:101BB000AB020093AA028092A6029092A702A09282
:101BC000A802B092A90281E090E026C21C821B828A
:101BD00081E090E09A8389838091AE029091AF0278
:101BE000181619060CF058C0E091AC02F091AD0245
:101BF00082E090E09A8389838281938189974E97CE
:101C000008F04AC083E090E09A83898384819581BB
:101C10000B970A9708F040C04CEB51E0BE016D5F96
:101C20007F4FCE0101960E94FD08892BA9F54CEB50
:101C300051E0BE016D5F7F4FCE0101960E94FD080D
:101C4000019751F5812C912C540100E010E029817D
:101C50003A818091AE029091AF02281739070CF0BB
:101C600080C14CEB51E0BE016D5F7F4FCE0101960C
:101C70000E94FD086C010330110509F03CC14CEBDA
:101C800051E0BE016D5F7F4FCE0101960E94FD08BD
:101C9000C816D90609F42FC1E091AC02F091AD024B
:101CA00082819381C697869708F065C38481958168
:101CB0004B97459708F05FC3DF0116967F0196ECBE
:101CC000E90EF11C20E030E040E050E060E070E020
:101CD00080E090E00D911C91119709501109083096
:101CE000110508F048C312960D911C9113970151EC
:101CF00011090D30110508F043C101E00E941C15C7
:101D000021601496AE15BF0529F72093A6023093E3
:101D1000A7024093A8025093A90200E20E9437153F
:101D20002093A4023093A50285E090E09093A30253
:101D30008093A20280E390E09093AB028093AA028A
:101D40008091A2029091A3028330910509F069C1AC
:101D500067E471E082EB92E00E94A60A4091A6023D
:101D60005091A7026091A8027091A90220E182EB34
:101D700092E00E941E0A62E371E082EB92E00E9410
:101D8000F60982E08093A3031092A7038091A60234
:101D90009091A702A091A802B091A9028D37E2E824
:101DA0009E07EFEFAE07B10509F053C10E944E0147
:101DB0000CCD8091AE039091AF03825491098E9720
:101DC00008F097CD80E090E040E050E0BA01FC01DF
:101DD000E055FC4F208131812950310929303105EE
:101DE000B0F087CD8091B0039091B1030997099726
:101DF00008F07ACD1092AB021092AA024092A6028D
:101E00005092A7026092A8027092A902ADC2FC0192
:101E1000EE54FC4F208131812751310922313105A7
:101E2000B0F4440F551F661F771F41600496803839
:101E3000910569F63092AB022092AA024093A60265
:101E40005093A7026093A8027093A9028DC22081CB
:101E50003181265031092730310508F04ACD440F31
:101E6000551F661F771FE2CF208131812351310931
:101E70002F30310548F4CC0CDD1CEE1CFF1C68949F
:101E8000C0F8029634965CCD208131812A50310908
:101E90002930310508F081CDCC0CDD1CEE1CFF1C77
:101EA000F0CF8091AE039091AF03C697869708F06C
:101EB000C5CDE2EBF3E083E090E0C12CD12C7601BC
:101EC0009DCD208131812C5031092A30310508F017
:101ED000B5CDCC0CDD1CEE1CFF1C8ECD4D915C9164
:101EE0004C5051094B30510508F0FACDCC0CDD1C9B
:101EF000EE1CFF1CD0CD4CEB51E0BE016D5F7F4F5F
:101F0000CE0101960E94FD087C010330110569F4A1
:101F10004CEB51E0BE016D5F7F4FCE0101960E94F8
:101F2000FD08E816F90609F0B7CEC114D10459F43A
:101F3000EA94EF2809F0B0CE880C991CAA1CBB1CAF
:101F4000689480F80BC0CA94CD2809F0A5CEEF287C
:101F500009F0A2CE880C991CAA1CBB1C0F5F1F4F56
:101F600076CE1093AB020093AA028092A6029092C2
:101F7000A702A092A802B092A90282E090E04CC011
:101F800012960D911C9113970450110905301105FB
:101F900008F0F1C101E00E941C15B3CEA801425027
:101FA0005109DA014D915C91495051094830510570
:101FB00008F08FC2BC016F5F7F4FD8014D915C91DB
:101FC000475051094730510508F089C4220F331F8B
:101FD000216002960C5F1F4F4091A70350E04450D0
:101FE000510984179507D4F2019795958795909399
:101FF000AB028093AA028A970CF46BC2C901330F1B
:10200000AA0BBB0B8093A6029093A702A093A802F1
:10201000B093A90289E090E09093A3028093A2027A
:102020008FCE8430910519F465E571E093CE81304F
:10203000910519F46CE571E08DCE8230910519F4AB
:1020400062E671E087CE019609F088CE68E671E01D
:1020500081CE2091E901222309F467C08F3AF0E58F
:102060009F07FFEFAF07B10559F18F3820E79207BF
:102070002FEFA207B10581F08F3E9041AF4FB10520
:1020800009F094CE60E070E08AE00E9416030E949E
:1020900018080E9434068ACE8091010190910201B5
:1020A000029690930201809301011092E501109233
:1020B000E6011092E7011092E80182E090E01BC077
:1020C00080910101909102018330910530F00297D7
:1020D000909302018093010104C085E090E00E948A
:1020E00034061092E5011092E6011092E701109279
:1020F000E80181E090E00E94340662E771E082EB43
:1021000092E00E94A60A409101015091020160E014
:1021100070E02AE082EB92E00E941E0A62E371E026
:1021200082EB92E00E94F60941CE873AE8E59E07ED
:10213000EFEFAE07B10509F4FDC008F059C0853EC8
:102140002AE192072FEFA207B10509F4D7C040F5A5
:10215000853FEAE09E07EFEFAE07B10509F4DCC06A
:1021600078F48D3C22EF920723EFA207B10509F422
:10217000E5C08D3F9240AF4FB10509F4B0C016CE17
:102180008D3EE2E19E07EFEFAE07B10509F4D4C042
:10219000873E9841AF4FB10509F008CE80E4B2C048
:1021A0008F3C20E392072FEFA207B10509F4D2C0BC
:1021B00080F48D3DE2E29E07EFEFAE07B10509F432
:1021C000A5C0853D9A42AF4FB10509F0EFCD88E03B
:1021D00099C0873C28E392072FEFA207B10509F4C5
:1021E0009DC0853C9A43AF4FB10509F463C0DECD75
:1021F0008D35E2EA9E07EFEFAE07B10509F481C025
:1022000048F58D3622E992072FEFA207B10509F4B0
:102210008DC080F48738E8E79E07EFEFAE07B10581
:1022200009F486C085379A48AF4FB10509F0BECD95
:1022300080E868C0873628E992072FEFA207B1052A
:1022400009F472C085369A49AF4FB10509F0AECD99
:1022500080E658C08734E8EB9E07EFEFAE07B10584
:1022600009F460C080F485352AEA92072FEFA207AF
:10227000B10509F455C08D34924BAF4FB10509F04B
:1022800095CD80EC3FC08732E8ED9E07EFEFAE07BB
:10229000B10509F457C08730F8EF9F07FFEFAF078C
:1022A000B10509F44DC085349A4BAF4FB10509F023
:1022B0007DCD0CC080910001803E10F4805E01C095
:1022C0008FEF809300010E94A90770CD80910001DB
:1022D000803210F08052F5CF10920001F4CF80913F
:1022E000E401882319F00E94A70860CD0E946906C6
:1022F0000E94A90781E08093E40158CD1092E1018A
:1023000003C080EA8093E1018FEF1FC01092E101CA
:102310001092E2018FEF1BC080E1F4CF80E2F2CF98
:1023200080E7F0CF80E9EECF88E9ECCF80EBEACF11
:1023300088ECE8CF80EEE6CF88EEE4CF80EFE2CF06
:1023400088EFE0CF8FEF8093E1018093E2018093EB
:10235000E30104C08091E001811103C00E9469067D
:1023600025CD0E94970722CDE3E0F0E0F093A30291
:10237000E093A202E5CC8091A703893370F18281BA
:102380009381895791098335910508F448C125C087
:10239000D90112966D917C91139766517109613143
:1023A000710508F068C1D701C601880F991FAA1FDF
:1023B000BB1F6C017D016894C0F84E5F5F4F2C5FBE
:1023C0003F4F4B33510509F439C1D9016D917C91CF
:1023D0006A50710969307105D8F28091A703823281
:1023E00031F4828193810A97099708F454C182815C
:1023F00093818957910983359105D0F48091A70382
:102400008132B0F084819581CA97899788F49F01C1
:102410002A5F3F4FC12CD12C760143E050E0D90117
:102420006D917C916A5071096930710508F451C150
:10243000828193818C549109C59778F48091A70388
:10244000843031F4848195818097479708F4A7C13F
:102450008091A703843408F089C18091A703863452
:1024600060F1828193810C970B9708F4E3C125C03A
:10247000D90112966D917C9113976E517109673154
:10248000710508F00DC2D701C601880F991FAA1F58
:10249000BB1F6C017D016894C0F84E5F5F4F2C5FDD
:1024A0003F4F4534510509F4E0C1D9016D917C914C
:1024B0006C5071096B307105D8F28091A703883593
:1024C00040F082819381855891098B35910508F4FC
:1024D000F7C18091A7038032E1F48281938106974E
:1024E0000697B8F4848195810997099790F49F0124
:1024F0002A5F3F4FBF01625C7F4FC12CD12C760118
:10250000D9014D915C91465051094630510508F46E
:10251000F3C12091AE023091AF0238872F8326306D
:1025200031050CF424C28F010A5F1F4F83E090E055
:102530009E838D8395ECC92E9DE9D92E9CE1E92ED1
:1025400091E8F92ED8016D917C91F8013497A08023
:10255000B18080E090E00E94781669877A878B8747
:102560009C87B50180E090E00E9478164B015C01E9
:102570002DEC3CEC4CE45FE30E94D9169B01AC01CE
:1025800069857A858B859C850E94731687FD19C0A5
:102590002DEC3CEC4CE45FE369857A858B859C856A
:1025A0000E94D9169B01AC01C501B4010E947316AB
:1025B000E82F880FFF0BEE27FF0FEE1FFF27319646
:1025C00002C0E0E0F0E0A701960163E971E080E07D
:1025D00091E00E9497176F01FF0FEE08FF08C626D3
:1025E000D726E826F926ED81FE813196FE83ED831C
:1025F0000E5F1F4F2F813885E217F30709F0A2CF36
:10260000C092A602D092A702E092A802F092A9027C
:102610003092AB022092AA028FEF9FEFFDCC848113
:102620009581CA97899708F0D8CE9F012A5F3F4FBE
:10263000C12CD12C760143E050E0C7CE9F012A582F
:102640003F4FD9012D913C912A5031092930310554
:1026500008F0C3CE2CE130E03093AB022093AA0205
:10266000C092A602D092A702E092A802F092A9021C
:102670008AE090E0D1CCD90112966D917C911397AC
:10268000665071096730710508F0A7CECC0CDD1CCF
:10269000EE1CFF1C92CE2091A703CF01820F911D4B
:1026A000820F911DDC0112978D919C910A970997D9
:1026B00008F09DCE1092AB021092AA024092A602A0
:1026C0005092A7026092A8027092A902E6E0F0E0A0
:1026D0004DCED90112966D917C9113976651710977
:1026E0006131710598F5D701C601880F991FAA1F9E
:1026F000BB1F6C017D016894C0F84E5F5F4F2C5F7B
:102700003F4F4332510509F08ACE9F012A5B3F4F6C
:10271000D9012D913C912A5031092930310508F019
:1027200087CEE0E1F0E0F093AB02E093AA02C09222
:10273000A602D092A702E092A802F092A90226E097
:1027400030E03093A3022093A202FACAD901129674
:102750006D917C911397665071096730710508F08F
:1027600067CECC0CDD1CEE1CFF1CC7CF848195818D
:1027700089549109C39708F070CE9F012A5F3F4F9B
:10278000BF016A577F4FC12CD12C7601D9014D91E1
:102790005C914950510949305105A0F05ECE8681C7
:1027A00097810997099708F053CE1092AB021092C7
:1027B000AA024092A6025092A7026092A8027092CA
:1027C000A90225C0D90112964D915C9113974651EB
:1027D000510941315105F0F4D701C601880F991F05
:1027E000AA1FBB1F6C017D016894C0F82C5F3F4F8E
:1027F0002617370759F63092AB022092AA02C092F0
:10280000A602D092A702E092A802F092A902E7E005
:10281000F0E0ACCDD90112964D915C9113974650E2
:1028200051094730510508F018CECC0CDD1CEE1CC8
:10283000FF1CDCCF848195810997099708F03DCE74
:10284000868197818C974F9708F037CE8085918548
:1028500089974D9708F031CE9F01265F3F4FC12CDD
:10286000D12C760145E050E020CE9F0126573F4F06
:10287000D9012D913C912C5031092B30310508F0B4
:102880001CCE3092AB022092AA02C092A602D09235
:10289000A702E092A802F092A90288E090E0BCCBE7
:1028A000D90112966D917C91139769507109693025
:1028B000710508F002CECC0CDD1CEE1CFF1CEDCD2A
:1028C00084819581825491098E9708F002CE8F0100
:1028D000045C1F4F8DE190E020E030E07DCBD8011B
:1028E0004D915C91485151094231510510F0CB0195
:1028F0007BCB220F331F6DCBD90112964D915C918A
:102900001397495151094331510508F5D701C601C3
:10291000880F991FAA1FBB1F6C017D016894C0F826
:102920002C5F3F4F2617370709F0EACD2EE030E045
:102930003093AB022093AA02C092A602D092A702C3
:10294000E092A802F092A9028FE090E065CBD90155
:1029500012964D915C911397495051094930510598
:1029600008F0D7CDCC0CDD1CEE1CFF1CD9CF82E0CB
:102970008093A3031092A70319CAE2EBF2E013823B
:10298000128288EE93E0A0E0B0E084839583A68372
:10299000B78327E031E03183208325EC30E03587B1
:1029A000248724EC30E03787268720EC30E0318B19
:1029B000208B21EC30E0338B228B22EC30E0358B06
:1029C000248B26EC30E0378B268B118E128E138EE3
:1029D000148EEFE4F3E016821782108611861286B9
:1029E00013861486158616861786108A118A128A0F
:1029F000138A148A158AEAE7F4E02FEF2083128203
:102A00001182148613864FEF5FEFBA014783508718
:102A100061877287E7E9F3E01382128284839583EA
:102A2000A683B78387E191E091838083E3EAF3E0B3
:102A30008EE08183138208950F93083090F0982FD1
:102A4000872F762F652F542F432F322F22270850A0
:102A5000F4CF220F331F441F551F661F771F881F97
:102A6000991F0A95B2F70F91089597FB10F81694E5
:102A700000080F93083098F00850232F342F452F6B
:102A8000562F672F782F892F902DF4CF0594979587
:102A900087957795679557954795379527950A9523
:102AA000AAF70F910895EE0FFF1F0590F491E02D06
:102AB00009945058BB27AA270E9471150C945D17E2
:102AC0000E944F1738F00E94561720F039F49F3FAC
:102AD00019F426F40C944C170EF4E095E7FB0C94D3
:102AE0004617E92F0E946E1758F3BA17620773074B
:102AF0008407950720F079F4A6F50C9490170EF44E
:102B0000E0950B2EBA2FA02D0B01B90190010C01FD
:102B1000CA01A0011124FF27591B99F0593F50F415
:102B2000503E68F11A16F040A22F232F342F44276D
:102B3000585FF3CF469537952795A795F040539565
:102B4000C9F77EF41F16BA0B620B730B840BBAF035
:102B50009150A1F0FF0FBB1F661F771F881FC2F7A0
:102B60000EC0BA0F621F731F841F48F487957795B4
:102B70006795B795F7959E3F08F0B0CF9395880F6E
:102B800008F09927EE0F9795879508950E94DA151A
:102B90000C945D170E94561758F00E944F1740F092
:102BA00029F45F3F29F00C94461751110C949117AA
:102BB0000C944C170E946E1768F39923B1F35523B8
:102BC00091F3951B550BBB27AA2762177307840740
:102BD00038F09F5F5F4F220F331F441FAA1FA9F3D6
:102BE00035D00E2E3AF0E0E832D091505040E695C4
:102BF000001CCAF72BD0FE2F29D0660F771F881F25
:102C0000BB1F261737074807AB07B0E809F0BB0B17
:102C1000802DBF01FF2793585F4F3AF09E3F51052B
:102C200078F00C9446170C9491175F3FE4F3983EAC
:102C3000D4F3869577956795B795F7959F5FC9F714
:102C4000880F911D9695879597F90895E1E0660F95
:102C5000771F881FBB1F621773078407BA0720F00E
:102C6000621B730B840BBA0BEE1F88F7E095089577
:102C70000E943F166894B1110C94911708950E9418
:102C8000761788F09F5798F0B92F9927B751B0F071
:102C9000E1F0660F771F881F991F1AF0BA95C9F7E0
:102CA00014C0B13091F00E949017B1E008950C94D7
:102CB0009017672F782F8827B85F39F0B93FCCF38A
:102CC000869577956795B395D9F73EF4909580955D
:102CD000709561957F4F8F4F9F4F089581E090E0F1
:102CE000F8940C94E3170E94B51608F481E0089557
:102CF000E89409C097FB3EF4909580957095619596
:102D00007F4F8F4F9F4F9923A9F0F92F96E9BB274B
:102D10009395F695879577956795B795F111F8CFC7
:102D2000FAF4BB0F11F460FF1BC06F5F7F4F8F4F32
:102D30009F4F16C0882311F096E911C0772321F028
:102D40009EE8872F762F05C0662371F096E8862FC0
:102D500070E060E02AF09A95660F771F881FDAF717
:102D6000880F9695879597F90895990F0008550F44
:102D7000AA0BE0E8FEEF16161706E807F907C0F001
:102D800012161306E407F50798F0621B730B840B09
:102D9000950B39F40A2661F0232B242B252B21F4E3
:102DA00008950A2609F4A140A6958FEF811D811D83
:102DB00008950E94EC160C945D170E944F1738F08E
:102DC0000E94561720F0952311F00C9446170C948E
:102DD0004C1711240C9491170E946E1770F3959F55
:102DE000C1F3950F50E0551F629FF001729FBB2702
:102DF000F00DB11D639FAA27F00DB11DAA1F649F9E
:102E00006627B00DA11D661F829F2227B00DA11D50
:102E1000621F739FB00DA11D621F839FA00D611DD6
:102E2000221F749F3327A00D611D231F849F600DF7
:102E3000211D822F762F6A2F11249F5750409AF020
:102E4000F1F088234AF0EE0FFF1FBB1F661F771FAC
:102E5000881F91505040A9F79E3F510580F00C9477
:102E600046170C9491175F3FE4F3983ED4F3869590
:102E700077956795B795F795E7959F5FC1F7FE2B17
:102E8000880F911D9695879597F9089597F99F67F3
:102E900080E870E060E008959FEF80EC08950024E2
:102EA0000A941616170618060906089500240A94AF
:102EB00012161306140605060895092E0394000C35
:102EC00011F4882352F0BB0F40F4BF2B11F460FFC4
:102ED00004C06F5F7F4F8F4F9F4F089557FD9058ED
:102EE000440F551F59F05F3F71F04795880F97FBCE
:102EF000991F61F09F3F79F0879508951216130688
:102F00001406551FF2CF4695F1DF08C016161706B6
:102F10001806991FF1CF86957105610508940895EB
:102F2000E894BB2766277727CB0197F90895DB0143
:102F30008F939F930E94C917BF91AF91A29F800D5D
:102F4000911DA39F900DB29F900D11240895A1E2B1
:102F50001A2EAA1BBB1BFD010DC0AA1FBB1FEE1F13
:102F6000FF1FA217B307E407F50720F0A21BB30B5E
:102F7000E40BF50B661F771F881F991F1A9469F7DA
:102F800060957095809590959B01AC01BD01CF0136
:102F900008950E94D417A59F900DB49F900DA49FF3
:102FA000800D911D11240895A29FB001B39FC0010F
:102FB000A39F700D811D1124911DB29F700D811D65
:0A2FC0001124911D0895F894FFCF2D
:102FCA00FF0A0000000000E500D208AE008C00A055
:102FDA00002C01000000005D022D022502110202F0
:102FEA00020102564D4450565F317C315F564D44C2
:102FFA0050560D0A0053746172743A20004E657778
:10300A0054696D653A20005369676E616C3A204EC7
:10301A0045433A2000534F4E593A20005243353A1D
:10302A0020005243363A2000554E4B4E4F574E3AE7
:10303A0020004E6577207468726573686F6C64202F
:10304A0000666C617368004853563A002C2000549D
:10305A0075726E2052474220746F3A005475726E30
:10306A00205768697465204F4E004D6F74696F6E02
:10307A004F6E32004D6F74696F6E4F6E31004C693E
:10308A006768743A2000206C78005475726E205775
:0A309A0068697465204F4646000087
:00000001FF
